:10400000E03F0010CD9000002191000021910000C0
:10401000219100002191000021910000000000008A
:1040200000000000000000000000000021910000DE
:10403000219100000000000021910000219100006A
:1040400021910000C94F0000A97A000021910000D1
:104050002191000021910000219100002191000098
:104060002191000021910000219100002191000088
:104070002191000021910000219100002191000078
:104080002191000021910000219100002191000068
:1040900021910000055100002191000021910000B4
:1040A000C9900000219100001952000021910000E8
:1040B0002191000021910000219100002191000038
:1040C000219100002191000021910000044B05483E
:1040D0001B1A062B02D9044B03B11847704700BFC7
:1040E0002B0A0010280A00100000000005490648AD
:1040F000091A891001EBD171491002D0034B03B1A9
:1041000018477047280A0010280A00100000000015
:1041100010B5064C237843B9FFF7D8FF044B13B111
:104120000448AFF300800123237010BD280A00105B
:10413000000000002CAE000008B5084B1BB1084978
:104140000848AFF300800848036813B9BDE8084089
:10415000CCE7064B002BF9D09847F7E700000000AA
:104160002C0A00102CAE0000280A001000000000ED
:10417000002301461A46184600F08AB838B5074DA4
:10418000074C2C1BA41005D0013C55F8043D984762
:10419000002CF9D1BDE8384006F052BE50AE000008
:1041A0004CAE000070B50F4E0F4D761BB61018BF09
:1041B000002405D0013455F8043B9847A642F9D1B4
:1041C0000A4E0B4D06F032FE761BB61018BF0024C7
:1041D00006D0013455F8043B9847A642F9D170BD8A
:1041E00070BD00BF38AE000038AE000040AE000029
:1041F00038AE000070B4840746D0541E002A41D067
:10420000CDB2034602E0621EE4B3144603F8015B3C
:104210009A07F8D1032C2ED9CDB245EA05250F2CEB
:1042200045EA054519D9264603F11002103E0F2E26
:1042300042F8105C42F80C5C42F8085C42F8045CFE
:1042400002F11002F2D8A4F1100222F00F0204F0E1
:104250000F041032032C13440DD91E462246043A93
:10426000032A46F8045BFAD8221F22F00302043224
:10427000134404F003042CB1C9B21C4403F8011B1D
:10428000A342FBD170BC704714460346C2E700BF8F
:104290002DE9F047254C064625688846D5F8484163
:1042A00092469946C4B360681F2817DC411C76B15A
:1042B00004EB8003C3F888A0D4F88851012282401F
:1042C0001543022EC4F88851C3F808911ED0831CF0
:1042D0006160002044F82380BDE8F087144B03B3ED
:1042E0004FF4C870AFF300800446D0B1D5F8483120
:1042F000002784E888003846C5F848410121C4F801
:104300008871C4F88C71002EE1D0D1E7D4F88C31DB
:104310001A43C4F88C21DAE705F5A674C5F84841BC
:10432000C1E74FF0FF30BDE8F08700BF40A30000B9
:1043300000000000024B13B10248FFF719BF70479D
:10434000000000007D41000010B500231A4640FA2D
:1043500003F1C3F1070401F00101A14001330A4355
:10436000082BD2B2F3D1104610BD000010B5044C9A
:10437000206004F0E3FEE080000CA08010BD00BFD0
:104380005004001038B5264B264C1A7812B11A7812
:10439000012A28D11B7833B1214B1B78012B14BF84
:1043A0000025402500E0292547F6FF710D2004F087
:1043B000BEFF42F62231122004F0B9FF41F24B3128
:1043C000142004F0B4FF40F20111202004F0AFFFEC
:1043D000B4F84C100220013989B204F0A8FF294634
:1043E000032004F0A4FFB4F84C0080B202F01EFFDA
:1043F00002F0B6FF05F042F84206FBD5612005F059
:1044000044F805F03BF84307FBD5622005F03DF882
:10441000054B80221A604FF480721A6038BD00BFCD
:10442000440A00105004001058C0092070B5284BF1
:1044300004461A7832B11B78012B48D1402540F24E
:10444000615602E040F26146292547F6FF710D20D2
:1044500004F06DFF42F62231122004F068FF41F2B1
:104460004B21142004F063FF3146202004F05FFF4D
:10447000A1B22C2004F05BFF210C164C2D2004F07F
:1044800056FFB4F84C100220013989B204F04FFFF6
:104490002946032004F04BFFB4F84C0080B202F030
:1044A000C5FE02F05DFF04F0E9FF4206FBD5612086
:1044B00004F0EBFF04F0E2FF4307FBD5622004F0B9
:1044C000E4FF054B80221A604FF480721A6070BDC1
:1044D000440A00105004001058C00920F8B50746DF
:1044E0000E4602F0C3FD1D4D044620B96B7843F023
:1044F00004036B70F8BD042F07700ED140F63541F0
:10450000174A13681B0DC370164B12681B68C2F361
:10451000130201FB0233436014E0AB78C3706B6895
:1045200043602B89623B83700F4B1B7843720F4BA8
:104530001B780372288980B202F064FE0C4BA072D3
:104540001B78E3723222314604F10E0005F054FE6E
:104550006B780120637000236B70F8BD440A001073
:104560006C1200100840004052120010501200104F
:10457000EE16001010B5642004F087FF04F07EFFF3
:1045800000F0040000F0FF040028F7D1214B802246
:104590001A6010214FF480721A6043F8201C43F80F
:1045A000202C022243F8202C02F0B2FE02F0C8FFB9
:1045B00002F09CFE02F0C2FD40F68911164B174A2C
:1045C0009C72DC72A2F84C109E219C81A2F84E10C5
:1045D00040F66211DC81A2F850109C705C601C8176
:1045E0001C745C705C749C74DC741C751C704FF4DF
:1045F0001663A2F8523040F6B313A2F85430E22307
:1046000082F85630064B00200021C3E90001C3E9BF
:10461000020110BD5CC00920440A001050040010C3
:10462000681700102DE9F0473C4E3D4FB6F84C009E
:104630003C4C80B202F09EFB00221346385C195DB0
:104640000133C9071F2B41EA5202DFF8D8C0F6D167
:1046500034681CF80310C90741EA5202A24255D13E
:10466000DFF8C49000244FF07F084FF0000E75462D
:1046700003EBC40A05EB0A026244032C12F81F2C58
:1046800009DD391891F8281001304A40B0FBF8F1E3
:10469000C1EBC111401A02FA05F1013541EA0E02DF
:1046A000082D5FFA82FEE5D1D9F800201E4D02F8F0
:1046B00004E001342E2CD8D133695BB9296801207C
:1046C000FFF70CFF194B10221A60194B28689B69E1
:1046D00098471FE02B685C79104B296804F03F0471
:1046E000A21C0431D86802F0C9FB2A6804F108034F
:1046F000D35C2968E21D8A5C29680634095D1202D0
:1047000042EA03430B43984204D1D7E70133B3F5A0
:10471000D87F9ED10120BDE8F08700BF5004001073
:1047200048A30000CC130010C813001038C00920A3
:10473000440A001038B5584B05461A7D1C46022A1B
:1047400013D103221A75554A12689A61DA8B013A1D
:1047500092B29A8300221A849A62514BDA7C002A20
:1047600000F099802822DA6138BD032A03793BD111
:10477000A26A03F00303A2B1228CA18D92B29142EE
:104780000FD1464A1268A261E28DE283013A92B2E9
:10479000A28394F8302084F82220628EA284002222
:1047A000A262032B77D1AB79002B74D1EB7984F81B
:1047B00030306A7A2B7A03EB02236386EA7AAB7A8B
:1047C00003EB0223E3856A7C2B7C03EB0223228C20
:1047D0009BB292B2A3859B1A47F6FE7293425ADCB3
:1047E0002D4B01229A6238BD012A54D103F00F03E8
:1047F000052B50D14379222B4DD1427F037F43EAD1
:10480000022340F67A42063B9BB2934243D8636C44
:104810003BB9022323750023236105F111011846DA
:1048200011E00622811804F1380005F0B3FC0028DD
:10483000EFD0062205F10C0104F1380005F0AAFCC6
:104840000028E6D038BD11F8012F9A400833202BFC
:1048500040EA0200F7D1FFF789FDEB7D287E1B02BD
:1048600043EA0043A87D1843A06004F067FC6B7E18
:10487000E06084F82230AB7EA3846A7F2B7F43EA1A
:104880000223E38395F82730012203F01F03A37569
:104890006375034BDA7238BD500400106C120010BF
:1048A000440A0010F8B50E4615461C46472800F28B
:1048B0005783DFE810F006014A004F00530058000C
:1048C0005B0060006300650069006E00C300CC00FF
:1048D0000B017C0077008100860089008E00960025
:1048E000BB00BD00BF000401080155030D019A0083
:1048F000A100AB00A900AD0036012901530156010A
:104900005A015E01A901E201FD013E024E02590277
:1049100053035D02620268026F027D02E601F2014A
:104920008C02C6024501DB02550394024A034E0382
:10493000CB01DE010A0255034800AB022701BB028E
:1049400011024603D00200234EE2A04B01209874CE
:104950000023A0E19D4B02229A7270E29C4B1B68DF
:10496000C3F3400303E10A88022315E0984B1B6858
:10497000C3F30013FBE00A8810230DE0944B24E0FE
:104980000A884FF4807307E0914B1B68C3F3402300
:10499000EDE00A884FF400730AB18E4A00E08E4AB7
:1049A0001360DBE22146104604F054FED6E22146B5
:1049B000104604F069FED1E2884B1B68C3F3C013B4
:1049C000D5E00A88802307E0844B1B68C3F30023EB
:1049D000CDE00A884FF480730AB1814AE0E7814A4A
:1049E000DEE70322794B9A74B8E2052004F096FCC6
:1049F00000F007002870D8E10988072900F2B0828A
:104A000041F008010520ECE10522EBE70622E9E789
:104A1000754B1A782A705A786A709A78AA70DA7880
:104A2000EA701B792B710523236097E20022D9E7F6
:104A3000664B9BE00A78654B1A708FE26B4BB3F8BC
:104A40004C202A70B3F84C30C3F3072393E10A8853
:104A500040F6EA215D4BDA81DA8992B28A4204D9C2
:104A600001229A7240F6621215E000229A7240F614
:104A7000DC02D98989B2914240F6E92184BFDA8902
:104A800092B2DA81DA8992B28A428FBF40F6EA2284
:104A90004E4AD28992B2DA81D989544A89B2A2F8AF
:104AA00050105B7C4948092B00F05882C3899BB2A7
:104AB000A2F84C300023C381B2F84C0083E104F02B
:104AC00015FE0023B0E74A4A4A4B1A600B2289E7D9
:104AD0000A886FF400601318B3F5806F80F040828D
:104AE0004B886FF400615918B1F5806F80F03882FF
:104AF0009A4200F235823D49A1F85220A1F8543083
:104B000004229BE10F2299E10B88B3F5807F00F22C
:104B10002782364AC3F136035BB282F85630072249
:104B20008CE1002313705370334805F0DBFBC6B2F1
:104B3000A87032463049E81C05F05EFB03360BE0F6
:104B40002E4805F0CFFBC6B205F8010B32462B49C3
:104B5000284605F051FB01362660FFE10120107068
:104B600024E10A88264B1A702AE1254B1B782B700A
:104B70001BE1244C00220023C4E90023C4E90223E2
:104B80006F1E0026324617F8010F002105F066F966
:104B9000D4E90023083610431943402EC4E900012C
:104BA000F0D107350026324615F8010F002105F037
:104BB00055F9D4E90223083610431943402EC4E9BD
:104BC0000201F0D101F08EFFC8E100BF440A0010DD
:104BD00034C0092038C009203CC0092054C0092035
:104BE00058C009205CC0092028170010500400108C
:104BF00021BB05431C000010F2AB0000EFA3000036
:104C0000F016001068170010B04B00221A60E81C64
:104C10006A1E19680902196012F8014F196890425A
:104C200041EA04011960F4D1A94B02229A72A94AFF
:104C300001204FF080511874116029796A7942EA95
:104C40000122A5490A8008229A74F8BDA04B0522CA
:104C50009A720E229A7400231946A04A995401337D
:104C60000A2BFBD19E4B00221A709E4B012018701C
:104C7000F8BD974B0120D872F8BD12689A4B1A60A4
:104C80009EE0964A0023E95C995401330A2BFAD13D
:104C9000944A012010702360F8BD002319468F4A02
:104CA000995401330A2BFBD18E4A00211170BBE6C7
:104CB0008D4B551E1968002321FA03F20833202B6F
:104CC00005F8012FF8D10423AEE612786B7843EA99
:104CD0000223814A138041E1844B1078527819886D
:104CE00042EA00220A4412B21A801A88804812F45A
:104CF000004F804A07D01B884FF4A0715B429BB2E3
:104D000091FBF3F30AE0198809B200290DDD1B8835
:104D10004FF4A0711BB291FBF3F39BB21380138885
:104D20009AB2754B1B68134401E0002313800360A3
:104D300014E10B88714D00226B63654B2260DA72BF
:104D400003229A7209229A7402F082F9B5F84C0093
:104D500039E06A49551E00230A68DA400833202BDF
:104D600005F8012FF8D1AEE71068FFF7FFFAE4E08D
:104D70001323137037236B702FE0604B1B690033D4
:104D800018BF0123F3E60B885C4A003318BF0123E8
:104D90001361E3E002F084F9014628B1402228467D
:104DA00005F02AFA40233FE6287001202060F8BD74
:104DB000474B002222609A720A229A7402F048F944
:104DC0004E4BB3F84C0080B202F030FAC6E00878DF
:104DD00004F0A4FA030A2B706870022324E64988C1
:104DE000307804F0A4FAB9E032885C1CDBB293425C
:104DF00080F0B48003EB4303EA1851789278E85CC2
:104E000042EA012104F093FA2346EDE70026F7B2C7
:104E1000384604F083FA0136030A2E2E2F706B7089
:104E2000A87005F10305F2D18723FDE592792946A3
:104E30000732D2B2324805F0DFF91022244B9A74BF
:104E40003FE6234C0622294604F1200005F0D4F960
:104E50000C23A37482E08A88152A00F281802748F7
:104E6000294682655C3005F0C7F977E09479302CEB
:104E700076D874B9214D2146062205F138006C64BC
:104E8000FFF7B8F90622214605F13E00FFF7B2F917
:104E900064E01C4C931D224613F8011DAB4202F83E
:104EA000011FF9D1002106221748FFF7A3F9134982
:104EB0000523FF26A879082828D9CA1882F83E6059
:104EC000AA79013B083ADBB2AA71F3E7601200103D
:104ED000440A001098C00920BA13001053120010A1
:104EE00051120010EF1600106C120010EC1600109A
:104EF00024170010681200106412001050040010F3
:104F000070120010870400108E04001060B10021A0
:104F10000A460131CDB25208A84242F08002F8D8C8
:104F200010490B4483F83E200F4A14F8011FA3795F
:104F3000A24203EA01032370F7D10A4B012058640F
:104F4000F8BD0A4B01209862F8BD0A78074BDA7465
:104F500004E0064B0D229A740A781A750120F8BDF8
:104F60000020F8BD500400108C040010440A00100A
:104F70002DE9F04106460F46904602F077F8104DB5
:104F8000044628B96B7843F004036B70BDE8F081E8
:104F90000C4B0670B3F84C300026623BC670C0F86C
:104FA000048083708672C672322239460E3005F054
:104FB00023F96B786E7063700120BDE8F08100BF4B
:104FC000440A00105004001030B54FF040231B6815
:104FD000D9077DD53F49404B08681A680244013221
:104FE0001A6000220A603D4A1868947A114614B18A
:104FF000947A012C05D11A68520638D10122CA725E
:1050000035E0917A022903D11968CD072FD42CE01D
:10501000917A03291CD132490C7D032C27D18C694C
:10502000001B840723D1888B013880B28883888B4A
:1050300080B240B90120D0720A8C024492B20A8434
:10504000CA8B8A8313E0274A4FF4807111600EE007
:10505000917A05290BD12249B1F84E1088B2224924
:1050600009681C680144A14201D10121D1721F4984
:105070001F4A0868B8B1108880B2A0B91C680868D7
:10508000844210D31B481C4D008800044CBF41F6DD
:10509000690001201080186828601848008884B2D0
:1050A00028682044086040F63440118889B2814263
:1050B00082BF196802311960138811499BB203F647
:1050C00034430B600023138001224FF040231A6009
:1050D00030BD00BF601200106C120010440A0010B6
:1050E000500400103CC00920481200102417001082
:1050F000BA130010EC1600106412001068120010B1
:1051000018400040084B04221A60084B4FF08052B0
:105110001A60074B01221A70064B9A7A022A04BFC2
:1051200000221A74704700BFAC8002409CC0092066
:1051300065170010440A001010B5294B5A7C012A4B
:1051400011D05A7C082A0ED05A7C042A0BD05A7CE3
:10515000092A08D05A7C0A2A05D05A7C0C2A02D087
:105160005A7C0F2A3AD11F4A1268D10736D51E4AF7
:105170001268D20727D540F635441C4A0121116038
:105180009A7A1B48022A02BF1A4A4FF080511160D6
:10519000194A01681268C1F3130104FB01225A6025
:1051A0000268C2F307529A70144AB2F84C2092B2C5
:1051B0001A81134A134B116818681060124A19605B
:1051C000136801331360114B1B68DB0706D5104BC6
:1051D00001221A600F4A13680133136010BD00BF2B
:1051E000440A0010004000500440005008400050A5
:1051F0006C12001098C009200840004050040010B4
:10520000AC120010C81300104C1200100C400050DB
:10521000104000506017001008B5114B5B7C092B43
:1052200002D102F04BFB01E0FFF786FF0D4B1B683C
:10523000190614D50C4B1B681A0605D50B4B80229A
:105240001A600B4B00221A600A4B1B681B0606D51E
:10525000094B80221A60094B02221A60FEE708BD42
:10526000440A001000400050044000500840005024
:10527000A81100100C4000501040005038C0092008
:105280002DE9F04F89B00D46904603F057FF4C4E84
:105290000746B6F84C00202D80B228BF202501F02B
:1052A00069FDC44647490DF1FF320C5C4FF07F0A9F
:1052B000C8EB0C039D421ED91CF8019B01324FF034
:1052C000070E0023081990F8280009F0010B01349B
:1052D0008BEA0000B4FBFAFB00FA0EF0CBEBCB1B21
:1052E00003431EF1FF3ECBEB04044FEA5909DBB246
:1052F000E8D21370DCE747F6FF710D2004F017F8D1
:1053000042F62231122004F012F841F24B311420FF
:1053100004F00DF840F6E141202004F008F8B6F85A
:105320004C10022089B204F002F80B21052003F092
:10533000FEFF4021032003F0FAFF1421232003F095
:10534000F6FFB9B22C2003F0F2FF390C2D2003F048
:10535000EEFF04F093F84106FBD5612004F095F8C8
:1053600004F08CF84207FBD5174B4FF480721A609B
:1053700080221A620E2003F0D1FF00F01F000F28D8
:10538000F8D12846694603F0E5FF632004F07DF874
:105390000E2003F0C3FF00F01F000F28F8D10B4BC5
:1053A0004FF480721A60642004F06FF804F066F81D
:1053B0004307FBD4064B80221A6009B0BDE8F08F8A
:1053C0005004001048A3000038C009203CC0092048
:1053D0005CC0092008B547F6FF710D2003F0A7FF58
:1053E00042F62231122003F0A2FF42F24B31142088
:1053F00003F09DFF40F60141202003F098FF0B21B0
:10540000052003F094FF4021032003F090FF04F0F7
:1054100035F84206FBD5612004F037F804F02EF889
:105420004307FBD5084B4FF480721A6080221A6242
:105430000E2003F073FF00F01F000F28F8D1632047
:10544000BDE8084004F021B838C00920F8B56B4C1D
:105450000023E3726A4B6B4A19681160A27A5AB949
:10546000022003F05BFF684BB3F84C309BB2013B6A
:10547000984240F09480F8BDA27A012A3AD1624A5B
:10548000624B10461D78624B624F1E784FF0080E3B
:10549000B2F84C3020339BB2A2F84C30B2F84C300A
:1054A0009BB2B3F51B6F81BFB2F84C304F3B9BB240
:1054B000A2F84C30002D72D0002E70D0B0F84C30D5
:1054C000B0F84C109BB2A3F6621393FBFEF389B2C3
:1054D00017F803C0504BA1F662110B40002BBEBF62
:1054E00003F1FF3363F0070301334CFA03F3DB07E7
:1054F000CED554E0A27A052A35D1434A434B104613
:105500001D78444E0827B2F84C3020339BB2A2F8E5
:105510004C30B2F84C309BB2B3F51B6F81BFB2F880
:105520004C304F3B9BB2A2F84C304F2D37D0B0F8E7
:105530004C30B0F84C109BB2A3F6621393FBF7F318
:1055400089B216F803E0344BA1F662110B40002B30
:10555000BEBF03F1FF3363F0070301334EFA03F3D9
:10556000D907D0D41BE0A27A022A06D1186801F02C
:105570005FFB254BA3F84C0011E0A37A032B06D167
:10558000214D284601F026FCA5F84C0007E0A37A3F
:10559000042B01BFA3891C4A9BB2A2F84C306420A3
:1055A00003F073FF03F06AFF4207FBD4607C164DE3
:1055B000C0B2B5F84C10022817BF01F1FF3189B213
:1055C00089B2022003F0B3FEA37A23B1B5F84C00F0
:1055D00080B201F02BFE612003F057FF03F04EFF75
:1055E0004307FBD501232374637C022B0CBF63208C
:1055F0006220BDE8F84003F048BF00BF440A001035
:105600006C120010481200105004001051120010CB
:10561000EF16001053120010070000802DE9F74F1D
:105620004D4D10234D4F2B6001F012FDB84603F095
:10563000E9FD01F0E5FE01F063FFFEF7A3FE01F0D6
:1056400025FE474CA37CA246012B7BD110232B6067
:1056500001F074FDDFF80CB16FF07F063B68414A42
:10566000DFF820911BBB062003F058FE9BF80030AA
:1056700040F307205BB116F1800F08D13A4B93F944
:1056800000603636B042B8BF304646B2304601F010
:1056900071FDD9F8000001F03DFD9AF80B3013B10F
:1056A000FFF7D4FEDAE74FF480732B60D6E72F4B79
:1056B00010212F4E196033681BB1637843F0020349
:1056C0006370D8F80030012B82BF637843F0010388
:1056D0006370217C224B29B1597841F02001597027
:1056E00000211974234B0192B3F84C0080B201F0F1
:1056F00061FD019A137813B91F4B1B782BB16378A6
:1057000043F00803637000231370174B1B4A93F98F
:10571000003092F9002035339342B8BF63784FF0E0
:105720000000BCBF43F010036370154B1968FEF70F
:10573000D5FED9F8000001F0EDFC0023C8F80030D8
:1057400033607EE7A37C082B80D001F0F9FE03B024
:10575000BDE8F04F01F0B2BD3CC009204C12001072
:10576000440A0010651700106417001038C00920A3
:105770006017001050040010B813001050120010F1
:10578000C81300106C1200102DE9F04385B0964B41
:105790000027D3E90245002304F0010213434AF62F
:1057A000AA234FEAD57645F2555808BF9846002FF0
:1057B00008BF012EE0B20CBFAA265526FEF7C4FD95
:1057C0008DF80000C4F30720FEF7BEFD8DF8010040
:1057D000C4F30740FEF7B8FD8DF80200200EFEF777
:1057E000B3FD8DF80300E8B2FEF7AEFD8DF80400BE
:1057F000C5F30720FEF7A8FD8DF80500C5F30740A7
:10580000FEF7A2FD8DF80600280EFEF79DFD8DF82F
:1058100007003046FEF798FD8DF808007720FEF768
:1058200093FD8DF809006620FEF78EFD8DF80A00C5
:105830005520FEF789FD8DF80B004420FEF784FD0E
:105840008DF80C003320FEF77FFD8DF80D0022202F
:10585000FEF77AFD8DF80E001120FEF775FD3C462F
:105860003B468DF80F0048FA03F2C3F10F0102F036
:1058700001028A4001331443102BA4B2F3D147F63E
:10588000FF710D2003F053FD42F62231122003F088
:105890004EFD41F24B31142003F049FD40F6014129
:1058A000202003F044FD21462C2003F040FD002180
:1058B0002D2003F03CFD4D4B0220B3F84C104C4C16
:1058C00089B203F034FD0B21052003F030FD23786D
:1058D0000BB9292103E02378012B1DD1402103209E
:1058E00003F025FD01F03CFD03F0C8FD4506FBD5A6
:1058F000612003F0CAFD03F0C1FD4007FBD53D4B1D
:1059000080221A600E2003F009FD00F01F000F280E
:10591000F8D1632003F0B9FD1421232003F007FD23
:10592000082003F0FBFC344EC0F30801074641F4A5
:105930009C41082003F0FBFCB1460025A37C022B10
:1059400048D1DFF8C4806D0840F6C9033268B5EB72
:10595000520F05D1E27A002AF8D0FFF777FDF3E77E
:10596000D8F800209A42F5D9244B4FF48072D9F828
:10597000005069461A60102003F0ECFC0E2003F082
:10598000CDFC00F01F000F28F8D11D4B4FF48072A2
:105990001A60642003F079FD03F070FD4107FBD429
:1059A00003F06CFD4206FBD5612003F06EFD03F0B1
:1059B00065FD4307FBD50E2003F0B0FC00F01F008F
:1059C0000F28F8D1632003F060FD0B4B186801F03D
:1059D000A1FBB3E70B4B80221A603946082003F085
:1059E000A6FC05B0BDE8F083681700105004001055
:1059F000440A001058C009206C12001038C0092059
:105A00003CC009205CC009200840004008B50F4890
:105A1000FEF7ACFC0E4B0F4A9A600F4ADA60002288
:105A20009A831A611A849A641A755A759A759A61DA
:105A3000DA8383F822209A849A629A85DA8583F839
:105A400030205A86054BDA7208BD00BFD6BE898E5B
:105A50005004001055555500AAAAAA00440A001087
:105A600010B5064C4FF4847200212046FEF7C2FBAD
:105A70004FF0FF33C4F8003110BD00BFB01200106A
:105A80002DE9F84F6E4C0123804623706074FFF7B8
:105A9000BDFF6C4B4FF080726B4E1A606B4F102342
:105AA000336001F0D5FAB94603F0ACFB01F0A8FC75
:105AB00001F026FDFEF766FC01F0E8FB0025A37C63
:105AC000984540F0AB805E4BDB899BB2D3B164203C
:105AD00003F0DBFC03F0D2FC4207FBD45C4B02205A
:105AE000B3F84C10013989B203F021FC612003F0B6
:105AF000CCFC03F0C3FC4307FBD5622003F0C5FCDC
:105B00000023E381E37A13B1FFF7A0FC02E04FF436
:105B1000807333601023336001F010FB6FF07F0B54
:105B20003A68DFF84CA1D2B9DAF80020BAB90620F9
:105B300003F0F4FB474A40F30720127862B11BF1EF
:105B4000800F09D1444B93F9003036339842B8BFE7
:105B500018464FFA80FB584601F00CFBE0E7DAF8F4
:105B600000301BB1637843F002036370D9F8003052
:105B7000002B5FD03B68012B82BF637843F00103A9
:105B80006370334BB3F84C0080B201F013FB314A21
:105B9000137813B9314B1B7833B16378022543F086
:105BA00008036370002313702B4B2D4A93F90030C8
:105BB00092F900203533934205DA6378022543F0E9
:105BC0001003637000E0ADB326494FF4C872A1F52D
:105BD000C87004F011FB013DDFF88CB0DFF894E0F1
:105BE000EDB2002303F132000BEBC0000021DEF820
:105BF0000020D25CDEF800C0D20942541CF8032019
:105C000001315200D2B208290CF80320EFD1013340
:105C1000322BE7D1E36A1448984758B9134B4FF039
:105C200080721A60FEF7A6FC01F08AFCBDE8F84F0E
:105C300001F044BB0023C9F80030CAF800303EE749
:105C4000440A001000E100E03CC009204C120010A2
:105C5000500400106517001064170010B8130010EE
:105C6000501200105C150010CC13001080E100E011
:105C700060170010C81300102DE9F04F93B0A84D25
:105C8000A84C01232B702375A74B4FF08072A74EB1
:105C900068741A6010233360814601F0D9F903F06B
:105CA000B1FA01F0F1FB01F02BFC206803F046FA99
:105CB000DFF880B2FEF7BAFB0096AB7C994540F066
:105CC000A181974BDB899BB2CBB1642003F0DDFB54
:105CD00003F0D4FB4107FBD4B4F84C100220013987
:105CE00089B203F024FB612003F0CFFB03F0C6FB75
:105CF0004207FBD5622003F0C8FB0023EB81009A2A
:105D00001023136001F01AFA8949854A894B1B68F0
:105D100033B90B6823B9EB7A13B9937C9945F5D065
:105D2000062003F0FBFA844B40F307201870834BE6
:105D30007B4A1870AB7C994540F06481DFF8F0A194
:105D4000DAF8003057461BB1537843F00203537022
:105D5000EB7A03F0FF01002B40F0A680DBF8003067
:105D6000002BAAD0342205A8FEF744FAB4F84C0060
:105D7000236880B2059300F0FDFF30264643DFF82C
:105D8000E88108EB060301936D4B18785A7893F875
:105D900002E01204D97842EA0060084340EA0E208B
:105DA000029303F0CBF958F806607040C0F3052663
:105DB00006F10208B8F1270F069075DC0836B20824
:105DC0000B2A029B01D15F4A0BE05F4903EB820380
:105DD0000A689A4208D23A68002AF9D004E03B687F
:105DE00013B91368DB07FAD4584A612013680427F3
:105DF00023F00103136003F048FB514A7B1CD05D84
:105E000012F803C0BB1C12F803E0FB1CD35CB910F2
:105E100043EA006040EA0C4040EA0E2003920291FF
:105E200003F08CF9029912AB03EB810E019B04374E
:105E300053F821302C2F80EA03004EF8300C039ADF
:105E4000DCD12369DBB9424B10221A6005A8AB698B
:105E50009847404B4FF080761E6005A90120FEF761
:105E60003DFB40F63541304B1E603B4B1A683B4BC7
:105E7000C2F313021B6801FB0233A36414E0294B35
:105E80004246D86806A900F0F9FF12AB1E449844B8
:105E900016F8343C18F82F2C1B0443EA022318F898
:105EA000302C13439842CED0612003F0EEFA274AFB
:105EB0002B491368183A23F00103936113685807BC
:105EC00001D50B68FAE740F63541234B1A68234B9E
:105ED000C2F313021B6801FB0233A16C227D8B42CB
:105EE00038BF03F14343A2F1020238BF03F5A00318
:105EF000012A03D81B4A5B1A934202D8EB69012B93
:105F00004FD1FFF783FD00984FF480710023EB61C0
:105F10000160E97C024A012928D1D374937471E0AD
:105F2000440A00105004001000E100E03CC00920C9
:105F3000601700104C120010501200105212001086
:105F40002D17001010410050044100502400034060
:105F500038C0092080E100E06C12001008400040C9
:105F60000800034080F0FA0234A40000B9F10A0FDF
:105F700048D001236420237503F087FA03F07EFAEA
:105F80004207FBD4B4F850309BB223B1244BB3F892
:105F900050309BB201E040F66213A4F84C3001236C
:105FA0002B63E1882C2003F0C2F9A1882D2003F097
:105FB000BEF9EB7A0BB1FFF749FAEB69194E002BEA
:105FC00005DDFFF707FAF369013BF36114E001F027
:105FD0005BFA01F095FA336B3BB1206803F0AEF841
:105FE000FEF724FA0023336306E003F047FA430781
:105FF000FBD5622003F049FA0023CBF80030CAF841
:1060000000305AE6084B4FF080721A60FEF7B2FA81
:1060100001F096FA01F052F913B0BDE8F08F00BF1D
:1060200050040010440A001080E100E070B58EB00A
:1060300015460C4606463222002101A8FEF7DAF882
:10604000312D2A46214628BF31220DF105008DF859
:10605000046004F0D1F801A90520FEF73FFA0EB064
:1060600070BD000038B540F664123248324CB0F8CA
:106070004C309BB293420DD140F635412F4B1A68FC
:106080002F4BC2F313021B6801FB0233636340F61C
:10609000661349E040F66611B0F84C309BB28B4273
:1060A00044D140F63541254BC08B1A68244BC2F3CE
:1060B00013021B6801FB0233626B1E4993423CBF13
:1060C00003F1434303F5A0039B1A41F66A0202FB66
:1060D000003343F2D4024243B3FBF2F3242B21D822
:1060E000184A4008134493F86C3825258B75013302
:1060F000888393FBF5F005FB103300224B750320DA
:10610000114B0A848A61E2720A6108750122163114
:10611000A361A072FFF78AFFE37C53B1064B2822EC
:10612000DA6138BD40F66413A38100E0A281012347
:10613000E37238BD50040010440A00106C120010C5
:106140000840004048A300003547000038B540F63D
:106150003544244B244A1B681268C3F3130304FB21
:10616000032446F2A712214DAB6B9C423EBF04F1C3
:106170004344A4F56514A4F5A254E31A934230D91C
:106180001B4A1B48D2F800118B4238BFC2F80031BD
:10619000D2F80031174A03F5613303F25233B3FBEF
:1061A000F2F315499BB2CA8B9A4215D1D0F804314B
:1061B0000133052BC0F8043112D1104B0222AB6120
:1061C00040F66413AB810423AB721E3101231046E9
:1061D000EB72FFF72BFF03E0CB830023C0F8043101
:1061E000AC6338BD6C12001008400040440A001037
:1061F000B0120010A40E07005004001065600000EB
:1062000070B5184D2B695BBB0379012B28D14479FC
:1062100034BBC379027A86791B0243EA0243011D2B
:10622000022243EA060000F0FFFD23462246A86052
:1062300020FA02F1C2F1170401F001010132A1407C
:10624000182A43EA0103F3D1EB60074A074B012008
:1062500028619A6106490322BDE87040FFF7E6BE57
:1062600070BD00BF500400104D610000440A0010D2
:106270005804001030B51349002351F8332001EBC6
:10628000C30482420F4A03D163680133636030BDA7
:106290000133202BF1D14FF0FF310C46002302EBEC
:1062A000C3056D68A54201DB002C01DA19462C46B6
:1062B0000133202BF3D142F83100012302EBC1025C
:1062C000536030BDB01200102DE9F04F95B0402260
:1062D0008046002104A8FDF78DFF654D0123DFF8FE
:1062E00094918DF810308DF820308DF823308DF892
:1062F00030308DF832308DF840308DF842308DF8E6
:1063000043300024B5F84C00594F80B200F032FD04
:10631000584E04A919F80030002208194FF07F0EDA
:10632000F11810F802C091F8281001338CEA01012D
:106330008154B3FBFEF10132C1EBC111102AA3EB72
:106340000103EDD11034402CDCD1DFF84091202442
:106350004D46494BEE460FCB8DE80F0000239C467F
:1063600008EB040004AA02EB0311002210F802B0AB
:1063700011F802A0D34502D04EF823C002E001324A
:10638000102AF3D10133042BECD100235EF8232033
:106390001AB90133042BF9D144E0B7F84C004FF09F
:1063A0007F0A80B200F0E6FC325C00204FF0000C67
:1063B000E64604EBC00B0EEB0B034344032813F833
:1063C000203C09DDB11891F8281001324B40B2FB96
:1063D000FAF1C1EBC111521A03FA0EF30EF1010EDC
:1063E00043EA0C0CBEF1080F5FFA8CFCE3D1D9F83C
:1063F000003003F800C001300A28D7D12B68DB78C1
:106400002A689278296812044878296842EA036366
:1064100009780B4343EA0020FFF72CFF296801208D
:10642000FEF75CF80134B4F53C7F92D1134A0023A7
:1064300002EBC3014968032912DD104A002452F817
:106440003300FDF793FF0E4B0E4A2046DA620E4AE8
:1064500007499A6104223C61FFF7E8FD204603E00A
:106460000133202BE4D1012015B0BDE8F08F00BF2F
:106470005004001048A30000DCAB0000B012001074
:10648000440A00102546000001620000C8130010F5
:106490002DE9F041194D1A4E2F46AB7C0A2B2BD11A
:1064A000FFF7DEFAB6F84C30DFF8548013F0010F36
:1064B0001CBF40F68813A6F84C30D8F844304BB9CE
:1064C000B6F84C0080B200F0B1FE0E4B0A20FB6221
:1064D000FFF7D6FABC7CE4B20A2C0DD1042208499D
:1064E0000020FFF7A3FD084B2046AB610023C8F84E
:1064F0001030FFF7C1FBD0E7BDE8F081440A00107F
:1065000050040010C96200000162000070B588B03C
:10651000202200216846FDF76DFE284B9A6D1E462D
:10652000152A03D9264B00229A7444E0D5B2AB1D3C
:1065300008A9244C01F81F3D0523185D13F1FF3312
:1065400001F8010FF9D2204902A803F055FE05F128
:106550000802D4B222466946F06800F04AFC08AB53
:106560001A191A4C030A264602F8200C000C02F8ED
:106570001F3C02F81E0C00F0F3FE154B4FF080722A
:106580001A600F4B9B7C0C2B11D105F10B016A4655
:10659000C9B21048FEF774FE236823F07F4303F569
:1065A000A073326822F07F429342FAD8E9E70A4B9F
:1065B0004FF080721A6008B070BD00BF5004001028
:1065C000440A0010640A0010AC0400106C120010A1
:1065D00000E100E0D6BE898E80E100E0F0B58BB02E
:1065E0002D2002F09BFE030A8DF805002C208DF86B
:1065F000043002F093FE030A8DF806308DF8070090
:1066000000F026FD00F0ACFE02F038FF4106FBD59D
:10661000612002F03AFF02F031FF4207FBD5144B34
:1066200010221C461A60134A80211160124F4FF449
:106630008071124E116002250E2002F06FFE00F0F4
:106640001F000F28F8D1622002F01FFF3D6002F00A
:1066500015FFC306FBD502A92560202002F0C4FE69
:1066600001A90020FDF73AFF306800F053FDE3E791
:1066700038C0092058C009203CC009206C12001005
:1066800008B5202002F04AFE08B1FFF7A7FF034B30
:1066900003221A70BDE80840FEF7C0BF440A00108C
:1066A0002DE9F041354D10232D206E7C6B7402F0E6
:1066B00035FE80462C2002F031FE314C0746218801
:1066C0002D2002F034FE61882C2002F030FE57218C
:1066D000032002F02CFE41F24B31142002F027FE81
:1066E00040F66171202002F022FEA188022002F013
:1066F0001EFEE1790520F6B202F019FE02F0BEFEA0
:106700004106FBD5612002F0C0FE02F0B7FE420751
:10671000FBD51C4B4FF480721A6080221A620E2047
:1067200002F0FCFD00F01F000F28F8D1A0791649F7
:1067300002F010FE632002F0A8FE0E2002F0EEFD33
:1067400000F01F000F28F8D1104B4FF480721A6030
:10675000642002F09AFE02F091FE4307FBD40C4B3A
:1067600080221A6041462D2002F0E1FD39462C209E
:1067700002F0DDFDAE74BDE8F08100BF440A0010F8
:106780007012001038C00920781200103CC0092097
:106790005CC009202DE9F04F8FB03F4B10221A60EA
:1067A00000F056FC00F0DCFD3C4B80221A6042F603
:1067B0002231122002F0BBFD41F24B31142002F0D5
:1067C000B6FD40F20111202002F0B1FD2921032085
:1067D00002F0ADFD02F052FE4106FBD502F04EFE86
:1067E00000F0040000F0FF040028F7D1DFF8B480C7
:1067F000DFF8B490C24699F81230042B46D1B8F8AD
:106800005250DFF8A8B0ADB2BAF854309BB2AB42E8
:10681000F1DB691E022089B202F089FD612002F0DD
:1068200034FE02F02BFE4207FBD5622002F02DFE63
:106830004FF4FA730093009E013E0096002EFAD1A9
:1068400004EB44070EAB1F4406202B0A07F8343C28
:1068500007F8335C02F062FD0134E4B2000A102C48
:1068600007F8320C08D101A90420FDF737FEDBF848
:10687000000000F04FFC3446642002F006FE02F0F7
:10688000FDFD4307FBD40135ADB2BDE7044B10223B
:106890001A600FB0BDE8F08F38C0092058C0092039
:1068A0003CC0092050040010440A00106C12001073
:1068B000F0B585B0434B802218689B880290ADF8F4
:1068C0000C30414B42F622311A60122002F02FFDAB
:1068D00041F24B31142002F02AFD40F20111202038
:1068E00002F025FD2921032002F021FDF1210620DF
:1068F00002F01DFD02F0C2FD4106FBD502F0BEFD17
:1069000000F0040000F0FF040028F7D12F4F304DB5
:10691000304EBB7C072B53D104AB03EB440333F85D
:10692000081C0220013989B202F001FD612002F049
:10693000ACFD02F0A3FD4207FBD5622002F0A5FDED
:106940004FF4FA730193019B013B0193002BFAD1A1
:10695000062002F0E3FC204B40F3072093F856306A
:106960005BB298420CDD012C07D003D3022C13D16B
:10697000346011E04FF4807300E0102333600BE0CB
:10698000012C07D003D3022C06D12C6004E04FF475
:10699000807300E010232B600134032394FBF3F396
:1069A00003EB4303E41A0D4BE4B2186800F0B2FBAA
:1069B000642002F06AFD02F061FD4307FBD4A8E702
:1069C00005B0F0BDECAB000058C00920440A00102F
:1069D0003CC0092038C00920500400106C1200107F
:1069E00008B502F011FE00F0C1FC384800F00AFBC7
:1069F000374DFDF7BFFD00F0D7FC002001F0D6FFBA
:106A00003449354802F02EF82C46344E306800F0F8
:106A100081FBAA7C6B7C9A42F8D0AB7C102BF5D81A
:106A2000DFE803F0511116283D2F37401B1D2209C6
:106A300025430F494E00012002F09AFB02F0EEFDC3
:106A4000E4E70E2300E001236374FEF7E7FDDDE7D2
:106A500002236374FEF798FED8E70823F4E70923BE
:106A6000637401F0C5F8D1E7FFF712FDCEE7FFF739
:106A70004DFDCBE703231A491548637401F0ECFC84
:106A8000C4E705231648637401F0DAFA0023A374FF
:106A9000BCE706231248637401F020FCB6E7FFF759
:106AA00079FEB3E7FFF704FFB0E70D236374207DA1
:106AB00001F03EFFAAE70F236374FFF7E1FDA5E7AE
:106AC000FFF7EEFDA2E7FDF755FD9FE7A5480000A3
:106AD000440A0010EFA30000FDAB00006C12001090
:106AE0009C0400102DE9F043464B474A002000214A
:106AF0001B68464DC2E900014F240022500090FB64
:106B0000F4F104FB1101515501324F2A3F48F5D1F0
:106B10003F4AC3F3C4511170C3F30715C3F3C7044D
:106B20003C4AC3F3C34105F0100704F00806117096
:106B30003E44C3F3870103F0010EC3F347027644DA
:106B400001F00407374402F002063E44324F05F0DC
:106B500008053E70314EC3F388273780DE0906F002
:106B600040079E0906F020065B093E4403F010032F
:106B700033442B4404F00404234401F0020119447B
:106B800002F00102264B0A441A70264B1B78002B98
:106B900036D000221346DFF890E012F80E40224E65
:106BA0000025002154EA050CCFB201F1010108D003
:106BB00014F1FF3845F1FF3904EA080405EA090534
:106BC000F0E701323B440A2ADBB2E6D1174A4F25EF
:106BD00013700023194693FBF5F205FB1232D7B26E
:106BE000FC08345D02F0070244FA02F2D20748BF03
:106BF0004A1C03F1020344BF4754D1B29E2BEAD191
:106C0000BDE8F08368170010C0130010CD17001006
:106C1000CB17001078170010CC1700107A1700104F
:106C20001C180010EF160010531200105112001023
:106C3000F0B587B0C0F3D8054F2325F00F05B5FB9D
:106C4000F3F403FB1454404BC0F340021B78510192
:106C500083EA104303F01F038A1A5A403B4B8EB25B
:106C60001B783B4983EA5053097803EB90034B4070
:106C700003F01F01374B02AF1B8883EAD010C0F32B
:106C80000800002340FA03FE0EF0010E03F807E0AF
:106C90000133092BF6D1002307EB030E42FA03F070
:106CA000013300F00100052B8EF80900F4D1002318
:106CB00041FA03F202F001020DF803200133052B23
:106CC000F6D125480D217B5C7BB10A5C06AB1A44EA
:106CD000224B0DF1180CCB5C12F818EC634413F83E
:106CE00018CC02F818CC03F818EC11F1FF31EAD2F5
:106CF000002213461DF80310994001330A44052B66
:106D0000D2B2F7D1164B4F201978A31911440B4476
:106D1000B3FBF0F200FB1233124AD05C124B1B782B
:106D20006BB1124B1B78B5FBF3F203FB12523244EA
:106D30000A44B2FBF3F103FB11220D4B985C00F601
:106D4000621007B0F0BD00BFCC170010CB170010C9
:106D5000781700107A1700101AAC000028AC000059
:106D60001C180010CD170010EF1600105112001063
:106D70007C1700100223A0F6621090FBF3F083B2A0
:106D800053B10B2B01D8013804E00C2B06D0262B75
:106D900006D80238C0B270472520704726207047B9
:106DA000272070470A2803D8400000F66410704777
:106DB000242803D8400000F666107047252806D026
:106DC000262840F67A1018BF4FF41B60704740F633
:106DD0006210704710B5437D02461846FFF7E2FF88
:106DE000917D25240B4493FBF4F104FB113353757F
:106DF00010BD70B50B4620F07F405C1A944212DA49
:106E000013F8015B082485EA000616F0010F4FEA2B
:106E100050001CBF80F45A0080F4C040013C4FEA8F
:106E20005505F0D1E9E770BD70B5013A002A14DBD1
:106E30008E5C0724C50D400020F07F4346FA04F025
:106E400000F00100684018431DB180F4340080F464
:106E5000404014F1FF34EDD2E7E70023194620FA51
:106E600003F2C3F1170402F001020133A240182B10
:106E700041EA0201F3D1084670BD000030B50C466E
:106E8000074D20F07F40631A9A4208DD14F8013B59
:106E90004340DBB255F8233083EA1020F3E730BDDE
:106EA000C4040010F8B5054690B2FFF763FF144E16
:106EB0002944345C28464FF07F0E81421ED00023C7
:106EC0001D460778C5F1070206EB040C9CF828C0A4
:106ED00047FA02F2013402F001028CEA0202B4FB2A
:106EE000FEFCAA400135CCEBCC1C1343082DCCEBA7
:106EF0000404DBB2E6D100F8013BDEE7F8BD00BFD9
:106F000036AC0000F8B50C460546C02200212046EC
:106F1000FDF770F90127681E0023043510F8012FD2
:106F200003F1080612F001011BBF44F82370D4F8E6
:106F3000BC1044F8231004EB010E1CBF8EF89430F3
:106F4000013103F1010318BFC4F8BC10252B4FEA2F
:106F5000520202D09E42E5D100E01E46A84201D076
:106F60003346DBE7F8BD51F8203043B9D1F8BC20F7
:106F7000B0FBF2F302FB1300014491F89400704758
:106F800013B543881268ADF800308388ADF802303D
:106F9000C3884078ADF80430044B1C680B46694642
:106FA000A047431E5842584102B010BD243900107A
:106FB00070B586B06946044601A802F065FB9DF8ED
:106FC0000410E1B90E4620460DF10505403415F8D0
:106FD000013B80F87D101A09092A03F00F038CBFCA
:106FE00057323032092B8CBF5733303380F87C2036
:106FF00080F87E3080F87F600430A042E7D106B090
:1070000070BD000038B505460C4C02F015FC20465A
:10701000FFF7CEFF204602F04DFE094B094A0A4910
:1070200002201D6002F0FEFB0849FF2002F02CFE4A
:10703000012002F09AFC002038BD00BFC4080010F7
:107040002439001020380010816F0000DDAC0000F2
:10705000044B00214FF40052034819605960FDF7BA
:10706000C9B800BF800A0010201800100A4B196828
:10707000586801F07F0100F07F00421C02F07F029F
:1070800091421FBF5A6801325A60044B14BF03EB90
:1070900080100020704700BF800A001020180010E8
:1070A000084B18685A6800F07F0002F07F02904297
:1070B0001FBF1A6801321A60034B14BF03EB801024
:1070C00000207047800A00102018001037B50546D0
:1070D000FFF7E6FF0D4B044638B1014640228220FF
:1070E0009D6002F073FC01200EE09A680849AA1A1C
:1070F0008A4208D9032202A901F8012D8220012227
:107100009D6002F063FC204603B030BD800A001091
:10711000801A060038B50446822002F031FC82064F
:10712000054602D42046FFF7D1FF6B0602D4204665
:10713000FFF7CCFFBDE8384002F0B0BC08B59E2296
:1071400000210748FDF756F8064A00231370064A47
:107150001360064B80221A70054B7F221A7008BDFF
:107160008C0A0010EE160010283900105012001082
:10717000521200100B4A92F900308342B8BF034606
:107180001370094A92F900308342A8BF0346137076
:10719000064A136803EB00231360054A1378013392
:1071A000137070475012001052120010283900104E
:1071B000EE16001010B540F66213B0F51B6F38BF25
:1071C00018460D4BA0F662101B7823B10B4A1268CB
:1071D000803292FBF3F30A4903EB430331F91020A9
:1071E000FD2404FB02334FF48072803393FBF2F3EF
:1071F00021F8103010BD00BFEE1600102839001025
:107200008C0A001040F66213B0F51B6F38BF1846A9
:10721000054BA0F6621033F910004FF480738030F4
:1072200090FBF3F040B270478C0A001010B5144C7C
:1072300094F90030002B05DDFFF7E4FF2378363B9F
:10724000184443B26FF07704A342B8BF23466FF0EF
:1072500013029342A8BF13461C4603F1380141F0C4
:107260000301C9B2062002F062F8064B14F1770F51
:107270001C70054BACBF002401241C7010BD00BF66
:10728000F016001064170010B8130010074B00220E
:107290001A70074B4FF400121A60064B04221A6052
:1072A000054A136843F00403136070476517001024
:1072B00000E100E0AC800240B4800240074A13685D
:1072C00023F004031360064B04221A60054B4FF4AD
:1072D00000121A60044B00221A707047B4800240FA
:1072E000AC80024080E100E06517001008B5FFF7B0
:1072F000E5FF044B00221A70034A88231370034AE7
:10730000137008BDB8130010F016001064170010B9
:107310000A4B02221A600A4A00231360094A1360CA
:10732000094A1360094A1380094A1380094A1380E5
:10733000094A1360094A1360704700BF04400040C7
:107340006C1200104812001060120010BA130010E6
:10735000EC160010681200106412001024170010C0
:10736000014B01221A6070470440004008B5FFF746
:10737000CFFF064B04221A6040F63442DA60032243
:107380009A60034B02221A6008BD00BF0C40004007
:1073900000E100E008B5FFF7BBFF024B02221A60D4
:1073A00008BD00BF80E100E0114A136843F00053BC
:1073B0001360104B4FF080621A600F4A0023136075
:1073C000136213641366C2F88030C2F8A030C2F8AA
:1073D000C030C2F8E030FF23A2F5847213609360DE
:1073E000064B01221A601A68D207FCD5704700BF0D
:1073F000C4C00F4000E100E0104100503040005098
:1074000030B5144A0123136013489360134C144B96
:10741000144A1549146093605160D0609A60134D0E
:10742000134A5D601C60D8601460516093604DF237
:107430000602104B186010485A60002202600F4884
:1074400002600F4A11600F4A15605A6842F001024B
:107450005A6030BD08400050329000880800034058
:10746000DC390010EC3900102D170010F116001057
:10747000004100500C4100504C12001060170010E9
:10748000AC120010C813001030B5154A0123136068
:10749000144D9360144C154B1549002204EB8200E7
:1074A0000A2A43F80C0C18BF184602F1010208BF63
:1074B00000200B2A43F8105C03E9030003F11003DA
:1074C000ECD10C4B0C4A19681160596851609968ED
:1074D0009160DA68094B1A604DF206025A6030BDBD
:1074E00008400050080003402D1700103C390010E0
:1074F000041000882C390010004100500C4100504D
:107500000B4B0C494FF080521A600B6843F001039B
:107510000B6051F8203C43F0020341F8203C06493F
:107520000B6843F001030B60044B1A60704700BF07
:1075300098C0092024000340104100509CC009203D
:107540000B4B4FF080521A600A4A136823F0010374
:10755000136052F8203C23F0020342F8203C064B13
:1075600000221A60054A012313609360704700BF30
:1075700098C00920240003401041005008400050EA
:1075800030B50C4B0C490D4A0D4803F110044D1C4D
:10759000DA60186059609C601861DA615D619B6116
:1075A000084B186059609C60DA604DF206021A615F
:1075B00030BD00BF2C0B00103C3A001001000080D1
:1075C0000800034000410050034B044A1860136850
:1075D00043F001031360704718800040148000409E
:1075E000054B064A1B681E33136052F80C3C43F0EF
:1075F000400342F80C3C7047088000402080004067
:1076000030B5002423460144934205D0CD5CD80018
:1076100085402C430133F7E7204630BD10B5084ABA
:10762000431E053013F8014FD179214012F8014F64
:107630008C4203D18342F5D1012010BD002010BD42
:107640008704001010B5054C4FF4E472002104F1DA
:107650002000FCF7CFFD024B236210BD2C0B001065
:10766000D6BE898E70B5144800214FF4927404FB85
:1076700001F3C518D5F81821BAB1104C00261C44E6
:10768000C4F80063C4F8F062C4F8EC624FF482728C
:1076900031462846FCF7AEFD7F2384F8043380236F
:1076A00084F80533C4F8086303E001310429DED10E
:1076B0001546284670BD00BF140D00102C0B00109D
:1076C00010B51B4B186A01F039FD044647F6FE71F0
:1076D0000D2001F02CFE42F62231122001F027FE8F
:1076E00041F24B21142001F022FE44F2E14120201E
:1076F00001F01DFEA1B22C2001F019FE210C2D205D
:1077000001F015FE0B4B02201988013989B201F0F6
:107710000EFE4021032001F00AFE01F0AFFE4306F9
:10772000FBD5612001F0B1FEBDE81040FFF758BF66
:107730002C0B00102C3A001070B5642001F0A5FE4F
:10774000284A13681C3A23F00103D361264B1C68B6
:1077500014F0040401D01168F9E7244D4FF482724B
:10776000D5F878662146C6F80841C6F80441304687
:10777000FCF740FD7F2386F81C31802386F81D31FD
:10778000C6F82041FFF7FCFEFFF7BAFE2A6A184B45
:107790009A420ED140F67A12164B1B889BB2934246
:1077A00005D0B3F51B6F0CBF2720252012E0262043
:1077B00010E095F82C0095F82D302522184490FB08
:1077C000F2F302FB130005F14001C0B285F82C0072
:1077D000FFF7C9FBFFF7E6FABDE87040064B1880DB
:1077E000FFF76EBF240003400C0003402C0B001079
:1077F000D6BE898EA00400102C3A001038B52B4A52
:107800002B4B5468022C01D110680EE0012C3AD1A8
:10781000D3F80411002936D0D3F80051196B106841
:1078200029441E31091A3B292DD80121C3F8000132
:10783000C3F804111F4814B10168C3F808110021EE
:1078400051609160B3F80C21194C0132A3F80C215E
:107850000268D3F808015B6B121A9A4203D8164BE0
:107860001A6832B11960FFF7EDFEBDE83840FFF746
:1078700063BFD4F80001236B1844A0F6B830BDE80C
:107880003840FFF7A1BED3F80401094930B1D1F85F
:107890000051086B2844C1F80001CBE71068C1F81B
:1078A000000104480068C1F80801C3E7303A00103D
:1078B0002C0B0010088000406C0A0010F8B56A4DCF
:1078C0006A4B2F681B68DE0740F1CC80684B1B6851
:1078D000DC0740F1C080674E01233360062001F0D1
:1078E0001DFD654C40F30720D4F8783693F91C2130
:1078F000D3F82011824293F91D21C8BF83F81C01DF
:107900008242D3F808210144B8BF83F81D015B48C7
:10791000C3F8201102F00101415C99540132012A9F
:10792000C3F8082118D15649A7F5C872C3F80C212D
:107930000A88088892B2C3F81021226A80B2C3F87C
:107940001421FFF717FA242800F285804D4A1368A6
:1079500023F0010313607EE0022A2ED1B3F8100158
:107960005D78FFF707FA484A7F27115C9646083191
:10797000B1FBF7F3C3EBC313C91A00231E46C6F1CC
:1079800007020EEB010090F8280045FA02F20131DF
:1079900002F001024240B1FBF7F0B2400136C0EB09
:1079A000C0101343082EA1EB0001DBB2E7D1D4F8DD
:1079B00078260533C2F804314DE04CD9D3F80431B0
:1079C0009A4248D3612001F060FD304B00221A60DA
:1079D0002F4A0123336013682E4923F001031360FB
:1079E000183A1368580701D50B68FAE7D4F87816E7
:1079F000294800F007FB224B1F4E188880B2FFF782
:107A0000B9F924281DD8254A53680133012B536046
:107A10000AD1D6F87836D3F80C311360286800F60E
:107A2000B830FFF7D1FD0CE0022B0AD1642001F041
:107A30002CFDFFF717FEC6F87806BDE8F840FFF703
:107A4000DDBEFFF70FFEC4F87806FFF799FDFFF7DC
:107A500057FDFFF7C5FD124B1B68DB0742BF114BFB
:107A600001221A60F8BD00BF0880004000400050AD
:107A700004400050084000502C0B00103C3A00100D
:107A80002C3A00101480004004AD0000104100505A
:107A90002400034008000340FC390010303A001075
:107AA0000C4000501040005038B54A4B1A68D007BF
:107AB0005FD5494A0121D2F810011960474D13469C
:107AC00090B3B2F80C41B2F81C0184422CD1A868E2
:107AD00060B9D06B50B1D2F800310344106BA3F6FB
:107AE000B8331844FFF770FDA96038BD0122AA60C1
:107AF0000022D3F81401C3F80421C3F81021D3F8ED
:107B00000021D3F818110244186302F5A542D86B7E
:107B10005963503293F8383010441844FFF754FD3D
:107B2000BDE83840FFF708BED3F820312A4C7BB1BE
:107B3000B4F80C21B4F824319A4209D1C02204F5DA
:107B4000947104F1400002F057FB0023C4F8203187
:107B5000AB6863B9214B01229A60214B186800F58C
:107B6000BD400830FFF730FDFFF7E6FD01E0FFF70D
:107B700045FE184B1A6891070DD51A4902221A6062
:107B80000B6823F008030B60174B4FF480711960EA
:107B9000102119601A600F4B1A68520718D5042279
:107BA0001A6001F06BFC43070ED5622001F06DFCFA
:107BB0000E4B80221A604FF480721A60094A1368D3
:107BC00023F04003136038BDBDE83840FFF708BD1F
:107BD00038BD00BF008000402C0B0010303A001070
:107BE00008800040148000403CC0092058C0092093
:107BF0002DE9F04F87B0C14F4FF08073C04C3B6010
:107C0000FFF7C8FB0125BF4EBF48C4F80053C4F8B6
:107C10002454C4F84855C4F86C5600F0EFF9022318
:107C2000BA4A336004231360B94A35601360FFF722
:107C300019FDDFF81483B74BC1461B88B64A9BB2C7
:107C40001380B64BC4F878062362FFF701FA01F0FF
:107C5000D9FAFFF795FCFFF753FCFFF731FDB04B66
:107C600000221A60009701960293AE4B1B78092BF5
:107C700040F0928006A9002341F8043DA24800F09C
:107C8000CFF9002800F084800598A74ED0F8102185
:107C9000D0F80411FFF706F9736C43B3059DB5F8EE
:107CA0001001FFF767F8242821D92B7803F00F0281
:107CB000062A69D80123934013F0550F03D113F01E
:107CC0002A0F06D160E0D5F80431072B5CD9A81C37
:107CD00009E0D5F804310D2B56D9A81CFFF79EFCFE
:107CE00028B905F10800FFF799FC00284CD08F4A0D
:107CF000102313608E4B8F4A1B68059F03F5C33317
:107D0000A0331360D8F8003043F00803C8F80030FF
:107D1000FFF7ACF9054650B34FF0000A01232B7072
:107D200085F803A0D7F80C3107F58A716B60D7F896
:107D3000103105F10E00623BAB70D7F80421D7F883
:107D40002031B3FBF2F3AB7297F91C3104226B7252
:107D500097F91D3185F80BA02B7202F04DFA2E22F7
:107D6000394605F1120002F047FA85F801A0059D99
:107D7000B5F81001FEF7FEFF2428297840F2AF8005
:107D800001F00F01052919D0059B0122C3F8182124
:107D90000020FFF7BFF968E7019B009902221A60F3
:107DA00004230B60644B102119604FF4807119603B
:107DB0001A60FFF7DBFA07B0BDE8F08F736B002B9A
:107DC000E2D0D5F80431272BDED1029B1B6813B11A
:107DD000534B00221A6004220E212846FFF710FCA4
:107DE0000322122120622846FFF70AFC606201F09C
:107DF000A5F90122A06215212846FFF701FC022205
:107E000084F83800162183462846FFF7F9FB022242
:107E1000E063182182462846FFF7F2FB022206465D
:107E200020631C212846FFF7EBFB012260630390CF
:107E300023212846FFF7E4FB40F67A42B11F00F009
:107E40001F0091422E4F84F82D0045D843F2D401F3
:107E50004E4301FB0AF296423E63FA633CD343F27F
:107E6000D3025FFA8BFB01FB0BFB934534DD334AF6
:107E7000A6F54356143E964228BF16465E452BD3C0
:107E8000039B53432E4A7B63A3F57423A3F510731E
:107E9000934221D807F1400105F11E00FFF732F8A7
:107EA000D7F8FC30C3B1D9F80030002223F04003EA
:107EB000C9F80030234BD5F80C015A609A60FB6B6F
:107EC000D5F80421034403F51A532C33502000FB4A
:107ED0000230FFF779FB57E7FFF7B4FB54E701F0F7
:107EE000030103297FF450AF6F78002F3FF44CAFAC
:107EF000AB785BB3012B6CD046E700BF80E100E0BC
:107F00002C0B001004800040FC3900100C80004055
:107F100000E100E0A00400102C3A0010D6BE898ECB
:107F20006C0A0010560A00105004001038C00920D6
:107F3000088000401C8000403CC00920A086010051
:107F4000C08D0313303A0010148000400C2F7FF4D2
:107F50001BAF01222846FFF753FB0222C6B20421C1
:107F6000284684F83860FFF74BFB02228246E06324
:107F700006212846FFF744FB0222C4F814010390AF
:107F80000A212846FFF73CFB02228346C4F8180169
:107F900039462846FFF734FB06EB460206EB820221
:107FA00006EB820643F2D402039B02FB0AF1534321
:107FB000C4F814310F4BB60003FB0BF3C4F81831AF
:107FC0000123A4F81C0184F83860E163C4F810317F
:107FD000DAE6082F7FF4D8AE394602222846C4F8E4
:107FE0002031FFF70DFB0449A4F82401E81CFEF73B
:107FF00089FFC9E6A0860100540C001000238362AB
:10800000C3627047C36A826A01330A2B28BF002308
:1080100093421DBF40F82310C36201200020704727
:10802000836AC26A934209D001330A2B28BF002316
:1080300050F823200A6083620120704700207047B7
:108040002DE9F04798B000AF152387F830300023B2
:1080500087F831303A23BB609A4B82461B6807F1A0
:108060001C0107F10800C7F804D098473B7F002B9C
:1080700040F023813B6A42F622311A0E87F8322003
:108080001A0C87F8332087F835301A0A7B6A87F88C
:1080900034201A0E87F836201A0C87F8372087F814
:1080A00039301A0ABB6A87F838201A0E87F83A2046
:1080B0001A0C87F83B2087F83D301A0AFB6A87F8CC
:1080C0003C201A0E87F83E201A0C87F83F2087F8CC
:1080D00041301A0A1220FF2387F8402087F84430E5
:1080E00087F8453001F023F941F24B31142001F0BB
:1080F0001EF940F6F151202001F019F9BAF80010EC
:10810000022089B201F013F94FF6AE112D2001F0D3
:108110000EF941F284512C2001F009F908210520C3
:1081200001F005F92921032001F001F901F0A6F978
:108130004306FBD5612001F0A8F901F09FF946073D
:10814000FBD5614B4FF4807298461A605F4A8021DC
:108150001160002407F13006E5B245F00801052062
:1081600001F0E5F887F84250002587F843500E20CB
:1081700001F0D4F800F01F000F28F8D14FF00009EB
:1081800016F80910702009F1010901F0DEF8B9F1C3
:10819000160FF5D16320013501F077F9102DE4D1E8
:1081A0000134082CD8D10E2001F0B8F800F01F00DF
:1081B0000F28F8D1464C4FF480732360642001F0FF
:1081C00064F901F05BF94507FBD4BAF8001002200E
:1081D000013989B201F0ABF801F050F94006FBD546
:1081E000612001F052F901F049F94107FBD5102354
:1081F000C8F8003007F148050E2001F08FF800F0B4
:108200001F000F28F8D1622001F03FF901F036F984
:10821000C206FBD50223C8F800304FF000097020D9
:1082200001F08AF805F8090009F10109B9F1160F02
:10823000F5D101F023F9030702D402232360DBE721
:108240000E2001F06BF800F01F000F28F8D1642019
:1082500001F01BF901F012F900F0040303F0FF0034
:10826000002BF7D11B4B80221A601023236097F854
:108270005A10194B0122597097F85B101A709970B7
:1082800097F85C1087F83120D97097F85D10197154
:10829000014615F801C016F801E0F44518BF8A1C24
:1082A00001F101011CBFD2B201201229F1D100B1AC
:1082B0001A7002232360D7F804D06037BD46BDE8AA
:1082C000F08700BF00AE000038C0092058C0092068
:1082D0003CC009205CC00920281700102DE9F04F90
:1082E00087B0DFF870A18146D346022542F62231DD
:1082F000122001F01CF841F24B31142001F017F864
:10830000B9F800100220013989B201F010F84FF6D7
:10831000AE112D2001F00BF841F284512C2001F018
:1083200006F80821052001F002F82921032000F0B9
:10833000FEFF01F0A3F84106FBD5612001F0A5F88E
:1083400001F09CF84207FBD5404C10232746CAF8A1
:1083500000304FF4807323603D4B802225601A600B
:108360000E2000F0DBFF00F01F000F28F8D13D6069
:10837000622001F08AF801F081F8C306FBD5CBF842
:1083800000500026702000F0D7FF0DF806000136DF
:10839000162EF7D101F072F80607E1D510232560FB
:1083A0006420236001F071F801F068F84007FBD405
:1083B00001F064F84106FBD5B9F80010022089B23B
:1083C00000F0B5FF01F05AF84206FBD5612001F03C
:1083D0005CF84FF48073CBF8003015238DF8003033
:1083E00001238DF801300026F7B247F0080105207F
:1083F00000F09DFF8DF8147000278DF815700E2089
:1084000000F08CFF00F01F000F28F8D14FF000089B
:108410001DF80810702008F1010800F096FFB8F16F
:10842000160FF5D16320013701F02FF8102FE4D19A
:108430000136082ED8D14FF480732360642001F0F8
:1084400024F801F01BF84307FBD44FE73CC0092098
:1084500058C0092038C0092038B503780D4623B12B
:108460000378012B2FD1402400E0292442F6223149
:10847000122000F05CFF43F24B31142000F057FF54
:1084800040F6F151202000F052FF2988022089B2E5
:1084900000F04DFF2146032000F049FF00F0EEFF01
:1084A0004206FBD5612000F0F0FF00F0E7FF430734
:1084B000FBD5054B4FF480721A60632000F0E5FF96
:1084C000024B80221A6038BD38C0092058C00920EC
:1084D000044B4FF080521A60034A136823F00203E2
:1084E0001360704798C009200400034010B5064C83
:1084F0000649431E233022685207FCD50A6803F858
:10850000012F8342F7D110BD0C0003400800034047
:1085100010B540F63544074B1A68074BC2F31302F7
:108520001B6804FB0233836042F210735943C1603D
:1085300010BD00BF6C1200100840004040F63541ED
:108540000A4B1A680A4BC2F313021B6801FB023381
:108550008268C06893423CBF03F1434303F5A00324
:108560009B1A834234BF0020012070476C12001018
:10857000084000407047000040F668120023436046
:10858000024B1A8001230370704700BF9C04001047
:10859000012303707047000030B58BB028220446D9
:1085A00000216846FBF726FE40F635411A4B20466F
:1085B0001A681A4BC2F313021B6801FB02330993BA
:1085C000FFF7BCFF28B104212046FFF7A1FF0323DA
:1085D000237000F053FFC30612D5114B10251D6008
:1085E0006846FFF783FF099A69460620FCF7C0FC3E
:1085F0000C4B06211D602046FFF78AFF03232370E2
:108600002378022B06D0642000F03FFFFFF760FFC5
:10861000012323610BB030BD6C12001008400040F4
:1086200038C009203CC0092010B547F6FF71044648
:108630000D2000F07CFE42F62231122000F077FE81
:1086400041F24B31142000F072FE4FF4986120206B
:1086500000F06DFE1D4B02201988013989B200F02F
:1086600066FE2621032000F062FE0321212000F097
:108670005EFE46F20F312D2000F059FE49F6FE71E4
:108680002C2000F054FE00F0F9FE4206FBD5104B02
:108690004FF080520F491A600B68612043F00203CB
:1086A0000B600D4B1A6000F0F0FE00F0E7FE430790
:1086B000FBD50E2000F032FE00F01F000F28F8D18D
:1086C000622000F0E2FE0223237010BD9C04001023
:1086D00098C00920040003409CC0092010B547F64B
:1086E000FF7104460D2000F022FE42F622311220D6
:1086F00000F01DFE43F24B31142000F018FE4FF441
:108700009861202000F013FE1A4B0220198889B2CC
:1087100000F00DFE2621032000F009FE0321212098
:1087200000F005FE0F21052000F001FE00F0A6FE7E
:108730004206FBD5612000F0A8FE00F09FFE430733
:10874000FBD50E2000F0EAFD00F01F000F28F8D145
:10875000094B80221A60632000F097FE074B4FF40C
:1087600080721A6005232370A369A36044F6206316
:10877000E36010BD9C04001058C0092038C00920D7
:1087800010B50446FFF7DAFEC0B1636807215A1C32
:108790000B4B20461340002BBCBF03F1FF3363F0AB
:1087A0000303084AB8BF013332F813206360064B55
:1087B0001A80FFF7ADFE01232361237010BD00BFB7
:1087C00003000080ACAD00009C04001010B504460E
:1087D000FFF7B4FE30B1012323702361A369A360C6
:1087E000014BE36010BD00BFB0AD010010B5044601
:1087F000FFF7A4FE10B3642000F047FE104B802268
:108800001A604FF4807243F8202C63685A1C0D4B99
:108810001340002BBCBF03F1FF3363F003030A4A8C
:10882000B8BF013332F813206360084B1A8003236A
:108830002370A369A3604EF66023E36010BD00BF00
:108840005CC0092003000080ACAD00009C04001057
:1088500010B5044600F012FEC3060ED540F63541B1
:108860000423237001236361104B1A68104BC2F379
:1088700013021B6801FB0233A36123695BB120462D
:10888000FFF75CFE38B104232370002363610B21E2
:108890002046FFF73DFE2378022B06D0642000F02F
:1088A000F4FDBDE81040FFF713BE10BD6C120010C0
:1088B0000840004010B58AB0282200216846FBF726
:1088C00099FC40F63541164B1A68164BC2F3130259
:1088D0001B6801FB0233099300F0D0FDC2061DD5D1
:1088E000114B10241C606846FFF700FE099A694688
:1088F0000620FCF73DFB0D4B61201C6000F0C5FD20
:1089000000F0BCFD4307FBD50E2000F007FD00F092
:108910001F000F28F8D1622000F0B7FD0AB010BD8B
:108920006C1200100840004038C009203CC00920EB
:1089300030B589B004461C22002101A8FBF75AFC7F
:10894000012C144D05D006D3022C06D000232B7029
:108950001DE0114C02E0114C00E0114C114B4FF0A6
:1089600080721A6000F04EFC2B780D2B06D19DF81A
:10897000043001A854F823309847F5E7642000F04C
:1089800084FDFFF7A5FD084B4FF080721A6009B017
:1089900030BD00BF560A0010D0AD0000B4AD0000DD
:1089A000E8AD000000E100E080E100E0274A0B2193
:1089B000136843F010031360254B83221A60254A85
:1089C0000433116000215160D321916253F8042CCB
:1089D00022F0800243F8042C10B1C0221A6000E09B
:1089E00018601D4B09221A601C4A1368043223F0D8
:1089F000404343F0804342F8043CD36B23F04043B0
:108A0000D363136823F0030343F001031360144B93
:108A1000196821F003011960B8B1116821F00C0147
:108A200041F004011160196821F00C0141F00801C6
:108A30001960116821F4405141F4805111601A68A5
:108A400022F4405242F400521A607047C4C00F40F2
:108A50000C000140000001400800014000C002403D
:108A600044C002400FB437B5134B1D68FDB9134C19
:108A700001221A60FF2107AB069A2046019300F0FD
:108A800009FB204684F8FF5001F02CFC0C4B0D4AEA
:108A90001C605A604CF68022C0F30B0040F004408A
:108AA0009D60D8601A611A6942F001021A6103B030
:108AB000BDE8304004B07047A81100103E3A0010E5
:108AC000E0410050000001402DE9F84F8046894602
:108AD0009346D2F810A0D66800270124002522462C
:108AE0002B464046494601F0C5F9B94208BFB0429D
:108AF00007D304FB07F306FB0533A4FB06451D441F
:108B0000EDE7002754EA050330D022462B464046C5
:108B1000494601F0AFF922462B46494606464046F3
:108B200001F0A8F92046294690469946DBF80C202A
:108B3000002301F09FF904460D4627B9002E02DC00
:108B400054EA0503DED1092E0AF1010207DD9BF884
:108B5000003013F0040F14BF3723572300E03023F5
:108B60001E448AF8006001379246CBE700238AF85A
:108B70000030BDE8F88FF0B50C69CA680123B0FB7E
:108B8000F3F5954201D35343F9E70025E3B1B0FB78
:108B9000F3F2CE6803FB1200B3FBF6F31DB9002A13
:108BA00001DC002BF2D1092A04F1010706DD0E7861
:108BB00016F0040F14BF3726572600E03026324443
:108BC000227001353C46E1E72370F0BDF0B50C6939
:108BD000CA680123B0FBF3F5954201D35343F9E78B
:108BE0000025E3B1B0FBF3F2CE6803FB1200B3FB48
:108BF000F6F31DB9002A01DC002BF2D1092A04F199
:108C0000010706DD0E7816F0040F14BF372657262D
:108C100000E030263244227001353C46E1E7237003
:108C2000F0BD2DE9F04106460F461546546813691C
:108C300013F8012B1AB92B7A2BB1013C03E0002C5D
:108C4000F9DD013CF4E72B78990708D5EA68102A8A
:108C500001D1023C03E0082A08BF04F1FF3413F0FD
:108C6000090F0ED1A046B8F1000F05DD20213046D6
:108C7000B84708F1FF38F6E7631E002CB4BF1C4666
:108C80001C1B297A09B13046B8472B789A0711D5B1
:108C9000EB68102B09D130213046B8472B7813F000
:108CA000040F14BF5821782102E0082B02D1302193
:108CB0003046B8472B78DB070ED5A046B8F1000F39
:108CC00005DD30213046B84708F1FF38F6E7631E6E
:108CD000002CB4BF1C461C1BD5F8108018F8011BD3
:108CE00011B13046B847F9E72B7803F00903082B98
:108CF00006D1002C04DD20213046B847013CF8E7BE
:108D0000BDE8F0818368026893423CBF4268D15459
:108D100083680133836070472DE9F0478CB00746C4
:108D200088461C4606AE059692F80090551CB9F18F
:108D3000000F00F0AC81B9F1250F07D0B9F10A0F8F
:108D400002D10D213846C047494655E100229646DA
:108D500011469446104691469DF80430029203F065
:108D6000FC0362F3C3038DF804308DF80C2015F872
:108D7000013B73B12D2B06D0302B07D0232B08D10C
:108D800001229646F3E701208146F0E701218C4657
:108D9000EDE728B19DF8040069F3C3008DF80400E5
:108DA00029B19DF804106CF300018DF804102AB16C
:108DB0009DF804206EF341028DF80420A3F13002E7
:108DC000092A1DD800210A20A3F130025FFA82FE91
:108DD000BEF1090F04D800FB012115F8013BF3E7B0
:108DE000A3F16102052A02D8A3F1570205E0A3F11D
:108DF0004102052A03D8A3F137020A2AEBDD0291CA
:108E00002E2B0BD19DF8043043F001038DF8043074
:108E100015F8013BA3F13002092AF9D97A2B01D1C7
:108E20002B7832E06C2B40F098802B786C2B2CD177
:108E30006B7805F10209692B48D011D8582B00F046
:108E4000E18007D8002B00F02281252B40F0D7804D
:108E50004D46D0E0632B00F0B380642B36D0CEE0DB
:108E6000732B00F0B48007D86F2B00F09A80702B22
:108E700040F0C5804D467CE0752B03D0782B40F048
:108E8000BE80BFE04D4602230CE0692B05F10105D1
:108E900029D01ED9732B00F09B8066D9752B40F02A
:108EA000C88001230A22022B049208D1E31D23F07B
:108EB000070303F1080401AAD3E900012BE0012B09
:108EC00001A9206804F104093ED133E04D46022394
:108ED0000AE0582B00F0AF8040F28980632B70D0FD
:108EE000642B40F08D8001230A22022B049215D1BD
:108EF000E31D23F00703D3E90001002803F1080470
:108F000071F1000306DA40424FF02D0361EB41019D
:108F10008DF80C3001AAFFF7D7FD18E0012B20686F
:108F200004F1040909D10028BEBF2D2340428DF869
:108F30000C3001A9FFF71FFE08E00028BEBF2D235B
:108F400040428DF80C3001A9FFF740FE4C4601AAC3
:108F500041463846FFF765FE52E0692B00F08280FB
:108F600042D9732B34D000F28E806F2B1AD0702B25
:108F700046D19DF80430102243F002036FF38203C0
:108F800004928DF8043001A9206804F1040AFFF767
:108F90001DFEA946544601AA41463846FFF741FE48
:108FA0002DE04D46082301A920680493FFF70EFE2B
:108FB00001AA4146384604F10409FFF732FE11E0E8
:108FC0004D462178384604F10409C0470AE04D4671
:108FD000236801AA41463846059304F10409FFF7C6
:108FE00020FE05964C460BE0582B3FD036D8002B80
:108FF0004DD0252B04D125213846C04700E04D46F1
:109000002A4691E6A3F1580043429DF804104341DB
:1090100063F382011022E31D23F0070304920CAADC
:1090200002F82C1DD3E9000103F10804FFF74CFD01
:10903000B1E7782BE4D1A3F1580110224B420492FE
:109040009DF804204B4163F382020CA901F82C2DFA
:10905000206804F1040AFFF78EFD9AE7632BB0D075
:10906000642BCDD100233FE7782BC9D11022049285
:10907000A3F15802534253419DF8042063F3820246
:109080008DF804207FE7752BEED100230AE70CB0A2
:10909000BDE8F0871FB5002481B10139029001912C
:1090A00001A808490394FFF737FE0399019B029A30
:1090B000994234BF5454D454039800E0084604B095
:1090C00010BD00BF058D000000F0E8BC08B50D4ADA
:1090D0000D4B0E498B4204D252F8040F43F8040B97
:1090E000F8E70B4B0B4A0021934202D243F8041BD2
:1090F000FAE7FBF757F8084B084A1A60FDF770FCCF
:10910000FEE700BF54AE000020000010250A00104A
:10911000280A00103E3B001008ED00E0004000006F
:10912000FEE70000044B0A221A601A68013A1A602E
:10913000002AFAD1704700BFAC11001090FAA0F0DD
:1091400070470000C30803EB900303EB901303EB9D
:10915000D01303EB902303EBD020044B58605A68E4
:10916000013A5A60002AFAD1704700BFAC110010D2
:10917000014B5843FFF7E6BF40420F00104A00235F
:10918000136053609360D3601361D3615362936241
:109190000C4A1360136213641366C2F880300A4AE3
:1091A000136053609360D3601361D3615362074AC5
:1091B0001360136213641366C2F88030704700BFF7
:1091C00000C0024000C0092040C0024014C0092075
:1091D00008B5FFF7D3FF4CF21271094A0023136060
:1091E000116240F2B11111644FF040511366C2F8A0
:1091F00080105361536353655367C2F8943008BDC0
:1092000000C00920114B1A6822F4404242F4004287
:109210001A601A6822F4405242F400521A601A6826
:1092200022F4403242F400321A601A6822F44022DA
:1092300042F400221A60064B4FF080521A60054B30
:10924000C7221A600C225A60704700BF00C002405B
:1092500098C0092000000340094A136823F47013E2
:109260001360084A136823F0C0631360064B1A6842
:1092700042F420121A601A6822F4A0121A60704791
:1092800004C0024000C0092044C00240F0B51026CE
:10929000B646114B2025441E01221D600F4F104D74
:1092A00002FA04F40138C0B2FF280FD0214214BFE3
:1092B0002A601A602E60D7F800C049001CF0020F27
:1092C00018BF41F00101C3F800E0EBE7044B202296
:1092D0001A600846F0BD00BF5CC0092054C00920D8
:1092E00058C0092008B5FFF7B7FF09494FF40073CC
:1092F0000B603220FFF726FF064B20221A604FF446
:1093000080430B6018200449BDE80840FFF7BEBF4A
:1093100038C0092058C00920FF7F0D0008B540F073
:10932000800109041820FFF7B1FF80B208BD41EAAF
:1093300000411820FFF7AABF08B540F080010902DC
:109340001020FFF7A3FFC0B208BD41EA00211020A2
:10935000FFF79CBFF8B5224B2022224F1A607024E1
:1093600008224FF0010E102614F0800F02F1FF3298
:1093700014BFC7F800E0C3F800E0640012F0FF0279
:109380003E60184DE4B21E60EED10E4601274FF04C
:10939000100E721AD2B2904213D916F8014B08225D
:1093A00014F0800F02F1FF3214BF2F601F606400C1
:1093B00012F0FF02C5F800E0E4B2C3F800E0EFD11C
:1093C000E7E708221021013A12F0FF022960196034
:1093D000F9D1FFF7A7FE034B20221A60F8BD00BFAA
:1093E0005CC0092058C009202DE9F843204D2023F6
:1093F000204F2B60F02208234FF0010E102412F0B2
:10940000800F03F1FF3314BFC7F800E0C5F800E098
:10941000520013F0FF033C60164ED2B22C60EED126
:109420000138DFF854904F1E0144B9421AD0082089
:1094300000244FF01008FFF775FEC6F80080D9F839
:10944000003064009B07E4B248BF44F00104FFF71A
:1094500069FE013810F0FF00C5F80080EBD107F875
:10946000014FE2E7FFF75EFE20233360BDE8F8839B
:109470005CC0092058C0092054C0092008B500214B
:109480000820FFF703FFC0B208BD08B50146082059
:10949000FFF7FCFEC0B208BD08B500211820FFF799
:1094A000F5FE0020FFF73AFF0028FAD14FF4004103
:1094B0001820FFF7EBFE0020FFF730FFB0F5004F5C
:1094C000F9D108BD2DE9F04144F23A02404B414E3A
:1094D0001A60414D002333602B68404C23F0020397
:1094E0002B60AA2323603E4A5523236013683C4F18
:1094F00013F0007FFAD12B6823F001032B60AA231D
:109500002360552323603B6813F08073FBD1DFF8A1
:10951000F480C8F80030FFF7BFFF32491820FFF78A
:10952000B5FE6020FFF7B1FFFFF7A8FF4106FBD5AE
:109530002D4B20221A601A685206FCD52B4B28228C
:109540001A6000225A6001233360294A294BAA215C
:109550001A605522216022602B6843F001032B60C2
:10956000216022603B68DE01FCD50323C8F800308F
:109570002B6843F002032B60AA232360552323604A
:109580003B689801FCD51C4B22221A60AA240833A0
:1095900055201A4A1C601860116841F001011160E1
:1095A0001C60174C18602168154811F4807FFAD0B0
:1095B00001684905FCD5116841F002011160AA2239
:1095C0001A6055221A6003689B05FCD5BDE8F0813E
:1095D00000C00F400CC10F4080C00F408CC00F4036
:1095E00088C00F4070150800A0C10F40A8C10F40EF
:1095F0001800010084C00F40A4C00F40A0C00F405D
:10960000A8C00F4004C10F4008B5FFF7E1FDFFF708
:1096100069FEBDE80840FFF755BF000008B5FFF739
:10962000ADFD094B02221A604FF0804213680748D3
:1096300043F003031360064BAA221A6055221A60F6
:10964000BDE80840FFF77EBD3CC0092040420F0046
:109650000800004030B58BB0044636230D46009319
:1096600005A96846074B9847059B2370069B1A0A75
:109670006370A2701A0C1B0E23710523E2702B601D
:109680000BB030BDF11FFF1F30B58BB004463A233D
:109690000D46009305A96846134B9847059B237018
:1096A000069B1A0A6370A2701A0C1B0E2371079B8B
:1096B000E2701A0A6371A2711A0C1B0E2372089BC6
:1096C000E2711A0A6372A2721A0C1B0E2373099BB1
:1096D000E2721A0A6373A2731A0C1B0E237411230D
:1096E000E2732B600BB030BDF11FFF1F00B58BB0D4
:1096F0003923009305A96846024B98470BB05DF8E3
:1097000004FB00BFF11FFF1F38B5084C80202568FF
:109710006168402DA8BF40252A4600F057F96368CC
:109720002B44636023685D1B256038BDB4110010B5
:1097300037B51048047A0546C4F34114022C0CD105
:10974000002302A941F8043D00F11002031D083076
:1097500000F066FA08B101980AE005EB8404636939
:109760002BB1054A02F10C01101D984700E0184684
:1097700003B030BDB4110010B811001010B50028AE
:109780004AD101F0040101F0FF02254C01B3082287
:10979000A11800F045F9227AC2F3411304EB8303C8
:1097A0005B6A6360E389236023610BB1D30935D021
:1097B000FFF7BEFF28B9BDE810400121802000F06E
:1097C000F9B8E28923699A42D4BF226023601AE083
:1097D0002368002B1BDD1A46616800F021F9002880
:1097E000E9DB6368034463602368181A2060A8B942
:1097F000237AC3F3411304EB83035B6A6360FFF7CF
:1098000097FF0028D7D0BDE81040FFF77DBF114675
:10981000BDE8104000F004B98028F4D010BD00BFAE
:10982000B4110010024B03EB8000416142627047AB
:10983000B41100107047000010B50E4C00F096F9FE
:109840000D4800F081F82146002000F061F8214623
:10985000802000F05DF84021002000F03BF840211E
:10986000802000F037F8054A05490020FFF7DAFFAD
:10987000012010BD7D97000035980000E811001010
:10988000159D0000034A136830EA0303FBD1024B25
:109890001860704700C2005008C20050044B00041A
:1098A00040F4A06030221A6098601020FFF7EABFF1
:1098B00008C2005008B5FFF7F1FF054B090441F459
:1098C000807119601020BDE80840FFF7DBBF00BFC2
:1098D00010C2005010B5430003F01E0343EAD01439
:1098E000094801230268A34013430360074B4FF468
:1098F00080701C605960FFF7C5FF44F040000021F4
:10990000BDE81040FFF7D6BF44C2005048C2005027
:109910000A4A430003F01E0342F81310084943EAC1
:10992000D01001220B6802FA00F01843054A0860C3
:10993000136843F004031360704700BFF011001078
:1099400034C2005004C20050034B044A1864136828
:1099500043F0080313607047F011001004C2005078
:1099600040F08001D020FFF7A5BF011C18BF0121E6
:10997000FE20FFF79FBF0146F320FFF79BBF0000CB
:1099800008B5430003F01E0343EAD0110846FFF771
:1099900085FF064B090441F4007119602020FFF790
:1099A00071FF034B1868C0B208BD00BF10C2005061
:1099B00014C20050430003F01E0343EAD0100031EC
:1099C00018BF012140F04000FFF774BF38B50346CF
:1099D000400000F01E0040EAD3109B0003F03C035F
:1099E0000C4C43F0020323600B4B15461A600B4AE4
:1099F000236813F0020303D051F8043B1360F7E728
:109A0000044A1360FFF74AFFFA20FFF747FF284692
:109A100038BD00BF28C2005024C200501CC20050F4
:109A2000F8B50346400000F01E0040EAD3109B004A
:109A3000154C03F03C0343F0010323602646083C29
:109A400023681D05FCD55C051AD500252C460F4F53
:109A5000C3F309039C420AD014F0030F08BF3D680A
:109A600011B1944238BF0D552D0A0134F2E700239D
:109A70003360FFF713FFF220FFF710FF2046F8BD19
:109A80004FF0FF30F8BD00BF28C2005018C2005090
:109A9000011C18BF0121D820FFF70CBFF8B52A4BD5
:109AA0001C68E10711D501229A60284B596C61B1FD
:109AB000F520FFF7F3FE264B264A20201A60FFF719
:109AC000E1FE254B1868C0B2884722071AD5234B00
:109AD00008221A60FE20FFF7E1FE1D4B204A2020DD
