S0160000626C7565746F6F74685F727874782E7372656303
S1134000E03F00105D920000B1920000B192000008
S1134010B1920000B1920000B192000000000000D3
S1134020000000000000000000000000B192000049
S1134030B192000000000000B1920000B1920000B3
S1134040B19200001D4F0000B5800000B192000045
S1134050B1920000B1920000B1920000B192000050
S1134060B1920000B1920000B1920000B192000040
S1134070B1920000B1920000B1920000B192000030
S1134080B1920000B1920000B1920000B192000020
S1134090B19200002D500000B1920000B1920000D6
S11340A059920000B192000045510000B192000005
S11340B0B1920000B1920000B1920000B1920000F0
S11340C0B1920000B1920000B1920000044B054887
S11340D01B1A062B02D9044B03B11847704700BFC3
S11340E02F0A00102C0A00100000000005490648A1
S11340F0091A891001EBD171491002D0034B03B1A5
S1134100184770472C0A00102C0A00100000000009
S113411010B5064C237843B9FFF7D8FF044B13B10D
S11341200448AFF300800123237010BD300A00104F
S1134130000000000CB7000008B5084B1BB108498B
S11341400848AFF300800848036813B9BDE8084085
S1134150CCE7064B002BF9D09847F7E700000000A6
S1134160340A00100CB700002C0A001000000000F4
S1134170002301461A46184600F090B838B50A4C98
S11341800A4D641BA4100AD004F18043013B05EBE3
S11341908305013C55F804399847002CF9D1BDE852
S11341A0384007F0BDBA00BF30B700002CB700009C
S11341B070B50F4E0F4D761BB61018BF002405D0F6
S11341C0013455F8043B9847A642F9D10A4E0B4DE9
S11341D007F09CFA761BB61018BF002406D00134F1
S11341E055F8043B9847A642F9D170BD70BD00BF95
S11341F018B7000018B7000020B7000018B7000077
S113420070B4860746D0541E002A41D0CAB2034671
S113421002E014F1FF343BD303F8012B9D07F8D1DE
S1134220032C2ED9CDB245EA05250F2C45EA0545C8
S113423019D9264603F11002103E0F2E42F8105CE5
S113424042F80C5C42F8085C42F8045C02F110028B
S1134250F2D8A4F1100222F00F0204F00F0410327D
S1134260032C13440DD91E462246043A032A46F869
S1134270045BFAD8221F22F003020432134404F030
S113428003042CB1C9B21C4403F8011B9C42FBD1AA
S113429070BC704714460346C2E700BF2DE9F047DF
S11342A0274C074626688846D6F8484192469946E0
S11342B0002C3CD065681F2D1ADC05F1010E7FB17E
S11342C0012004EB8503C3F888A0D4F8881100FA10
S11342D005F21143022FC4F88811C3F8089120D0C5
S11342E00235C4F804E0002044F82580BDE8F087D6
S11342F0144B0BB34FF4C870AFF300800446D8B12D
S11343000020D6F848314FF0010E60602360054666
S1134310C6F84841C4F88801C4F88C01002FDFD0E6
S1134320CEE7D4F88C311A43C4F88C21D8E706F5CB
S1134330A674C6F84841BDE74FF0FF30BDE8F087EA
S11343402CAC000000000000024B13B10248FFF740
S11343500FBF7047000000007D41000010B500232E
S11343601A4640FA03F1C3F1070401F00101A14028
S113437001330A43082BD2B2F3D1104610BD704763
S113438010B5044C206004F0A1FFE080000CA08074
S113439010BD00BF5004001038B5264B264C1A78C7
S11343A012B11A78012A26D11A78002A3FD01B7834
S11343B0012B14BF0025402547F6FF710D2005F0A1
S11343C07CF842F62231122005F077F841F24B31A5
S11343D0142005F072F840F20111202005F06DF868
S11343E0B4F84C100220013989B205F066F8294668
S11343F0032005F062F8B4F84C0080B203F050FAE0
S113440003F0E6FA05F0F4F84206FBD5612005F066
S1134410F6F805F0EDF84307FBD5622005F0EFF858
S11344208022064B1A604FF480721A6038BD292529
S1134430C2E700BF4C0A00105004001058C0092005
S113444070B5294B04461A78002A48D01B78012BF2
S113445044D1402540F2615647F6FF710D2005F026
S11344602CF842F62231122005F027F841F24B21B4
S1134470142005F022F83146202005F01EF8A1B2E0
S11344802C2005F01AF8210C184C2D2005F015F8F5
S1134490B4F84C100220013989B205F00EF829460F
S11344A0032005F00AF8B4F84C0080B203F0F8F9E0
S11344B003F08EFA05F09CF84206FBD5612005F066
S11344C09EF805F095F84307FBD5622005F097F8B0
S11344D08022074B1A604FF480721A6070BD292540
S11344E040F26146B8E700BF4C0A001050040010C7
S11344F058C00920F8B507460E4603F0F1F81D4DE3
S1134500044620B96B7843F004036B70F8BD042FA4
S1134510077019D140F63541174A13681B0DC37053
S11345201368164AC3F31303126801FB03234360A1
S11345303222314604F10E0006F0D4FA6B780120E1
S1134540637000236B70F8BDAB78C3706B68436015
S11345502B89623B83700A4B1B784372094B1B788F
S11345600372288980B203F087F9074BA0721B7885
S1134570E372DDE74C0A00106414001008400040A8
S11345808A13001088130010AA19001010B56420B3
S113459005F035F805F02CF810F00404FAD1802267
S11345A0214B10211A604FF480721A6043F8201CCA
S11345B043F8202C022243F8202C03F0E1F903F005
S11345C0EBFA03F0CBF903F0F3F840F68911174B3B
S11345D0174A9C72DC72A2F84C109E219C81A2F8AE
S11345E04E1040F66211DC81A2F850109C705C60A1
S11345F01C811C745C705C749C74DC741C751C7071
S11346004FF41663A2F8523040F6B313A2F85430B4
S1134610E2230020002182F85630064BC3E9000152
S1134620C3E9020110BD00BF5CC009204C0A0010A0
S113463050040010281A00102DE9F84F3D4D3E4853
S113464004F0EEFAB5F84C003C4C80B202F046FFA0
S11346500022215C28463A4D1346A646AC465C5DD2
S11346600133E4071F2B44EA5202F8D105681CF811
S11346700340E40744EA5202AA4256D1314E0024D0
S11346804FF07F0935464FF0000A574603EBC40844
S113469007EB08026244032C12F81F2C0CDD0EEB0E
S11346A0010B9BF828B0013182EA0B02B1FBF9FB44
S11346B0CBEBCB1BA1EB0B01BA40013742EA0A0258
S11346C0082F5FFA82FAE3D1326802F804A00134B9
S11346D02E2CD8D103696BB929680120FFF70AFF92
S11346E01022194B1A60194B28689B6998470120BE
S11346F0BDE8F88F3368C0685C79316804F03F0422
S1134700A21C043102F054FF326804F10803D15CA6
S11347103268E31DD35C32680634125D1B0243EA3F
S1134720014313439842E2D1D6E70133B3F5D87F6E
S11347309DD1DCE75004001002B5000034AC000049
S1134740881600108416001038C009204C0A001086
S1134750F8B50E4615461C464D2800F2A783DFE83F
S113476010F06A00600066006E0074007A007F003A
S1134770820087008B009000E200ED002C019B007A
S11347809600A000A500AA00AC00B200D900DB008E
S1134790DE0026012901A5032E01B600BE00CA00D1
S11347A0C800CC0058014B017501790180018201D8
S11347B0CD0105021E02600270027B026C008502BC
S11347C089028F029602A20209021402AB02CE02EF
S11347D068014D03A503B2029B039F03EF0101028D
S11347E02B02A5034E00B5024901C502320297030C
S11347F01503D202DD02D002E202F002110300230B
S113480032885C1CDBB2934217D203EB4303EA18F1
S113481051789278E85C42EA012104F04EFE234686
S1134820EEE70120A64B987400232360F8BD022212
S1134830A34B9A729A74002323600120F8BDA14B04
S11348401B68C3F340032B7047E002230A88E2B1DC
S11348509D4A1360F1E79B4B1B68C3F30013F2E717
S11348600A881023F3E7974B1B68C3F30023EAE796
S11348700A884FF48073EAE7924B1B68C3F3402322
S1134880E1E70A884FF40073E1E7904AE1E7214643
S1134890104604F097FFD0E72146104604F0ACFF21
S11348A0CBE78B4B1B68C3F3C013CCE780230A8888
S11348B03AB1884ACDE7864BD6E70A884FF480732D
S11348C0F6E7854AC5E703227D4B9A74B5E70520D0
S11348D004F0EAFD00F0070028700120B8E0098820
S11348E0072900F2E382052041F0080104F0E5FD08
S11348F0A3E70522E8E70622E6E7784B1A782A7050
S11349005A786A709A78AA70DA78EA701B792B71EF
S1134910052391E70022D7E7694B1B7893E70A78D0
S1134920674B1A7089E76E4BB3F84C202A70B3F8C2
S11349304C30C3F307236B7002237DE70A8840F6EB
S1134940EA215F4BDA81DA8992B28A4219D90122CB
S11349509A7240F66212DA81D989614A89B2A2F860
S11349605010597C09293FF468AFD98989B2A2F85B
S11349704C100021D981B2F84C0080B202F090FFB3
S11349805BE700229A7240F6DC02D98989B291422F
S113499040F6E92184BFDA8992B2DA81DA8992B2E7
S11349A08A4296BFDA8940F6EA2292B2D3E704F04B
S11349B055FF40E74B4A4C4B1A600B2284E76FF4D7
S11349C000600A881318B3F5806F80F06F824B88FB
S11349D06FF400615918B1F5806F80F067829A42D4
S11349E000F264823E49A1F852200422A1F8543016
S11349F0334B1FE70F22FBE70B88B3F5807F00F2F0
S1134A005582374AC3F136035BB282F85630072227
S1134A10EEE7002335481370537006F0D9F8C6B298
S1134A20A87032463149E81C06F05CF8033626606B
S1134A3003E72F4806F0CCF8C6B205F8010B32465E
S1134A402B49284606F04EF80136F0E70120107095
S1134A502060F8BD0A88274B1A70214BB3F84C002C
S1134A608BE7244B59E7002200230026224C6F1EBB
S1134A70C4E90023C4E90223324617F8010F0021D8
S1134A8005F0AEFAD4E90023083610431943402E4A
S1134A90C4E90001F0D100260735324615F8010FAC
S1134AA0002105F09DFAD4E9022308361043194386
S1134AB0402EC4E90201F0D102F0C4FBBDE600BF00
S1134AC04C0A001034C0092038C009203CC0092019
S1134AD054C0092058C009205CC00920E419001002
S1134AE05004001021BB05431C0000100EB500004B
S1134AF0DBAC0000AC190010281A00100022A94BEE
S1134B00E81C1A606A1E19680902196012F8011F6C
S1134B101C68824241EA04011960F4D10222012096
S1134B204FF08051A04B9A72A04A187411602979F1
S1134B306A7942EA01229E490A8008229A74F8BDE1
S1134B400522994B9B499A720E229A7400231A46A5
S1134B505A5401330A2BFBD10120974B1A70974BFF
S1134B601870F8BD0120904BD872F8BD1268944BB0
S1134B701A6072E700238F4AE95C995401330A2BC7
S1134B80FAD101208D4A10704FE600231A46894954
S1134B905A5401330A2BFBD188490A704CE6884BDE
S1134BA0551E1968002321FA03F20833202B05F857
S1134BB0012FF8D104233FE612786B7843EA0223ED
S1134BC07B4A138039E67F4A28786B78118843EA58
S1134BD000230B441BB2138013887B4913F4004F4A
S1134BE07A4B0ED04FF4A0701288524292B290FBCE
S1134BF0F2F21A80764A1B8812689BB213440B6047
S1134C001BE6108800B2002807DD128810B24FF4AA
S1134C10A07292FBF0F292B2EBE700221A800A60D3
S1134C200BE600220B886B4D6B635F4B2260DA72DC
S1134C3003229A7209229A7402F044FDB5F84C00DA
S1134C409BE600236349551E0A68DA400833202B8B
S1134C5005F8012FF8D1ADE701241068FFF790FBA8
S1134C605C4B5D485C6403F0DBFFE6E513231370E3
S1134C70372360E6574B1B69003318BF0123E2E575
S1134C800B88544A003318BF01231361D5E502F0A1
S1134C9041FD014628B14022284605F023FF402368
S1134CA0CAE5287019E600223F4B22609A720A2254
S1134CB09A7402F007FDD0E6087804F0F5FB030AC5
S1134CC02B70687038E6498830780FE60026F7B212
S1134CD0384604F0E9FB0136030A2E2E2F706B7060
S1134CE0A87005F10305F2D18723A5E59279294639
S1134CF00732D2B2394805F0F5FE102278E60C22CC
S1134D00E2E51122E0E552782B78354843EA0223A4
S1134D10304AD3830022244BDA61A4E712782D4B66
S1134D2030489A759FE72B4C13782046637502F040
S1134D3005FCA4F84C00204602F000FCA4F84C004A
S1134D407BE5194C11682848216203F069FF43F29E
S1134D50D401204B0120DA8B236A01FB0232234960
S1134D60A2F5D7638B426FF0010184BF204B9B18DF
S1134D70204A116020490B6007231060A37284F855
S1134D802400F8BD1268134B9A6056E58A88152AE8
S1134D9000F28C800F48294682655C3005F0A2FE43
S1134DA04BE500BF981300104C0A001098C009206E
S1134DB0721600108B13001089130010AB19001029
S1134DC064140010A8190010E019001060140010F9
S1134DD05C1400105004001013B500006814001097
S1134DE01BB500002DB5000040B50000000050C305
S1134DF048F9AF3C14400040184000409479302CEE
S1134E0054D874B92A4D2146062205F138006C6441
S1134E10FFF7F6F90622214605F13E00FFF7F0F907
S1134E200BE5244C931D224613F8011D9D4202F804
S1134E30011FF9D1002106221F48FFF7E1F9FF26DF
S1134E4005231B49A879082819D860B100210A460E
S1134E500131CDB25208A84242F08002F8D8144978
S1134E600B4483F83E2015496378E279134004F833
S1134E70013F8C42F8D101200D4B5864F8BDCA188B
S1134E8082F83E60AA79013B083ADBB2AA71D9E7FD
S1134E9001200B4B9862F8BD0A78094BDA74CCE414
S1134EA00D22074B9A740A781A75C6E40020F8BDDF
S1134EB050040010870400108E0400108C040010AD
S1134EC04C0A00102DE9F04106460F46904602F0C8
S1134ED007FC104D044628B96B7843F004036B704B
S1134EE0BDE8F081067000260B4BC670B3F84C3059
S1134EF0C0F80480623B83708672C67232223946DF
S1134F000E3005F0EFFD6B786E7063700120BDE824
S1134F10F08100BF4C0A001050040010F0B54FF0AF
S1134F2040231B68D9071BD53848394A0168937A4E
S1134F300646144613B1937A012B05D133685A06F9
S1134F400AD10123E37207E0937A022B09D10368A3
S1134F50DB0701D40123D37201224FF040231A60EE
S1134F60F0BD2C4B9D691F46491B957A01F0030146
S1134F70032D14D1187D0328EED10029ECD1998B8F
S1134F80013989B29983998B89B269BB0121D172A4
S1134F901A8C0A4492B21A84DA8B9A83DCE7957AE3
S1134FA0062DEAD0917A072923D192F82450012DB5
S1134FB01FD16FF001060168174C1848DB8B00689D
S1134FC082F82C502660D2699638801AC1F31302F5
S1134FD040F6354101FB020243F2D40101FB0322F6
S1134FE00F4B1A602560B7E74FF480720D4B1A60BF
S1134FF0B2E7A37A052BAFD10B4AB7F84E3011684C
S11350009BB232680B449342A6D19AE76414001011
S11350104C0A0010500400101440004008400040A6
S1135020184000403CC00920801300100422084BA3
S11350301A604FF08052074B1A600122064B1A7017
S1135040064B9A7A022A04BF00221A74704700BFE2
S1135050AC8002409CC00920211A00104C0A0010A8
S113506010B52A4B5A7C012A14D05A7C082A11D034
S11350705A7C042A0ED05A7C092A0BD05A7C0A2A5C
S113508008D05A7C112A05D05A7C0C2A02D05A7CAA
S11350900F2A3AD11E4A1268D10736D51D4A126822
S11350A0D20727D501211C4A40F6354411609A7A6B
S11350B01A48022A02BF4FF08051194A1160194957
S11350C00A680068C2F3130204FB02025A600A6809
S11350D0C2F307529A70144AB2F84C2092B21A8161
S11350E0124A134B116818681060124A1960136849
S11350F001331360104B1B68DB0706D501220F4BED
S11351001A600F4A13680133136010BD4C0A001073
S11351100040005004400050084000500840004047
S113512098C009206414001050040010A414001046
S113513084160010841300100C40005010400050DE
S11351401C1A001008B5114B5B7C092B1AD102F014
S1135150BBFE0F4B1B68190617D50E4B1B681A06AE
S113516005D580220C4B1A6000220C4B1A600C4BA4
S11351701B681B0609D580220A4B1A6002220A4BBF
S11351801A60FEE7FFF76CFFE3E708BD4C0A001066
S1135190004000500440005008400050DC12001051
S11351A00C4000501040005038C009202DE9F04F49
S11351B08DB00C46904604F089F8504E0746B6F878
S11351C04C00282C80B228BF282402F087F94FF025
S11351D00009C6464FF07F0A494D0DF107012B5CCB
S11351E00196AEEB0802944265D847F6FF710D2094
S11351F004F063F942F62231122004F05EF941F220
S11352004B31142004F059F940F6E141202004F018
S113521054F9019B0220B3F84C1089B204F04DF903
S11352200B21052004F049F94021032004F045F93D
S11352301421232004F041F9B9B22C2004F03DF9E3
S1135240390C2D2004F039F904F0D2F94106FBD5CC
S1135250612004F0D4F904F0CBF94207FBD54FF4F4
S11352608072284B1A6080221A620E2004F01CF906
S113527000F01F000F28F8D1204602A904F030F9ED
S1135280632004F0BCF90E2004F00EF900F01F00B6
S11352900F28F8D14FF480721B4B64201A6004F07D
S11352A0AEF904F0A5F94307FBD48022174B1A602A
S11352B00DB0BDE8F08F072681F801901EF8012B90
S11352C011F801CFE81890F8280002F0010B8BEADE
S11352D0000003F1010BBBFBFAF3B040C3EBC313B3
S11352E040EA0C0C16F1FF36ABEB03034FEA520213
S11352F05FFA8CFCE6D281F800C072E7500400101B
S113530034AC000038C009203CC009205CC009202E
S113531008B547F6FF710D2004F0CFF842F62231AC
S1135320122004F0CAF842F24B31142004F0C5F8FC
S113533040F60141202004F0C0F80B21052004F0C0
S1135340BCF84021032004F0B8F804F051F94206F7
S1135350FBD5612004F053F904F04AF94307FBD567
S11353604FF48072074B1A6080221A620E2004F0F8
S11353709BF800F01F000F28F8D16320BDE8084017
S113538004F03DB938C00920F8B500236C4C6D4ACF
S1135390E3726D4B19681160A27A52B9022004F0CD
S11353A083F86A4BB3F84C309BB2013B98423CD132
S11353B0F8BDA27A012A67D1644908260846644BDD
S11353C0644D1F78644B93F800E0B1F84C302033FF
S11353D09BB2A1F84C30B1F84C309BB2B3F51B6FC3
S11353E081BFB1F84C304F3B9BB2A1F84C30E7B1D0
S11353F0BEF1000F19D0B0F84C20B0F84C3092B286
S1135400A2F6621292FBF6F29BB2A3F66213D3F1F8
S1135410000CAA5C0CF0070C03F0070358BFCCF196
S1135420000342FA03F3DA07CFD5642004F0E7F867
S113543004F0DEF84207FBD4607C444DC0B2B5F8FA
S11354404C10022817BF01F1FF3189B289B2022042
S113545004F033F8A37A23B1B5F84C0080B202F01B
S11354601FFA612004F0CBF804F0C2F84307FBD51F
S113547001232374637C022B08BF6320BDE8F8403A
S113548018BF622004F0BBB8A27A052A34D12F4990
S1135490082608462E4B2F4D1F78B1F84C30203388
S11354A09BB2A1F84C30B1F84C309BB2B3F51B6FF2
S11354B081BFB1F84C304F3B9BB2A1F84C304F2F19
S11354C0B3D0B0F84C20B0F84C3092B2A2F66212CD
S11354D092FBF6F29BB2A3F66213D3F1000EAA5C20
S11354E00EF0070E03F0070358BFCEF1000342FA93
S11354F003F3DB07D1D498E7A27A022A06D118680D
S113550001F046FF114BA3F84C008EE7A37A062B5B
S113551002D0A37A072B06D10C4D284602F00EF8D0
S1135520A5F84C0081E7A37A032BF5D0A37A042BCA
S113553001BFA389054A9BB2A2F84C3075E700BFAE
S11355404C0A001080130010641400105004001062
S1135550891300108B130010AB1900102DE9F84FBC
S113556010234E4E4E4F336002F0ACF83C4603F02D
S113557011FF02F073FA02F0EFFAFEF70DFF02F0EA
S1135580BDF9DFF838B1BB7C012B08D0BB7C082BFC
S113559005D002F001FBBDE8F84F02F0C7B91023B3
S11355A0336002F005F96FF07F05DFF81481DFF84E
S11355B01491D8F80030DFF810A1002B49D0102343
S11355C0384DCBF800302B681BB1637843F00203ED
S11355D06370D8F80030012B82BF637843F0010375
S11355E06370237C2BB1637843F020036370002342
S11355F023742D4BB3F84C0080B202F015F999F8DE
S1135600003013B9294B1B7833B1637843F0080396
S11356106370002389F80030254B264A93F9003043
S113562092F9002035339342B8BF63784FF00000FD
S1135630BCBF43F0100363701F4B1968FEF75AFF99
S1135640DAF8000002F0A0F80023C8F800302B605C
S113565099E7062003F028FF99F8003040F307206B
S113566063B115F1800F09D1114B93F9003003F1A7
S11356703605A842B8BF284645B2284602F0B4F819
S1135680DAF8000002F080F8E37A13B1FFF77CFE49
S11356908FE74FF4807333608BE700BF3CC0092071
S11356A04C0A00101C1A0010500400107016001050
S11356B0201A0010881300108416001038C0092026
S11356C084130010211A0010641400102DE9F04313
S11356D085B0954B0027D3E90245002304F001026D
S11356E013434AF6AA234FEAD57645F2555808BF24
S11356F09846002F08BF012EE0B20CBFAA265526FB
S1135700FEF72CFE8DF80000C4F30720FEF726FEFA
S11357108DF80100C4F30740FEF720FE8DF8020067
S1135720200EFEF71BFE8DF80300E8B2FEF716FE0E
S11357308DF80400C5F30720FEF710FE8DF8050070
S1135740C5F30740FEF70AFE8DF80600280EFEF7A3
S113575005FE8DF807003046FEF700FE8DF80800C0
S11357607720FEF7FBFD8DF809006620FEF7F6FDB5
S11357708DF80A005520FEF7F1FD8DF80B0044204A
S1135780FEF7ECFD8DF80C003320FEF7E7FD8DF8F5
S11357900D002220FEF7E2FD8DF80E001120FEF729
S11357A0DDFD3C463B468DF80F0048FA03F2C3F199
S11357B00F0102F001028A4001331443102BA4B2FA
S11357C0F3D147F6FF710D2003F077FE42F6223144
S11357D0122003F072FE41F24B31142003F06DFEEF
S11357E040F60141202003F068FE21462C2003F0FE
S11357F064FE00212D2003F060FE4C4B0220B3F820
S11358004C104B4C89B203F058FE0B21052003F0D9
S113581054FE2378BBBB2921032003F04EFE02F083
S1135820D7F803F0E5FE4506FBD5612003F0E7FE5B
S113583003F0DEFE4007FBD580223E4B1A600E20AB
S113584003F032FE00F01F000F28F8D1632003F0AC
S1135850D6FE1421232003F030FE082003F024FE9A
S1135860C0F30801074641F49C41082003F025FEDB
S11358700025314EDFF8CC90A37C022B4AD16D0871
S1135880DFF8C48008E02378012BE2D14021C3E78C
S1135890E27A1AB1FFF778FD40F6C9033268B5EB36
S11358A0520FF5D0D8F800209A42F1D94FF4807302
S11358B035686946C9F80030102003F011FE0E2047
S11358C003F0F2FD00F01F000F28F8D14FF48072AE
S11358D01A4B64201A6003F092FE03F089FE41071C
S11358E0FBD403F085FE4206FBD5612003F087FE5E
S11358F003F07EFE4307FBD50E2003F0D5FD00F038
S11359001F000F28F8D1632003F079FE306801F0FE
S11359103BFFB1E780220A4B39461A60082003F0A6
S1135920CCFD05B0BDE8F083281A00105004001027
S11359304C0A001058C00920641400103CC009200F
S11359405CC0092038C009200840004008B50F4851
S1135950FEF716FD0E4B0F4A9A600F4ADA600022DA
S11359609A831A611A849A641A755A759A759A6197
S1135970DA8383F822209A849A629A85DA8583F8F6
S113598030205A86054BDA7208BD00BFD6BE898E18
S11359905004001055555500AAAAAA004C0A00103C
S11359A010B5064C4FF4847200212046FEF728FC03
S11359B04FF0FF33C4F8003110BD00BFA81400102D
S11359C02DE9F84F01236F4C824623706074FFF772
S11359D0BDFF4FF080726C4B6C4F1A6010233B601C
S11359E001F070FE002603F0D5FC02F037F802F057
S11359F0B3F8FEF7D1FC01F081FFDFF8B4B1DFF8B2
S1135A00B481A37C9A4540F08C80E3899BB2CBB1EE
S1135A10642003F0F4FD03F0EBFD4207FBD4BBF874
S1135A204C100220013989B203F047FD612003F0D4
S1135A30E6FD03F0DDFD4307FBD5622003F0DFFD47
S1135A400023E381E37A002B77D0FFF79DFC10233A
S1135A503B6001F0ADFE6FF07F05DFF85C91D8F894
S1135A6000301BB9D9F80030002B6AD0D9F80030C7
S1135A701BB1637843F002036370D8F80030002B45
S1135A8079D0D8F80030012B82BF637843F001034A
S1135A906370BBF84C0080B201F0C6FE3C4A137838
S1135AA013B93C4B1B7833B16378022643F00803E7
S1135AB0637000231370384B384A93F9003092F91D
S1135AC000203533934254DA0226637843F01003FE
S1135AD0637033494FF4C872A1F5C87005F002F839
S1135AE00023013EDFF8C0C02E4DF6B2002103F1C1
S1135AF032000CEBC0002A68D25CD5F800E0D20971
S1135B0042541EF8032001315200D2B208290EF883
S1135B100320F0D10133322BE8D1236B224898477C
S1135B2048BB4FF08072214B1A60FEF72FFD02F044
S1135B3033F8BDE8F84F01F0F9BE4FF480733B60D1
S1135B4085E7062003F0B0FC114B40F307201B78D7
S1135B5063B115F1800F09D10F4B93F9003003F1B4
S1135B603605A842B8BF284645B2284601F03CFE97
S1135B7075E7002EADD10023C8F80030C9F8003015
S1135B803FE700BF4C0A001000E100E03CC00920E0
S1135B90211A001070160010201A0010881300102B
S1135BA018180010841600108816001080E100E018
S1135BB050040010841300101C1A001070B58EB02D
S1135BC015460C4606463222002101A8FEF718FBB2
S1135BD0312D2A46214628BF31220DF105008DF8CA
S1135BE0046004F07FFF01A90520FEF783FC0EB0DA
S1135BF070BD00002DE9F04F93B001234FF0807287
S1135C00A14CA24D23702B75A14B60741A60102314
S1135C10A04E8146336001F055FD03F0BBFB01F05B
S1135C2061FF01F099FF286803F050FBDFF898A2A8
S1135C30FEF706FC0096A37C994540F09781E38922
S1135C409BB2CBB1642003F0DAFC03F0D1FC47072C
S1135C50FBD4B5F84C100220013989B203F02DFCB5
S1135C60612003F0CCFC03F0C3FC4607FBD56220A3
S1135C7003F0C5FC0023E3811023009ADFF84CB243
S1135C80136001F095FD844ADBF8003033B91368E2
S1135C9023B9E37A13B9A37C9945F5D0062003F020
S1135CA003FC7E4B40F3072018707D4B1870A37CD7
S1135CB0994540F05B81784B774F1B681BB1637843
S1135CC043F002036370E37A03F0FF01002B40F01A
S1135CD01581DBF80030002BADD0342205A8FEF787
S1135CE08FFA2B686F4E059394F83530E3B140F684
S1135CF035416D4A33681268C3F3130301FB032370
S1135D00AA6CA36393423CBF03F1434303F5A0038E
S1135D104FF0040265494FF0050038BFA363FFF755
S1135D204DFF002384F8353040F635405E4AB5F81F
S1135D304C1033681268C3F3130300FB032289B2C7
S1135D405B4802F06DFFB5F84C00302680B201F0DC
S1135D50C5FB4643DFF8788108EB06030193554BF6
S1135D6093F800E05A7899781204D87842EA0E62DF
S1135D70104340EA0120029303F0A8FA58F80660A1
S1135D8046400696C6F3052606F10208B8F1270F29
S1135D9000F3B48008362B2E6DD8029B26F0030244
S1135DA0454913440A689A4202D23A68002AF9D053
S1135DB00427DAF80030612023F00103CAF8003028
S1135DC003F01DFC3B4A7B1C12F807C0D05CBB1CD3
S1135DD012F803E0FB1CD35CB91043EA0C6343EAFA
S1135DE0004040EA0E200392029103F06FFA0299F8
S1135DF012AB03EB810E019B043753F821302C2F97
S1135E0080EA03004EF8300C039ADCD12B69002B96
S1135E1060D11022294B05A81A60A3699847B5F8E8
S1135E204C0080B201F05AFB95F8713083420CD1DA
S1135E3094F83C3094F83D200133DBB29A4284F864
S1135E403C30DCBF002384F83C304FF080761C4BA0
S1135E5005A91E600120FEF74DFB40F635410C4BB1
S1135E60114A1E600F4B1B681268C3F3130301FB36
S1135E700323AB6442E0134A1368D80798D53B6800
S1135E80002BF9D094E700BF4C0A00105004001016
S1135E9000E100E03CC009201C1A00108813001027
S1135EA08A1300106414001008400040840A001093
S1135EB04CB50000E91900100441005038C0092015
S1135EC080E100E0104100502400034084130010DE
S1135ED030AD0000424606A9E86801F069FB12AB48
S1135EE01E44984416F8343C18F82F2C1B0443EA3B
S1135EF0022318F8302C134398428AD0612003F00F
S1135F007EFBDAF80030464A23F00103CAF8003079
S1135F101368590737D440F63541424B424A1B684F
S1135F201268C3F3130301FB0323A96C2A7D8B427C
S1135F3038BF03F14343A2F1020238BF03F5A003C3
S1135F40012A03D8394A5B1A934202D8236C012BE5
S1135F5033D1FFF7FBFC4FF48072002300992364D4
S1135F600A60E27C012A11D1E374A3744FF08072B9
S1135F702F4B1A60FEF70AFB01F00EFE01F0D6FC6F
S1135F8013B0BDE8F08F2B4B1B68C1E7B9F10A0FC2
S1135F90ECD0012364202B7503F031FB03F028FBC4
S1135FA04207FBD4B5F850309BB203B3B5F8503078
S1135FB09BB2A5F84C3001236364E9882C2003F0DC
S1135FC07CFAA9882D2003F078FAE37A0BB1FFF765
S1135FD0DBF9236C002B0DDDFFF79AF9236C013BF1
S1135FE023640023144ACBF80030136023E640F600
S1135FF06213DEE701F076FD01F0AEFD636C3BB1A8
S1136000286803F063F9FEF71BFA00236364E8E7EA
S113601003F0EEFA4307FBD5622003F0F0FAE0E761
S11360200C000340641400100840004080F0FA02A1
S113603080E100E0080003401C1A00102DE9F04F35
S113604097B00021D24EB6F86830A6F84810082B55
S113605006D9482206F16C00A6F86810FEF7D0F8BD
S113606040F63541CB4CCC4A23681268C3F3130382
S113607001FB0323D6F8B4500193AB423FBF03F1B5
S11360804343A3F56513A3F5A2530193019B5D1B41
S1136090C24B9D4240F2C48096F8B83043B942F2F4
S11360A01072B5FBF2F2B6F8683006EB8303DA66D9
S11360B0BB4F97F87280B8F1000F39D142F21079D2
S11360C0B5FBF9F9B6F8BA3001339BB2A6F8BA3089
S11360D006EB8303D86EA0EB090004F0FFFCD6F8AE
S11360E0BC2080B24A440A28C6F8BC2000F29B8037
S11360F096F8C0302BB9B6F8BA1006EB4101A1F8F6
S11361004820B6F8BA10B6F8C220914210D1012244
S113611086F8B82000220133DBB2022BA6F8BA209D
S1136120A6F8682086F8C03039D9022387F872307F
S1136130B6F86830012B32D997F87280B8F1010FA4
S11361402DD142F21073B5FBF3F5306F401B04F010
S1136150C5FC80B20A2822D80022D6F8BC3087F8C1
S113616072201D44B6F86830C6F8BC50013B9BB29F
S1136170012BA6F8BA80A6F8C2300AD186F8B83046
S113618096F8C030A6F8BA200133A6F8682086F83D
S1136190C030B6F8BA3006EB4303A3F8485097F87A
S11361A0723097F87350022B57D196F8C020D6F866
S11361B0BC3003EB520090FBF2F0252380B2123086
S11361C090FBF3F0A6F8C40004F068F80022754BC5
S11361D003F018FF0022744B04F0F0F904F0D6FA2F
S11361E040F635416C4A23681268C3F3130301FB7C
S11361F00323F8832846C6F8C83001F087F904233E
S1136200B081B3720123F372032387F87230604BB9
S1136210B3F868200132A3F86820019AC3F8B420C7
S113622017B0BDE8F08F482241466048C6F8BC80EC
S1136230A6F8BA80FDF7E4FF202241465C48FDF74A
S1136240DFFF012386F8C08087F87230A6F8683033
S113625086F8B880C6F870906AE7284601F056F9C7
S1136260B7F84C309BB2984249D197F87230032B5F
S113627045D140F63541484A23681268C3F31303F5
S113628001FB032342F21071D6F8C82093423CBFAD
S113629003F1434303F5A0039B1AB3FBF1F196F812
S11362A0EC2006EB4202A2F8CC1041F66A02F98B0C
S11362B002FB013343F2D4024A43B3FBF2F3252B2E
S11362C015D940F63541344A23681268C3F31303E1
S11362D001FB032397F87100C6F8C83001F016F9E2
S11362E004230122B08187F87230B372F272012361
S11362F0F37296F8EC30013386F8EC3087E797F8C0
S1136300710001F003F9B7F84C309BB2984251D1B7
S113631097F87230042B4DD140F635411E4A23685C
S11363201268C3F3130301FB0323D6F8C820B6F89D
S1136330CC0093423CBF03F1434303F5A0039B1AF3
S113634042F21072B3FBF2F202442520B6F8C440C4
S113635096F83D106043B2FBF0F400FB142206EB08
S11363604105A5F8EE2041F66A02F88B02FB0033E2
S113637043F2D4024243B3FBF2F3252B84BF05233B
S113638087F8723001231944F37286F83D103EE712
S11363904C0A00106414001008400040F724010067
S11363A0500400100000E43F0000F43FB80A00105D
S11363B0940A001097F87230052B40F0A58100254F
S11363C0B6F8C23096F80F21109396F8EC30AE462A
S11363D0013B1193FB8B96F810A1089397F8733047
S11363E0B6F81241991A099103F125018A1A97F80E
S11363F071102F46C81A2531CB1A0C90294628460D
S11364001292149396F83D2096F81631013A0E93A1
S113641096F81731139296F8148196F8112196F88C
S1136420159186F80E5104930F950D950A95109BBE
S11364309D4280F0E98000230593AC4B252603EBB5
S11364404503159375E0159BB3F84840A74B03EB40
S11364504202B2F8CCB05C4574D9089803F01EFF30
S11364600022A34B03F080FF0022A24B03F07CFF29
S1136470CDE90201204603F011FF02460B46DDE997
S1136480020103F0BDFDCDE90201584603F006FF09
S113649002460B46DDE9020103F0B4FD04F076F98F
S11364A084B2089803F0FAFE0022914B03F05CFFDB
S11364B00022914BCDE9020103F056FFCDE906011C
S11364C0204603F0EBFEDDE9062303F09BFDDDE946
S11364D0022304F073F804F059F9099BC0B2002BAD
S11364E0864BC8BF099A1844D8BF129A90F87C38D2
S11364F0534393FBF6FA06FB1A3A5FFA8AFAAAF1B7
S113650005030B2B10D80027139AFBB29342049374
S1136510764B1BDB012703EB4903A3F818A109F110
S113652001035FFA83F90A9701218E46059B013323
S113653005939DF81420119B9A4284DB0135EDB23A
S1136540012074E7ABEB0404A4B2AAE7049A03EBBA
S11365504203B3F8EE40A34552D9DDE9020100221B
S1136560644B03F001FFCDE90A01584603F096FE9F
S113657002460B46DDE90A0103F042FDCDE90A01BA
S1136580204603F08BFE02460B46DDE90A0103F0C8
S113659039FD04F0FBF884B2204603F07FFEDDE908
S11365A0062303F02FFDDDE9022304F007F804F0CD
S11365B0EDF80C9BC0B2002B504BC8BF0C9A18448A
S11365C0D8BF149A90F87C38534393FBF6F206FB39
S11365D012335FFA83F8D0450ED1444B03EB4903E1
S11365E0A3F81881049B0133DBB20E9309F1010374
S11365F05FFA83F901230F93012301370D9383E796
S1136600A4EB0B04A4B2C7E70A9E384B0EB183F87F
S1136610159109B1A3F812410D9909B183F81481B8
S11366200F9919B19DF8381083F816111FB19DF810
S1136630101083F81711BEF1000F01D083F810A1D8
S113664018B183F8112183F80E5100229646924620
S113665015462B4893F815C1B0F87440B3F85A7135
S1136660B3F85C1193F85E81DFF898B083F8582191
S1136670D6B2B44518D81DB1A3F85C1183F85E8175
S1136680BAF1000F01D0A0F87440BEF1000F01D0A0
S1136690A3F85A710DB183F85861B3F85A31837570
S11366A0062380F87230B2E500253BF8128006EB31
S11366B005095FFA89F9E1450ED38C4226BFB84635
S11366C021464FF0010E47460C4638BFF2460132D0
S11366D00125E0460021CBE705EB02093BF81990C0
S11366E00135C14504BF013189B2E0E74C0A00100D
S11366F00000F43F008042400000E03F34AC000062
S113670050040010640B0010062B7FF480AD96F843
S11367103C2096F816319A427FF479AD0024FB8B25
S113672001225B0813490320BB83BC613C84FFF74F
S113673045FA2521BA7D97F871303C61134493FBE7
S1136740F1F201FB12337B750323022201243B7512
S1136750B372094B1046094986F83540B361FFF717
S11367602DFA22460420064917B0BDE8F04FFFF782
S113677025BA00BF660400107F4300006E040010B9
S11367806504001070B5174D2C6954BB0379012BB7
S113679027D143792BBBC379027A86791B0243EA5A
S11367A00243011D022243EA060000F0D7FE2246FE
S11367B0A86020FA04F3C4F1170103F001030134C3
S11367C08B40182C42EA0302F3D10120EA60064B05
S11367D0064A28619A6106490322BDE87040FFF722
S11367E0EDB970BD500400104C0A00103D6000006B
S11367F05804001030B5134900230A4651F83350A9
S113680001EBC304854203D163680133636030BD87
S11368100133202BF2D14FF0FF3100230C4602EB61
S1136820C3056D68A54201DB002C01DA19462C462C
S11368300133202BF3D1012342F8310002EBC102D2
S1136840536030BDA81400102DE9F04794B04022E5
S11368500746002104A8DFF8B081FDF7D1FC01232D
S113686000244646634D8DF810308DF820308DF8A5
S113687023308DF830308DF832308DF840308DF87B
S113688042308DF84330B8F84C0080B200F026FE58
S113689000224FF07F0E04A92B5C081905EB030CB2
S11368A0815C9CF828C0013381EA0C018154B3FB5C
S11368B0FEF10132C1EBC111102AA3EB0103EDD1AA
S11368C01034402CDFD120244FF07F084A4BEE4691
S11368D00FCB8DE80F0000239C46381904AA02EB65
S11368E00311002202E00132102A07D010F802A09E
S11368F011F80290CA45F6D04EF823C00133042B98
S1136900ECD100235EF82320002A69D10133042B43
S1136910F8D10134B4F53C7FD8D10024374D384F39
S1136920DFF8E88063195B68032B0EDD6059FDF71F
S113693027FD344B0020BB61012304223249C7F8F0
S1136940308030617364FFF739F90834B4F5807F1F
S1136950E8D1012014B0BDE8F08700EB0C033B4400
S1136960032A13F8203C0CDD05EB010A9AF828A051
S1136970013183EA0A03B1FBF8FACAEBCA1AA1EBA4
S11369800A018340013043EA0E0308285FFA83FEBC
S1136990E3D1D9F8003003F802E001320A2A05D025
S11369A04FF0000E04EBC20C7046D6E7D9F8003065
S11369B0D978D9F800309B78D9F800201B04507896
S11369C0D9F8002043EA01631278134343EA002014
S11369D0FFF710FFD9F800100120FDF78BFD98E7B1
S11369E0B6F84C00DFF8289080B200F077FD002262
S11369F0295CD5E734AC0000D8B40000A81400101A
S1136A004C0A00108567000050040010394600004D
S1136A10841600102DE9F0411A4EDFF878803746CD
S1136A20B37C0A2B01D0BDE8F081174CFEF7B8FF08
S1136A30B4F84C30DB0707D596F80F01C4F80C8086
S1136A4000F064FDA4F84C00636C4BB9B4F84C003E
S1136A5080B200F025FF0D4B0A203B63FEF7B0FF28
S1136A60BD7CEDB20A2DDED1042207490020FFF7D8
S1136A70A5F8074B2846BB6100232361FFF7BAF84A
S1136A80CEE700BF4C0A0010500400104968000013
S1136A90856700004115A7002DE9F04F85B000F08F
S1136AA097FF0023684C8DF8083020688DF8093072
S1136AB002F00CFC654E4FF0807280463746644B02
S1136AC01A60030C0193B37C112B06D04FF0807233
S1136AD0604B1A6005B0BDE8F08FF37A0BB1FEF796
S1136AE053FC97F82C30002BEDD0B4F84C00002563
S1136AF080B200F0F3FC4FF07F0A57490DF10B0E02
S1136B000B5C02AA12F805904FF0000207204FF028
S1136B10000C8EF80120CA1892F8282009F0010B05
S1136B208BEA020203F1010BBBFBFAF38240C3EBD5
S1136B30C31342EA0C0210F1FF30ABEB03034FEA3C
S1136B4059095FFA82FCE6D20135022D0EF801CF15
S1136B50D7D147F6FF710D2002F0AFFC42F6223187
S1136B60122002F0AAFC41F24B31142002F0A5FCE1
S1136B7040F6E141202002F0A0FCB4F84C10284675
S1136B8089B202F09AFC0B21052002F096FC402108
S1136B90032002F092FC1421232002F08EFC1FFA41
S1136BA088F12C2002F089FC01992D2002F085FC4B
S1136BB002F01EFD4206FBD5612002F020FD02F02A
S1136BC017FD4307FBD54FF48073244A13608022DA
S1136BD0234B1A600E2002F067FC00F01F000F2800
S1136BE0F8D140F635401F4B1F4AB4F84C101B68CF
S1136BF01268C3F3130300FB032289B21B4802F09B
S1136C000FF8022003A902F06BFC632002F0F7FCEA
S1136C100E2002F049FC00F01F000F28F8D14FF4B9
S1136C208072134B64201A6002F0E9FC02F0E0FC6D
S1136C3010F00400FAD180220E4B1A60012387F869
S1136C402C00FB723FE700BF500400104C0A0010F8
S1136C5000E100E080E100E034AC000038C009202D
S1136C6058C0092064140010084000405FB50000BB
S1136C703CC009205CC0092070B588B0252000F014
S1136C8045FC01AA1546194BA3F84C00184B03F117
S1136C901806144618685968083303C4B3422246D8
S1136CA0F7D11B88134E238000F092FE4FF08072C0
S1136CB0114B124C1A60124B9B7C0C2B05D04FF0DD
S1136CC08072104B1A6008B070BD2A461A213046F3
S1136CD0FEF76CFA236823F07F4303F5A073226860
S1136CE022F07F429342FAD8E5E700BF5004001037
S1136CF0E8B40000D6BE898E00E100E06414001000
S1136D004C0A001080E100E0F0B58BB02D2002F0B9
S1136D10CBFB030A8DF805002C208DF8043002F01B
S1136D20C3FB030A8DF806308DF8070000F0CAFC97
S1136D3000F04EFE02F05CFC4106FBD5612002F03F
S1136D405EFC02F055FC4207FBD510228021134C57
S1136D5002252260124A134F11604FF48071124EC3
S1136D6011600E2002F0A0FB00F01F000F28F8D1E4
S1136D70622002F044FC3D6002F03AFCC306FBD5FD
S1136D8002A92560202002F0EFFB01A90020FDF7F5
S1136D90B1FB306800F0F8FCE3E700BF38C009201D
S1136DA058C009203CC009206414001008B52020F4
S1136DB002F07AFB08B1FFF7A7FF0322024B1A7017
S1136DC0BDE80840FEF7CABB4C0A00102DE9F041AB
S1136DD01023354D2D206E7C6B7402F065FB8046CC
S1136DE02C2002F061FB314C074621882D2002F053
S1136DF064FB61882C2002F060FB5721032002F021
S1136E005CFB41F24B31142002F057FB40F66171F8
S1136E10202002F052FBA188022002F04EFBE1790F
S1136E200520F6B202F049FB02F0E2FB4106FBD575
S1136E30612002F0E4FB02F0DBFB4207FBD54FF4D8
S1136E4080721B4B1A6080221A620E2002F02CFB07
S1136E5000F01F000F28F8D1A079164902F040FB7A
S1136E60632002F0CCFB0E2002F01EFB00F01F009A
S1136E700F28F8D14FF480720F4B64201A6002F08F
S1136E80BEFB02F0B5FB4307FBD480220B4B41460B
S1136E901A602D2002F011FB39462C2002F00DFB64
S1136EA0AE74BDE8F08100BF4C0A001068140010F5
S1136EB038C00920701400103CC009205CC00920AF
S1136EC02DE9F0478EB010223C4B1A6000F0FAFB1B
S1136ED000F07EFD80223A4B42F622311A601220E5
S1136EE002F0EBFA41F24B31142002F0E6FA40F2E0
S1136EF00111202002F0E1FA2921032002F0DDFA39
S1136F0002F076FB4106FBD502F072FB10F004049C
S1136F10FAD1DFF8B490DFF8B48099F81230042B7A
S1136F2005D01022274B1A600EB0BDE8F087B8F8E0
S1136F305250DFF89CA0ADB2B8F854309BB2AB42CB
S1136F40EBDB691E022089B202F0B7FA612002F07D
S1136F5056FB02F04DFB4207FBD5622002F04FFBCB
S1136F604FF4FA730093009E013E0096002EFAD16E
S1136F7004EB44070EAB1F4406202B0A07F8343CED
S1136F8007F8335C02F090FA0134E4B2000A102CE2
S1136F9007F8320C08D101A90420FDF7ABFADAF89E
S1136FA0000000F0F1FB3446642002F028FB02F0FC
S1136FB01FFB4307FBD40135ADB2BDE738C0092040
S1136FC058C009203CC009204C0A0010500400108D
S1136FD064140010F0B585B040F66C13ADF80830B9
S1136FE040F68513ADF80A3040F69E138022ADF8C2
S1136FF00C303F4B42F622311A60122002F05DFA47
S113700041F24B31142002F058FA40F201112020D1
S113701002F053FA2921032002F04FFAF12106204D
S113702002F04BFA02F0E4FA4106FBD502F0E0FA72
S113703010F00404FAD12F4F2F4D304EBB7C072B98
S113704001D005B0F0BD04AB03EB440333F8081CD6
S11370500220013989B202F030FA612002F0CFFA3D
S113706002F0C6FA4207FBD5622002F0C8FA4FF4D8
S1137070FA730193019B013B0193002BFAD1062083
S113708002F012FA1E4B40F3072093F856305BB21D
S1137090984220DD012C1AD015D3022C19D00323D9
S11370A0013494FBF3F303EB4303E41A154BE4B20A
S11370B0186800F069FB642002F0A1FA02F098FA63
S11370C04307FBD4BAE74FF480733360E7E7102338
S11370D0FBE73460E3E7012C08D003D3022CDED1B4
S11370E02C60DCE74FF480732B60D8E71023FBE7B8
S11370F058C009204C0A00103CC0092038C009209F
S1137100500400106414001008B502F035FB00F0C0
S113711065FC464800F0B0FA454DFDF737FA00F03B
S113712071FC002001F01EFD4249434801F078FD46
S11371302C46424E306800F027FBAA7C6B7C9A42B6
S1137140F8D0AB7C112BF5D801A252F823F000BF84
S113715025720000AF710000B3710000D37100000C
S1137160FD710000E1710000F17100000372000084
S1137170BD71000035710000C171000099710000FB
S1137180C771000009720000A571000015720000AB
S11371901F720000CD710000012002F0B1F802F06E
S11371A0F5FAC7E70E236374FEF7D8F9C2E70123A3
S11371B0F9E702236374FEF789FABBE70823F2E7D1
S11371C0FFF728FCB6E7FFF757FDB3E7FFF764FCCA
S11371D0B0E703231A492846637401F025FAA9E7A6
S11371E005231748637401F017F80023A374A1E77B
S11371F006231348637401F059F99BE7FFF760FE17
S113720098E7FFF7E7FE95E70D236374207D01F00F
S11372106BFC8FE70F236374FFF7C8FD8AE7FFF762
S1137220D5FD87E7FDF7B2F984E700BF51470000B9
S11372304C0A0010DBAC00006FB5000064140010B1
S11372409C0400102DE9F04300200021454A464CDF
S1137250C2E900014F2500222046444B1B6856001A
S113726096FBF5F105FB1161115501324F2AF6D158
S11372703F4AC3F3C45111703E4AC3F3C341C3F33D
S11372808707C3F347061170C3F30715C3F3C70198
S113729006F0020207F00404144301F0080E05F09E
S11372A0100242EA0E02144403F001021444324A6A
S11372B001F004011470314AC3F38824148007F0E8
S11372C00207DA099C0902F0400204F02004394361
S11372D006F001065B092243314403F0100305F074
S11372E008050A442B431344254A1370254B1B7885
S11372F063B30022244F13463E4600250021D45D8B
S113730054EA050C5FFA81FE01F1010120D101323A
S113731073440A2ADBB2F0D11C4A4F2513700023B0
S1137320194693FBF5F205FB1232D7B2FC08345D23
S113733002F0070244FA02F2D20748BF4A1C03F1E2
S1137340020344BF4754D1B29E2BEAD1BDE8F08377
S113735014F1FF3845F1FF3904EA080405EA090588
S1137360CEE700BF781600108D1A0010281A0010FE
S11373708B1A0010381A00108C1A00103A1A0010D8
S1137380DC1A0010AB1900108B13001089130010C5
S11373902DE9F04186B0464B464C1E884F2304EA43
S11373A0D004B4FBF3F203FB1241434BC0F3400E91
S11373B01A78424B86EAD0161B7882EA104283EA96
S11373C0505303EB90003E4B4FEA4E171B78BDB26F
S11373D058400023A7EB0E0702F01F027A40C6F3C1
S11373E0080600F01F0002AF46FA03FE0EF0010E7D
S11373F003F807E00133092BF6D1002307EB030E52
S113740042FA03F6013306F00106052B8EF80960F3
S1137410F4D1002240FA02F303F001030DF8023024
S11374200132052AF6D10D22264E06F10E0EBB5C62
S11374307BB1905D06AB184412F80E300DF11808BC
S1137440434410F818CC13F8188C00F8188C03F87F
S113745018CC12F1FF32EAD2002210461DF8003097
S1137460834001301A440528D2B2F7D1164B1B7859
S11374709E184A194F213244B2FBF1F301FB132247
S1137480124B985C124B1B786BB1124B1978B4FBFE
S1137490F1F301FB13432B443344B3FBF1F201FB3F
S11374A012330D4AD05C00F6621006B0BDE8F081DC
S11374B03A1A0010F0FFFF018C1A00108B1A00100A
S11374C0381A00108CB50000DC1A00108D1A001058
S11374D0AB190010891300103C1A00100223A0F607
S11374E0621090FBF3F083B253B10B2B02D8013836
S11374F0C0B270470C2B05D0262B05D80238F7E70D
S11375002520704726207047272070470A2803D873
S1137510400000F664107047242803D8400000F6A9
S113752066107047252806D0262840F67A1018BF22
S11375304FF41B60704740F66210704710B5417DF0
S113754002460846FFF7E2FF2524937D0B4493FB94
S1137550F4F104FB1133537510BD0000F0B503467C
S1137560124E013A002A0EDA0022104623FA02F1E2
S1137570C2F1170401F001010132A140182A40EAC6
S11375800100F3D1F0BD07248F5C47FA04F0DD0D50
S113759000F001005B0023F07F436840034305B122
S11375A0734014F1FF34F0D2013ADBE700C0B400B9
S11375B030B50C46074D20F07F40631A9A4200DC38
S11375C030BD14F8013B4340DBB255F8233083EA65
S11375D01020F2E7C804001051F8203043B9D1F864
S11375E0BC20B0FBF2F302FB1300014491F89400B9
S11375F07047000013B543881268ADF800308388E3
S1137600ADF80230C3884078ADF80430044B1C68F0
S11376100B466946A047431E5842584102B010BD6C
S1137620E43B001070B586B001AD044669462846B7
S113763002F0E2F89DF80430DBB920461E461C46F1
S11376400133EA5C80F87D601109092902F00F0218
S11376508CBF57313031092A8CBF57323032102B4E
S113766080F87C1080F87E2080F87F4000F10400D0
S1137670E6D106B070BD000038B505460C4C02F0EA
S11376808FF92046FFF7CEFF204602F0C9FB094BD5
S1137690094A0A4902201D6002F078F90849FF20CE
S11376A002F0A8FB012002F012FA002038BD00BF4E
S11376B0C8080010E43B0010E03A0010F575000023
S11376C0A8B500000021044B4FF400520348196090
S11376D05960FCF795BD00BFB40B0010E01A001010
S11376E010B50A4A1468536804F07F0003F07F035E
S11376F0591C01F07F0188421FBF516804480131C1
S113770000EB831014BF5160002010BDB40B0010B7
S1137710E01A0010084A1368516803F07F0301F06F
S11377207F018B421FBF11680448013100EB8310B5
S113773014BF116000207047B40B0010E01A001051
S113774037B50546FFF7E6FF0D4B044640B1014649
S1137750402282209D6002F0EBF9012003B030BD8D
S11377609A680849AA1A8A4208D9032202A901F888
S1137770012D822001229D6002F0DAF92046EDE716
S1137780B40B0010801A060038B50446822002F0BB
S1137790A9F98206054602D42046FFF7D1FF6B06FD
S11377A002D42046FFF7CCFFBDE8384002F028BAE7
S11377B008B59E2200210748FCF722FD0023064A53
S11377C01370064A13608022054B1A707F22054B02
S11377D01A7008BDC00B0010AA190010E83B001075
S11377E0881300108A1300100B4A92F90030834268
S11377F0B8BF03461370094A92F900308342A8BF08
S113780003461370064A136803EB00231360054A0A
S11378101378013313707047881300108A13001013
S1137820E83B0010AA19001010B540F66213B0F539
S11378301B6F38BF18460D4BA0F662101B7823B19E
S11378400B4A1268803292FBF3F3FD24094903EBDF
S1137850430331F9102004FB02334FF48072803368
S113786093FBF2F321F8103010BD00BFAA190010E9
S1137870E83B0010C00B001040F66213B0F51B6F1C
S113788038BF1846054BA0F6621033F910004FF4C8
S11378908073803090FBF3F040B27047C00B00104F
S11378A038B5134D95F90040002C05DDFFF7E4FFD2
S11378B02C78363C044464B26FF077008442B8BF3D
S11378C004466FF013008442A8BF044604F1380153
S11378D041F00301C9B2062001F0EFFD054B14F19C
S11378E0770F1C70ACBF00240124034B1C7038BDFF
S11378F0AC190010201A0010701600100022074B5B
S11379001A704FF40012064B1A600422054B1A60D9
S1137910054A136843F0040313607047211A0010EA
S113792000E100E0AC800240B4800240074A1368E2
S113793023F0040313600422054B1A604FF4001271
S1137940044B1A600022044B1A707047B480024042
S1137950AC80024080E100E0211A001008B5FFF776
S1137960E5FF0022034B1A708823034A1370034A6D
S1137970137008BD70160010AC190010201A001006
S113798002220A4B1A600023094A1360094A136051
S1137990094A1360094A1380094A1380094A13806B
S11379A0094A1360094A1360704700BF044000404D
S11379B06414001080130010981300107216001045
S11379C0A8190010601400105C140010E0190010D5
S11379D00122014B1A6070470440004008B5FFF7CC
S11379E0CFFF0422054B1A6040F63442DA600122CC
S11379F09A600222024B1A6008BD00BF0C4000408E
S1137A0000E100E0114A136843F0005313604FF0A3
S1137A1080620F4B1A6000230E4A136013621364D2
S1137A201366C2F88030C2F8A030C2F8C030C2F881
S1137A30E030FF23A2F58472136093600122064BA9
S1137A401A601A68D207FCD5704700BFC4C00F4043
S1137A5000E100E0104100503040005030B50123F7
S1137A60134A14481360144C93601449144B154A78
S1137A70154D146093605160D0609A60134A5D6044
S1137A801C60D8601460516093604DF20602104B84
S1137A9018605A6000220F4802600F4802600F4AC3
S1137AA011600F4A15605A6842F001025A6030BDF5
S1137AB0084000503290008808000340E919001083
S1137AC09C3C0010AC3C0010AD190010004100506B
S1137AD00C410050841300101C1A0010A414001050
S1137AE08416001030B50123134A144D13609360BB
S1137AF00022134B134C144904EB82000A2A43F866
S1137B000C0C14BF1846002001320B2A43F8105CF9
S1137B1003E9030003F11003EED10C4B0C4A19687E
S1137B2011605968516099689160DA68094B1A606C
S1137B304DF206025A6030BD084000500800034070
S1137B40FC3B0010E919001004100088EC3B001005
S1137B50004100500C4100504FF080520A4B0B4939
S1137B601A600B6843F001030B6051F8203C43F0AA
S1137B70020341F8203C06490B6843F001030B6003
S1137B80044B1A60704700BF98C0092024000340CA
S1137B90104100509CC009204FF080520A4B1A60DB
S1137BA00A4A136823F00103136052F8203C23F0BF
S1137BB0020342F8203C0022054B1A600123054AC7
S1137BC013609360704700BF98C0092024000340ED
S1137BD0104100500840005030B50C4B0C490D4A80
S1137BE00D4803F110044D1CDA60186059609C6064
S1137BF01861DA615D619B61084B186059609C6093
S1137C00DA604DF206021A6130BD00BF600C00104C
S1137C10FC3C0010010000800800034000410050BB
S1137C20034B044A1860136843F001031360704760
S1137C301880004014800040054B064A1B681E3320
S1137C40136052F80C3C43F0400342F80C3C70477C
S1137C50088000402080004010B5054C4FF4E472C9
S1137C60002104F12000FCF7CBFA024B236210BD83
S1137C70600C0010D6BE898E70B500234FF4927547
S1137C80124C04F5F47105FB03F28E18D6F81801B2
S1137C90B8B100251444C4F80053C4F8F052C4F831
S1137CA0EC524FF4827229463046FCF7A9FA7F233E
S1137CB084F804338023C4F8085384F80533304629
S1137CC070BD0133042BDED170BD00BF600C001009
S1137CD010B51B4B186A01F0F9FA044647F6FE7119
S1137CE00D2001F0EAFB42F62231122001F0E5FBFF
S1137CF041F24B21142001F0E0FB44F2E141202049
S1137D0001F0DBFBA1B22C2001F0D7FB210C2D20CC
S1137D1001F0D3FB0B4B02201988013989B201F021
S1137D20CCFB4021032001F0C8FB01F061FC4306B9
S1137D30FBD5612001F063FCBDE81040FFF77CBF78
S1137D40600C0010EC3C001070B5642001F057FC8E
S1137D50284A13681C3A23F00103D361264B1C689C
S1137D6014F0040430D1254D4FF48272D5F87866AE
S1137D702146C6F80841C6F804413046FCF740FAEB
S1137D807F2386F81C318023C6F8204186F81D31F4
S1137D90FFF722FFFFF7E0FE2A6A194B9A4217D138
S1137DA040F67A12174B1B889BB293420ED0B3F560
S1137DB01B6F0CBF27202520FFF7A8FBBDE87040F0
S1137DC0114B1880FFF784BF1168C8E72620F3E73A
S1137DD0252295F82C0095F82D3005F14001034437
S1137DE093FBF2F002FB1030C0B285F82C00FFF7D1
S1137DF0F3FBE1E7240003400C000340600C001097
S1137E00D6BE898EA0040010EC3C001038B52A4A76
S1137E102A4B5068022806D114680121C3F8004196
S1137E20C3F804111EE001280BD1D3F8041141B1A9
S1137E30D3F800111D6B146829441E31091B3B291A
S1137E40EBD9D3F8041139B91168C3F800111C49EE
S1137E500968C3F8081105E0D3F800111C6B21442C
S1137E60C3F80011164C10B12168C3F808110021A1
S1137E7051609160B3F80C21D3F808010132A3F8E2
S1137E800C212268121A586B824205D9FFF7E4FECE
S1137E90BDE83840FFF758BF0A4A106808B11160BE
S1137EA0F4E7D3F800011B6B1844A0F6B830BDE822
S1137EB03840FFF7B5BE00BFF03C0010600C001066
S1137EC008800040740A0010F8B5694800F0A8FE64
S1137ED0684D694B2F681B68DE0749D5674B1B68E3
S1137EE0DC073ED50123664E0620336001F0DCFA40
S1137EF0644C40F30720D4F8783693F91C21D3F866
S1137F002011824293F91D21C8BF83F81C018242CB
S1137F10D3F808210144B8BF83F81D015A48C3F8B7
S1137F20201102F00101415C99540132012AC3F885
S1137F3008211ED15549A7F5C8770A88088892B246
S1137F40C3F81021226AC3F80C71C3F8142180B25B
S1137F50FFF7C4FA242804D84D4A136823F0010318
S1137F6013604C4B1B68DB0742BF01224A4B1A606B
S1137F70F8BD022A2ED1B3F810015E78FFF7AEFAED
S1137F807F270021454D2B5CAE460833B3FBF7F247
S1137F900846C2EBC2129B1AC0F1070246FA02F26B
S1137FA002F001050EEB030292F8282001336A4027
S1137FB0B3FBF7F582400130C5EBC5150A43082829
S1137FC0A3EB0503D1B2E7D1D4F878360531C3F871
S1137FD00411C6E7C5D9D3F804319A42C1D361204C
S1137FE001F00DFB00222E4B2E491A6001232E4A6C
S1137FF033601368183A23F0010393611368580738
S113800026D4D4F87816294800F0F8F81F4B1888BD
S113801080B2FFF763FA24280FD8254A5368013346
S1138020012B536016D1D4F87836D3F80C31136091
S1138030286800F6B830FFF7F3FDFFF71DFEC4F81B
S11380407806FFF7C9FDFFF787FDFFF7F5FD88E721
S11380500B68D3E7022BF0D1642001F0D0FAFFF7CC
S11380600BFEC4F87806BDE8F840FFF7CFBE00BFAA
S113807076B60000088000400040005004400050E4
S113808008400050600C0010FC3C0010EC3C001058
S1138090148000400C40005010400050CFB5000048
S11380A0104100500800034024000340BC3C001071
S11380B0F03C001038B5494B1A68D0075AD5012155
S11380C01960474B474DD3F810211C4692B3B3F8BF
S11380D00C01B3F81C2190422CD1AA6862B9D86B68
S11380E050B1D3F800211B6B1044A0F6B8301844EB
S11380F0FFF796FDA96038BD0123AB600023D4F8D7
S11381001401C4F80431C4F81031D4F800312063E8
S1138110184400F5A540E36B5030184494F8383007
S1138120D4F8182118446263FFF77AFDBDE838409B
S1138130FFF70ABED4F8203173B1B4F80C21B4F8B7
S113814024319A4208D12849C022A1F1E80002F062
S1138150C9FC0023C4F82031AB68002B35D10123BE
S1138160AB60224B186800F5BD400830FFF758FD9E
S1138170FFF7EAFD194B1A6891070DD502221C4935
S11381801A600B6823F008030B604FF48071194BDD
S11381901960102119601A60104B1A6852071BD518
S11381A004221A6001F024FA430711D5622001F079
S11381B026FA8022104B1A604FF480721A600C4A1F
S11381C0136823F04003136038BDFFF71FFED1E7A7
S11381D0BDE83840FFF730BD38BD00BF0080004027
S11381E0600C0010F03C0010880D00100880004066
S11381F0148000403CC0092058C00920C36A826A28
S113820001330A2B28BF002393421DBF40F82310DB
S1138210C3620120002070472DE9F04798B000AFF9
S1138220152387F83030002387F831303A23BB60B8
S1138230984B82461B6807F11C0107F10800C7F838
S113824004D098473B7F002B40F020813B6A42F6E4
S113825022311A0E87F832201A0C87F8332087F857
S113826035301A0A7B6A87F834201A0E87F83620CC
S11382701A0C87F8372087F839301A0ABB6A87F84E
S113828038201A0E87F83A201A0C87F83B2087F812
S11382903D301A0AFB6A87F83C201A0E87F83E2004
S11382A01A0C87F83F2087F841301A0AFF2312205E
S11382B087F8402087F8443087F8453001F0FDF80E
S11382C041F24B31142001F0F8F840F6F15120202E
S11382D001F0F3F8BAF80010022089B201F0EDF8C9
S11382E04FF6AE112D2001F0E8F841F284512C2014
S11382F001F0E3F80821052001F0DFF8292103202B
S113830001F0DBF801F074F94206FBD5612001F0BD
S113831076F901F06DF94307FBD54FF480725E4B9B
S11383208021002498461A605C4A07F130051160E8
S1138330E6B246F00801052001F0BFF887F8426074
S1138340002687F843600E2001F0AEF800F01F000D
S11383500F28F8D14FF0000915F80910702009F121
S1138360010901F0B8F8B9F1160FF5D1632001360F
S113837001F045F9102EE4D10134082CD8D10E2097
S113838001F092F800F01F000F28F8D14FF4807329
S1138390434C6420236001F032F901F029F94607C7
S11383A0FBD4BAF800100220013989B201F085F833
S11383B001F01EF94006FBD5612001F020F901F01F
S11383C017F94107FBD5102307F14806C8F8003018
S11383D00E2001F069F800F01F000F28F8D1622088
S11383E001F00DF901F004F9C206FBD502234FF0A8
S11383F00009C8F80030702001F064F806F809009C
S113840009F10109B9F1160FF5D101F0F1F80307EB
S113841002D402232360DBE70E2001F045F800F0CC
S11384201F000F28F8D1642001F0E9F801F0E0F80A
S113843010F00400FAD180221A4B1A601023236032
S113844097F85A10184B0122597097F85B101A705C
S1138450997097F85C1087F83120D97097F85D10FF
S11384601971014616F801C015F801E0F44518BF6A
S11384708A1C01F101011CBFD2B201201229F1D1E1
S113848000B11A7002232360D7F804D06037BD46C8
S1138490BDE8F087E0B6000038C0092058C00920C4
S11384A03CC009205CC00920E41900102DE9F04FFC
S11384B087B0DFF870A181460225D34642F6223107
S11384C0122000F0FAFF41F24B31142000F0F5FFC6
S11384D0B9F800100220013989B200F0EEFF4FF61E
S11384E0AE112D2000F0E9FF41F284512C2000F060
S11384F0E4FF0821052000F0E0FF2921032000F01B
S1138500DCFF01F075F84106FBD5612001F077F836
S113851001F06EF84207FBD51023CAF800304FF47F
S113852080733E4C8022274623603D4B25601A60B1
S11385300E2000F0B9FF00F01F000F28F8D13D60B5
S1138540622001F05CF801F053F8C306FBD5002665
S1138550CBF80050702000F0B5FF0DF8060001368E
S1138560162EF7D101F044F80607E1D51023256053
S11385706420236001F043F801F03AF84007FBD48B
S113858001F036F84106FBD5B9F80010022089B293
S113859000F093FF01F02CF84206FBD5612001F0B6
S11385A02EF84FF48073CBF8003015238DF800308B
S11385B0012300268DF80130F7B247F008010520A9
S11385C000F07BFF8DF8147000278DF815700E20D5
S11385D000F06AFF00F01F000F28F8D14FF00008E8
S11385E01DF80810702008F1010800F074FFB8F1BC
S11385F0160FF5D16320013701F001F8102FE4D1F3
S11386000136082ED8D14FF480736420236000F023
S1138610F6FF00F0EDFF4307FBD44FE73CC0092011
S113862058C0092038C0092038B503780D468BB3EB
S11386300378012B2DD1402442F62231122000F080
S11386403CFF43F24B31142000F037FF40F6F15168
S1138650202000F032FF2988022089B200F02DFF8B
S11386602146032000F029FF00F0C2FF4206FBD59B
S1138670612000F0C4FF00F0BBFF4307FBD54FF4BB
S11386808072054B63201A6000F0B9FF8022034B0F
S11386901A6038BD2924CFE738C0092058C0092002
S11386A04FF08052034B1A60034A136823F002030D
S11386B01360704798C009200400034010B5064CAD
S11386C00649431E233022685207FCD50A6803F882
S11386D0012F8342F7D110BD0C0003400800034072
S11386E010B540F63544074B074A1B681268C3F3BC
S11386F0130304FB0323836042F210735943C160E4
S113870010BD00BF641400100840004040F635411D
S11387100A4B0B4A1B681268C3F3130301FB0323C0
S11387208268C06893423CBF03F1434303F5A0034E
S11387309B1A834234BF0020012070476414001048
S11387400840004070470000002340F66812436070
S1138750024B1A8001230370704700BF9C04001071
S1138760012303707047000030B58BB02822044603
S113877000216846FBF744FD40F635411A4B1B4A7D
S11387801B681268C3F3130301FB032320460993F8
S1138790FFF7BCFF28B104212046FFF7A1FF032304
S11387A0237000F025FFC30612D51025104B684630
S11387B01D60FFF783FF099A69460620FCF782FBD8
S11387C00C4B06211D602046FFF78AFF032323700C
S11387D02378022B06D0642000F011FFFFF760FF1E
S11387E0012323610BB030BD641400100840004025
S11387F038C009203CC0092010B547F6FF71044673
S11388000D2000F05AFE42F62231122000F055FEEF
S113881041F24B31142000F050FE4FF498612020B7
S113882000F04BFE1D4B02201988013989B200F07B
S113883044FE2621032000F040FE0321212000F005
S11388403CFE46F20F312D2000F037FE49F6FE7152
S11388502C2000F032FE00F0CBFE4206FBD54FF098
S113886080520F4B0F491A600B68612043F00203DA
S11388700B600D4B1A6000F0C2FE00F0B9FE430716
S1138880FBD50E2000F010FE00F01F000F28F8D1D9
S1138890622000F0B4FE0223237010BD9C0400107B
S11388A098C00920040003409CC0092010B547F675
S11388B0FF7104460D2000F000FE42F62231122022
S11388C000F0FBFD43F24B31142000F0F6FD4FF4B1
S11388D09861202000F0F1FD1A4B0220198889B21A
S11388E000F0EBFD2621032000F0E7FD0321212009
S11388F000F0E3FD0F21052000F0DFFD00F078FE1D
S11389004206FBD5612000F07AFE00F071FE4307B9
S1138910FBD50E2000F0C8FD00F01F000F28F8D191
S11389208022094B63201A6000F069FE4FF48072C4
S1138930064B1A6005232370A369A36044F62063E1
S1138940E36010BD9C04001058C0092038C0092001
S113895010B50446FFF7DAFEA8B1636807210133B6
S11389605A4202F0030203F0030358BF5342064A7B
S1138970636032F81320054B20461A80FFF7B0FEDF
S113898001232361237010BD8CB600009C040010E9
S113899010B50446FFF7BAFE30B1012323702361FA
S11389A0A369A360014BE36010BD00BFB0AD01003B
S11389B010B50446FFF7AAFEF8B1642000F01FFECC
S11389C080220E4B1A604FF4807243F8202C6368A7
S11389D001335A4202F0030203F0030358BF534227
S11389E0074A636032F81320064B1A80032323706E
S11389F0A369A3604EF66023E36010BD5CC0092048
S1138A008CB600009C04001010B5044600F0F0FD84
S1138A10C3060ED504232370012340F63541636158
S1138A20104B114A1B681268C3F3130301FB0323A1
S1138A30A36123695BB12046FFF768FE38B10423C4
S1138A40237000230B2163612046FFF749FE23783E
S1138A50022B06D0642000F0D2FDBDE81040FFF7E1
S1138A601FBE10BD641400100840004010B58AB049
S1138A70282200216846FBF7C3FB40F63541164B1C
S1138A80164A1B681268C3F3130301FB03230993FB
S1138A9000F0AEFDC2061DD51024114B68461C60C3
S1138AA0FFF70CFE099A69460620FCF70BFA0D4BFA
S1138AB061201C6000F0A3FD00F09AFD4307FBD584
S1138AC00E2000F0F1FC00F01F000F28F8D1622006
S1138AD000F095FD0AB010BD641400100840004079
S1138AE038C009203CC0092030B589B004461C2296
S1138AF0002101A8FBF784FB012C144D06D016D3EA
S1138B00022C16D000232B7009B030BD104C4FF04E
S1138B108072104B1A6000F03DFC2B780D2B0AD1AB
S1138B209DF8043001A854F823309847F5E70A4C1F
S1138B30EDE70A4CEBE7642000F061FDFFF7B0FDC0
S1138B404FF08072064B1A60DEE700BF5E0A001029
S1138B50B0B6000000E100E094B60000C8B6000022
S1138B6080E100E0284A0B21136843F010031360EE
S1138B708322264B1A60264A043311600021516077
S1138B80D321916253F8042C22F0800243F8042C80
S1138B90002836D0C0221A6009221E4B1A601E4AD1
S1138BA01368043223F0404343F0804342F8043C0A
S1138BB0D36B23F04043D363136823F0030343F0E0
S1138BC001031360154B196821F003011960B8B152
S1138BD0116821F00C0141F004011160196821F0C1
S1138BE00C0141F008011960116821F4405141F46D
S1138BF0805111601A6822F4405242F400521A6003
S1138C0070471860C8E700BFC4C00F400C000140A3
S1138C10000001400800014000C0024044C002407E
S1138C200FB437B5134B1D68FDB90122124C1A60FD
S1138C30FF2107AB069A2046019300F0F3FA204681
S1138C4084F8FF5001F0C4FF0C4B0D4A1C605A60BD
S1138C504CF68022C0F30B0040F004409D60D860C5
S1138C601A611A6942F001021A6103B0BDE830408A
S1138C7004B07047DC120010FE3C0010E0410050CC
S1138C80000001402DE9F84F0027804689469346AD
S1138C9001240025D2F810A0D66822462B4640466F
S1138CA0494601F093FDB94208BFB04208D20026FC
S1138CB054EA05030CD100238AF80030BDE8F88F8C
S1138CC004FB07F306FB0533A4FB06451D44E4E758
S1138CD022462B464046494601F078FD22462B4663
S1138CE049460746404601F071FD20462946904614
S1138CF09946DBF80C20002301F068FD04460D467C
S1138D0026B9002F02DC54EA0503D1D1092F0AF158
S1138D1001020CDD9BF8003013F0040F14BF37235D
S1138D2057231F448AF8007001369246C0E7302367
S1138D30F7E7F0B501230A69CC68B0FBF3F5A54267
S1138D4003D200261BB91370F0BD6343F5E7B0FBF3
S1138D50F3F5CC6803FB1500B3FBF4F31EB9002D47
S1138D6001DC002BEED1092D02F101070ADD0C789C
S1138D7014F0040F14BF372457242C441470013604
S1138D803A46DFE73024F8E7F0B501230A69CC68F6
S1138D90B0FBF3F5A54203D200261BB91370F0BD56
S1138DA06343F5E7B0FBF3F5CC6803FB1500B3FBB5
S1138DB0F4F31EB9002D01DC002BEED1092D02F1D4
S1138DC001070ADD0C7814F0040F14BF372457246C
S1138DD02C44147001363A46DFE73024F8E72DE9D5
S1138DE0F04106460F4615465468136913F8012BE3
S1138DF0002A44D12B7A002B45D12B78990703D52F
S1138E00EA68102A41D1023C13F0090F08D1A046A8
S1138E10B8F1000F3EDC631E002CB4BF1C461C1BC3
S1138E20297A09B13046B8472B789A070DD5EB68F3
S1138E30102B35D130213046B8472B7813F0040F6E
S1138E4014BF582178213046B8472B78DB0708D562
S1138E50A046B8F1000F27DC631E002CB4BF1C46EB
S1138E601C1BD5F8108018F8011B19BB2B7803F0D4
S1138E700903082B01D1002C1FDCBDE8F081002C74
S1138E80B8DD013CB2E7013CB7E7082A08BF04F1AA
S1138E90FF34B9E720213046B84708F1FF38B7E777
S1138EA0082BD2D13021CEE730213046B84708F123
S1138EB0FF38CEE73046B847D5E720213046B847DB
S1138EC0013CD8E78368026893423CBF4268D154AE
S1138ED083680133836070472DE9F0478CB0804686
S1138EE089461C4606AE05961578571C15B90CB074
S1138EF0BDE8F087252D08D00A2D02D10D2140466A
S1138F00C84729464046C84796E00022964611467F
S1138F109446104692469DF80430029203F0FC03F6
S1138F2062F3C3038DF804308DF80C203D4615F828
S1138F30013B002B49D128B19DF804006AF3C3001A
S1138F408DF8040029B19DF804106CF300018DF82C
S1138F5004102AB19DF804206EF341028DF8042018
S1138F60A3F13002092A0FD800210A20A3F130020C
S1138F70D7B2092F39D9A3F16102052A3AD8A3F14E
S1138F8057020A2A31DD02912E2B0BD19DF80430B1
S1138F9043F001038DF8043015F8013BA3F13002CE
S1138FA0092AF9D97A2B2CD12B786F1C692B0AD07A
S1138FB000F2DD80582B00F0E38031D9632B00F000
S1138FC0C180642B38D101237CE02D2B06D0302BBB
S1138FD008D0232BAFD10122964601E0012082461E
S1138FE02F46A3E701218C46FAE700FB012115F87F
S1138FF0013BBBE7A3F14102052AC4D8A3F1370220
S1139000BFE76C2B40F0CC802B786C2B40F0AD800C
S11390106B78AF1C692B54D010D8582B1CD006D8B1
S1139020002B3FF464AF252B00F09D8004E0632BFC
S113903000F08880642B44D03A4655E7732B00F047
S1139040878005D86F2B6ED0702B00F0C580F3E7B6
S1139050752B14D0782BEFD11022A3F158009DF872
S113906004104342434163F38201E31D049223F05D
S113907007030CAA02F82C1D03F108040AE00223DA
S11390800A22022B04920DD1E31D23F0070303F1FE
S1139090080401AAD3E900012AE00123F0E72F46DE
S11390A00023EDE7012B01A9206804F1040536D162
S11390B0FFF73FFE2C4601AA49464046FFF78FFEC4
S11390C0BAE702230A22022B049214D1E31D23F0EF
S11390D00703D3E90001002803F1080471F1000338
S11390E005DA2D23404261EB41018DF80C3001AAD1
S11390F0FFF7C8FDDFE7012B206804F1040507D161
S11391000028BEBF2D2340428DF80C3001A9CFE7C3
S11391100028BEBF2D2340428DF80C3001A9FFF773
S113912033FEC7E72F46082301A920680493FFF7FD
S11391302BFE01AA49464046251DFFF750FE2C464A
S11391407AE72F4621784046251DC847F7E72F4682
S1139150236801AA494640460593251DFFF73FFEB3
S11391600596ECE72F462521CCE66F1C1EE7732BF2
S1139170EED07FF667AF752B8FD0782B7FF45CAF82
S11391801022A3F158014B4204929DF804204B4154
S113919063F382020CA901F82C2D251D206887E7B2
S11391A0692B0ED010D8582B2FD006D8002B3FF4A3
S11391B09EAE252BD6D02F463EE7632BC1D0642B21
S11391C0F9D12F4600237DE7732BC0D018D86F2B1D
S11391D0A8D0702BEFD12F4610223D469DF80430C5
S11391E0049243F002036FF382038DF80430206885
S11391F004F1040A01A9FFF7C7FD2F4654465AE7B4
S1139200752B3FF44CAF782BD5D110220492A3F1E7
S11392105802534253419DF8042063F382028DF8AF
S11392200420E4E71FB5002489B1013902900191BB
S113923001A808490394FFF74FFE0399019B029A82
S1139240994234BF5454D454039804B010BD084612
S1139250FBE700BFC58E000000F0D2BC08B50D4A84
S11392600D4B0E498B420CD300210D4B0D4A9342FA
S11392700CD3FAF79DFF0C4B0C4A1A60FDF744FF20
S1139280FEE752F8040F43F8040BEBE743F8041B22
S1139290EDE700BF34B7000020000010290A0010D9
S11392A0300A0010FE3D001008ED00E00040000010
S11392B0FEE700000A22044B1A601A68013A1A6099
S11392C0002AFAD1704700BFE012001090FAA0F013
S11392D070470000C30803EB900303EB901303EB08
S11392E0D01303EB902303EBD020044B58605A684F
S11392F0013A5A60002AFAD1704700BFE012001008
S1139300014B5843FFF7E6BF40420F000023104AC9
S1139310136053609360D3601361D36153629362AB
S11393200C4A1360136213641366C2F880300A4A4D
S1139330136053609360D3601361D3615362074A2F
S11393401360136213641366C2F88030704700BF61
S113935000C0024000C0092040C0024014C00920DF
S113936008B5FFF7D3FF00234CF21271084A1360CB
S1139370116240F2B11111644FF040511366C2F80A
S113938080105361536353655367C2F8943008BD2A
S113939000C00920114B1A6822F4404242F40042F2
S11393A01A601A6822F4405242F400521A601A6891
S11393B022F4403242F400321A601A6822F4402245
S11393C042F400221A604FF08052054B1A60C72203
S11393D0044B1A600C225A60704700BF00C0024060
S11393E098C0092000000340094A136823F470134D
S11393F01360084A136823F0C0631360064B1A68AD
S113940042F420121A601A6822F4A0121A607047FB
S113941004C0024000C0092044C00240F0B5102539
S113942020240122AE460F4B461E1C600E4F0F4CEB
S113943002FA06F60138C0B2FF2803D120230846F9
S11394402360F0BD314214BF22601A602560D7F852
S113945000C049001CF0020F18BF41F00101C3F81D
S113946000E0E7E75CC0092054C0092058C0092087
S113947008B5FFF7B9FF4FF40073084932200B60B9
S1139480FFF728FF2022064B18201A604FF4804370
S11394900B600449BDE80840FFF7C0BF38C009208D
S11394A058C00920FF7F0D0008B540F08001090471
S11394B01820FFF7B3FF80B208BD41EA004118202D
S11394C0FFF7ACBF08B540F0800109021020FFF798
S11394D0A5FFC0B208BD41EA00211020FFF79EBFDE
S11394E0F8B520221E4B70251A6001270822102689
S11394F01C4C15F0800F02F1FF3214BF27601F606F
S11395006D0012F0FF022660EDB21E60F1D10E462E
S113951001274FF0100E721AD2B290420CD80822D2
S11395201021013A12F0FF0221601960F9D1FFF70E
S1139530C1FE20232360F8BD082216F8015B15F054
S1139540800F02F1FF3214BF27601F606D0012F01C
S1139550FF02C4F800E0EDB2C3F800E0EFD1DAE7AF
S11395605CC0092058C009202DE9F84320231D4D73
S1139570F0222B600126082310241B4F12F0800FC9
S113958003F1FF3314BF3E602E60520013F0FF035B
S11395903C60D2B22C60F1D1013801F1FF380844AB
S11395A01021DFF84890804505D1FFF783FE202382
S11395B03B60BDE8F88308260024FFF77BFE396092
S11395C0D9F8003064009B07E4B248BF44F00104BA
S11395D0FFF770FE013E16F0FF062960EDD108F892
S11395E0014FE0E75CC0092058C0092054C009209D
S11395F008B500210820FFF711FFC0B208BD08B567
S113960001460820FFF70AFFC0B208BD08B50021D3
S11396101820FFF703FF0020FFF746FF0028FAD1C8
S11396204FF400411820FFF7F9FE0020FFF73CFF3C
S1139630B0F5004FF9D108BD2DE9F04144F23A02EA
S11396403F4B404E1A6000233F4D33602B683F4C24
S113965023F002032B60AA232360552323603C4B91
S11396601F461A689001FCD42B6823F001032B6079
S1139670AA232360552323603B6813F08073FBD136
S1139680DFF8F080C8F80030FFF7C0FF3149182038
S1139690FFF7C4FE6020FFF7B2FFFFF7A9FF410602
S11396A0FBD520222C4B1A601A685206FCD52822BE
S11396B02A4BAA211A6000225A600123284A3360E7
S11396C0284B1A605522216022602B6843F0010365
S11396D02B60216022603B68DE01FCD50323C8F8BF
S11396E000302B6843F002032B60AA232360552328
S11396F023603B689D01FCD522225520AA241A4BE5
S11397001A600833194A1C601860116841F001019D
S1139710116017491C60186008460C68E405FCD504
S113972001684905FCD5116841F002011160AA22C3
S11397301A6055221A6003689B05FCD5BDE8F081C8
S113974000C00F400CC10F4080C00F408CC00F40C0
S113975088C00F4070150800A0C10F40A8C10F4079
S11397601800010084C00F40A4C00F40A0C00F40E7
S1139770A8C00F4004C10F4008B5FFF7F1FDFFF783
S113978077FEBDE80840FFF757BF000008B5FFF7B4
S1139790BDFD0222084B09481A604FF0804213684D
S11397A043F003031360AA22054B1A6055221A6082
S11397B0BDE80840FFF78EBD3CC0092040420F00C1
S11397C00800004030B58BB0362304460D460093A4
S11397D005A96846074B9847059B2370069B1A0A00
S11397E06370A2701A0C1B0E23710523E2702B60A8
S11397F00BB030BDF11FFF1F30B58BB03A230446C8
S11398000D46009305A96846134B9847059B2370A2
S1139810069B1A0A6370A2701A0C1B0E2371079B15
S1139820E2701A0A6371A2711A0C1B0E2372089B50
S1139830E2711A0A6372A2721A0C1B0E2373099B3B
S1139840E2721A0A6373A2731A0C1B0E2374112397
S1139850E2732B600BB030BDF11FFF1F00B58BB05E
S1139860392305A900936846024B98470BB05DF86D
S113987004FB00BFF11FFF1F38B5084C802025688A
S11398806168402DA8BF40252A4600F051F963685D
S11398902B44636023685D1B256038BDE81200100B
S11398A037B51048047A0546C4F34114022C0DD18F
S11398B0002302A941F8043D00F11002031D083001
S11398C000F064FA10B1019803B030BD05EB8404D4
S11398D063692BB1044A02F10C01101D9847F3E7A8
S11398E01846F1E7E8120010EC12001010B5002839
S11398F047D111F00401244C23D00822A11800F010
S113990041F9227AC2F3411304EB83035B6A636077
S1139910E389236023610BB1D30934D0FFF7C0FF7F
S113992028B9BDE810400121802000F0F5B8E28993
S113993023699A42D4BF22602360BDE81040FFF738
S11399409BBF2268002A17DD616800F01BF900281C
S1139950E7DB6368034463602368181A206090B9E6
S1139960237AC3F3411304EB83035B6A6360FFF759
S113997097FF0028D5D0E0E70A46BDE8104000F084
S113998001B98028D9D010BDE8120010024B03EBB6
S11399908000416142627047E81200107047000085
S11399A010B50E4C00F09AF90D4800F07FF82146EE
S11399B0002000F061F82146802000F05DF840218D
S11399C0002000F03BF84021802000F037F8054AE1
S11399D005490020FFF7DAFF012010BDED980000D3
S11399E09D9900001C130010819E0000034A136817
S11399F030EA0303FBD1024B1860704700C20050E9
S1139A0008C200503022044B000440F4A0601A60E5
S1139A1098601020FFF7EABF08C2005008B5FFF7AE
S1139A20F1FF054B090441F4807119601020BDE871
S1139A300840FFF7DBBF00BF10C2005010B5012380
S1139A400B4A440004F01E0444EAD0141068A340F6
S1139A5003431360074B4FF480701C605960FFF799
S1139A60C5FF44F040000021BDE81040FFF7D6BF19
S1139A7044C2005048C20050420002F01E0242EAB2
S1139A80D013084840F812100120074A9840116882
S1139A900843106052F8303C43F0040342F8303C71
S1139AA0704700BF2413001034C20050034B044A13
S1139AB01864136843F008031360704724130010FC
S1139AC004C2005040F08001D020FFF7A7BF011C62
S1139AD018BF0121FE20FFF7A1BF0146F320FFF7C5
S1139AE09DBF000008B5410001F01E0141EAD011FC
S1139AF00846FFF787FF064B090441F4007119601B
S1139B002020FFF773FF034B1868C0B208BD00BFE5
S1139B1010C2005014C20050430003F01E0343EA75
S1139B20D010003118BF012140F04000FFF776BF8C
S1139B3038B50346400000F01E0040EAD3109B00F5
S1139B400D4C03F03C0343F0020323600B4B15461A
S1139B501A6023460A4A1C6814F0020407D11C60E8
S1139B60FFF750FFFA20FFF74DFF284638BD51F8A4
S1139B70044B1460EFE700BF28C2005024C2005019
S1139B801CC20050F8B50346400000F01E0040EA35
S1139B90D3109B0003F03C03134E43F00103134C1A
S1139BA0336023681D05FCD55C051AD500252C46B9
S1139BB00F4FC3F309039C4208D100233360FFF71E
S1139BC021FFF220FFF71EFF2046F8BD14F0030F1B
S1139BD008BF3D6811B1944238BF0D552D0A0134B8
S1139BE0E9E74FF0FF30F8BD28C2005020C2005012
S1139BF018C20050011C18BF0121D820FFF70EBF66
S1139C00F8B52D4B1C68E10711D501229A602B4B46
S1139C10596C61B1F520FFF7F5FE294B294A202044
S1139C201A60FFF7E3FE284B1868C0B28847220782
S1139C301BD50822254BFE201A60FFF7E3FE204BBC
S1139C40234A20201A60FFF7D1FE1F4B1B68D8B2AD
S1139C5010F01A0F09D0194A5BB2126C2AB103F042
S1139C60140300F0010018439047630722D504222F
S1139C700024164B174D184E134F1A6001232A68FF
S1139C80A340134213D033602020FFF7AFFE0B4AEA
S1139C9060103B6852F8202059B242B101F01E0115
S1139CA003F0010340EAC4101943C0B290470134E1
S1139CB0202CE3D1F8BD00BF00C2005024130010D3
S1139CC010C200500002F50014C2005008C2005037
S1139CD00002FE0030C2005038C2005008B5254AC8
S1139CE0136823F4402343F48023136052F8043CA4
