S0160000626C7565746F6F74685F727874782E7372656303
S1134000E03F00104197000095970000959700004D
S11340109597000095970000959700000000000018
S11340200000000000000000000000009597000060
S113403095970000000000009597000095970000F8
S113404095970000B54E000035810000959700005B
S113405095970000959700009597000095970000AC
S1134060959700009597000095970000959700009C
S1134070959700009597000095970000959700008C
S1134080959700009597000095970000959700007C
S11340909597000015500000959700009597000033
S11340A03D97000095970000295100009597000066
S11340B0959700009597000095970000959700004C
S11340C0959700009597000095970000044B0548CC
S11340D01B1A062B02D9044B03B11847704700BFC3
S11340E02F0A00102C0A00100000000005490648A1
S11340F0091A891001EBD171491002D0034B03B1A5
S1134100184770472C0A00102C0A00100000000009
S113411010B5064C237843B9FFF7D8FF044B13B10D
S11341200448AFF300800123237010BD300A00104F
S113413000000000DCBC000008B5084B1BB10849B6
S11341400848AFF300800848036813B9BDE8084085
S1134150CCE7064B002BF9D09847F7E700000000A6
S1134160340A0010DCBC00002C0A0010000000001F
S1134170002301461A46184600F090B838B50A4C98
S11341800A4D641BA4100AD004F18043013B05EBE3
S11341908305013C55F804399847002CF9D1BDE852
S11341A0384007F0A5BD00BF00BD0000FCBC000006
S11341B070B50F4E0F4D761BB61018BF002405D0F6
S11341C0013455F8043B9847A642F9D10A4E0B4DE9
S11341D007F084FD761BB61018BF002406D0013406
S11341E055F8043B9847A642F9D170BD70BD00BF95
S11341F0E8BC0000E8BC0000F0BC0000E8BC000023
S113420070B4860746D0541E002A41D0CAB2034671
S113421002E014F1FF343BD303F8012B9D07F8D1DE
S1134220032C2ED9CDB245EA05250F2C45EA0545C8
S113423019D9264603F11002103E0F2E42F8105CE5
S113424042F80C5C42F8085C42F8045C02F110028B
S1134250F2D8A4F1100222F00F0204F00F0410327D
S1134260032C13440DD91E462246043A032A46F869
S1134270045BFAD8221F22F003020432134404F030
S113428003042CB1C9B21C4403F8011B9C42FBD1AA
S113429070BC704714460346C2E700BF2DE9F047DF
S11342A0274C074626688846D6F8484192469946E0
S11342B0002C3CD065681F2D1ADC05F1010E7FB17E
S11342C0012004EB8503C3F888A0D4F8881100FA10
S11342D005F21143022FC4F88811C3F8089120D0C5
S11342E00235C4F804E0002044F82580BDE8F087D6
S11342F0144B0BB34FF4C870AFF300800446D8B12D
S11343000020D6F848314FF0010E60602360054666
S1134310C6F84841C4F88801C4F88C01002FDFD0E6
S1134320CEE7D4F88C311A43C4F88C21D8E706F5CB
S1134330A674C6F84841BDE74FF0FF30BDE8F087EA
S113434010B1000000000000024B13B10248FFF757
S11343500FBF7047000000007D41000010B500232E
S11343601A4640FA03F1C3F1070401F00101A14028
S113437001330A43082BD2B2F3D1104610BD00001A
S113438010B5044C206005F013FAE080000CA08006
S113439010BD00BF5004001038B5264B264C1A78C7
S11343A012B11A78012A26D11A78002A3FD01B7834
S11343B0012B14BF0025402547F6FF710D2005F0A1
S11343C0EEFA42F62231122005F0E9FA41F24B31BD
S11343D0142005F0E4FA40F20111202005F0DFFA80
S11343E0B4F84C100220013989B205F0D8FA2946F4
S11343F0032005F0D4FAB4F84C0080B203F060FA5C
S113440003F0F6FA05F066FB4206FBD5612005F0E1
S113441068FB05F05FFB4307FBD5622005F061FBF9
S11344208022064B1A604FF480721A6038BD292529
S1134430C2E700BF4C0A00105004001058C0092005
S113444070B5294B04461A78002A48D01B78012BF2
S113445044D1402540F2615647F6FF710D2005F026
S11344609EFA42F62231122005F099FA41F24B21CC
S1134470142005F094FA3146202005F090FAA1B2F8
S11344802C2005F08CFA210C184C2D2005F087FA0D
S1134490B4F84C100220013989B205F080FA29469B
S11344A0032005F07CFAB4F84C0080B203F008FA5B
S11344B003F09EFA05F00EFB4206FBD5612005F0E1
S11344C010FB05F007FB4307FBD5622005F009FB51
S11344D08022074B1A604FF480721A6070BD292540
S11344E040F26146B8E700BF4C0A001050040010C7
S11344F058C00920F8B507460E4603F001F91D4DD2
S1134500044620B96B7843F004036B70F8BD042FA4
S1134510077019D140F63541174A13681B0DC37053
S11345201368164AC3F31303126801FB03234360A1
S11345303222314604F10E0006F046FD6B7801206C
S1134540637000236B70F8BDAB78C3706B68436015
S11345502B89623B83700A4B1B784372094B1B788F
S11345600372288980B203F097F9074BA0721B7875
S1134570E372DDE74C0A00105414001008400040B8
S11345807A130010781300109619001010B56420E7
S113459005F0A7FA05F09EFA10F00404FAD180227F
S11345A0214B10211A604FF480721A6043F8201CCA
S11345B043F8202C022243F8202C03F0F1F903F0F5
S11345C005FB03F0DBF903F003F940F68911174BFF
S11345D0174A9C72DC72A2F84C109E219C81A2F8AE
S11345E04E1040F66211DC81A2F850109C705C60A1
S11345F01C811C745C705C749C74DC741C751C7071
S11346004FF41663A2F8523040F6B313A2F85430B4
S1134610E2230020002182F85630064BC3E9000152
S1134620C3E9020110BD00BF5CC009204C0A0010A0
S113463050040010101A00102DE9F84F3C4D3D4C69
S1134640B5F84C0080B202F0DDFE0022215C284661
S1134650394D1346A646AC465C5D0133E4071F2B77
S113466044EA5202F8D105681CF80340E40744EA1E
S11346705202AA4256D1314E00244FF07F093546EA
S11346804FF0000A574603EBC40807EB08026244E4
S1134690032C12F81F2C0CDD0EEB010B9BF828B039
S11346A0013182EA0B02B1FBF9FBCBEBCB1BA1EB93
S11346B00B01BA40013742EA0A02082F5FFA82FA74
S11346C0E3D1326802F804A001342E2CD8D1036956
S11346D06BB929680120FFF70DFF1022184B1A60EF
S11346E0184B28689B6998470120BDE8F88F336808
S11346F0C0685C79316804F03F04A21C043102F004
S113470007FF326804F10803D15C3268E31DD35C0F
S113471032680634125D1B0243EA01431343984294
S1134720E2D1D6E70133B3F5D87F9DD1DCE700BFF2
S11347305004001018B10000741600107016001018
S113474038C009204C0A0010F8B50E4615461C4620
S1134750492800F27683DFE810F022015C00620051
S113476067006D00730078007B008000840089007E
S1134770DD00E800270195008F009A009F00A40047
S1134780A600AC00D400D600D90020012401740393
S11347902901B000B800C400C200C600530146019C
S11347A0700174017B017D01C701FF0118025A02E7
S11347B06A027502930089028D0293029A02A6028C
S11347C003020E02AF02D2026301F9027403B602BD
S11347D06A036E03E901FB01250274034A00B9026E
S11347E04401C9022C026603EE027F02DC020023AC
S11347F032885C1CDBB2934242D203EB4303EA18D7
S113480051789278E85C42EA012105F0C8F8234621
S1134810EEE70120A54B987400232360F8BD022223
S1134820A24B9A729A74BAE0A14B1B68C3F340037B
S11348302B7048E002230A88E2B19E4A13601FE00D
S11348409B4B1B68C3F30013F2E70A881023F3E7BA
S1134850974B1B68C3F30023EAE70A884FF480737D
S1134860EAE7934B1B68C3F34023E1E70A884FF45C
S11348700073E1E7904AE1E72146104605F014FA97
S11348800120F8BD2146104605F028FAF8E78B4BC5
S11348901B68C3F3C013CBE780230A883AB1884A64
S11348A0CCE7864BD5E70A884FF48073F6E7854A50
S11348B0C4E703227D4B9A74E2E7052005F066F80D
S11348C000F0070028700120B9E00988072900F2E8
S11348D0B882052041F0080105F061F8D0E705220F
S11348E0E8E70622E6E7784B1A782A705A786A7065
S11348F09A78AA70DA78EA701B792B710523236001
S1134900BEE70022D6E7694B1B7891E70A78674B2C
S11349101A70B5E76D4BB3F84C202A70B3F84C30DD
S1134920C3F307236B700223E9E70A8840F6EA2100
S11349305E4BDA81DA8992B28A4218D901229A72DC
S113494040F66212DA81D989604A89B2A2F850101D
S1134950597C092994D0D98989B2A2F84C10002134
S1134960D981B2F84C0080B202F0AAFF88E7002295
S11349709A7240F6DC02D98989B2914240F6E92163
S113498084BFDA8992B2DA81DA8992B28A4296BF16
S1134990DA8940F6EA2292B2D4E705F0D1F900238D
S11349A0ADE74B4A4B4B1A600B2283E76FF4006070
S11349B00A881318B3F5806F80F043824B886FF434
S11349C000615918B1F5806F80F03B829A4200F281
S11349D038823E49A1F852200422A1F85430334BC6
S11349E020E70F22FBE70B88B3F5807F00F22982D2
S11349F0364AC3F136035BB282F856300722EEE73B
S1134A00002335481370537006F054FBC6B2A870E7
S1134A1032463149E81C06F0D7FA033626602FE700
S1134A202E4806F047FBC6B205F8010B32462B4967
S1134A30284606F0C9FA0136F0E70120107020601C
S1134A40F8BD0A88264B1A70204BB3F84C008AE74D
S1134A50234B59E7002200230026224C6F1EC4E991
S1134A600023C4E90223324617F8010F002105F0A0
S1134A7029FDD4E90023083610431943402EC4E924
S1134A800001F0D100260735324615F8010F002148
S1134A9005F018FDD4E90223083610431943402ECB
S1134AA0C4E90201F0D102F061FBE9E64C0A00100E
S1134AB034C0092038C009203CC0092054C0092052
S1134AC058C009205CC00920D019001050040010FF
S1134AD021BB05431C000010CCB90000BFB100008D
S1134AE098190010101A00100022A24BE81C1A603A
S1134AF06A1E19680902196012F8011F1C689042A5
S1134B0041EA04011960F4D1022201204FF08051DE
S1134B10994B9A72994A1874116029796A7942EA10
S1134B20012297490A8008229A74F8BD0522924B03
S1134B3094499A720E229A7400231A465A540133E5
S1134B400A2BFBD10120904B1A70904B1870F8BDC2
S1134B500120894BD872F8BD12688D4B1A6073E737
S1134B600023884AE95C995401330A2BFAD10120C5
S1134B70864A107051E600231A4682495A5401337A
S1134B800A2BFBD181490A70B9E6814B551E19687D
S1134B90002321FA03F20833202B05F8012FF8D162
S1134BA00423ACE612786B7843EA0223744A138038
S1134BB066E6784A28786B78118843EA00230B4428
S1134BC01BB213801388744913F4004F734B0ED037
S1134BD04FF4A0701288524292B290FBF2F21A8003
S1134BE06F4A1B8812689BB213440B6048E6108816
S1134BF000B2002807DD128810B24FF4A07292FBB5
S1134C00F0F292B2EBE700221A800A6038E6002242
S1134C100B88644D6B63584B2260DA7203229A72DC
S1134C2009229A7402F05EFDB5F84C009BE600235D
S1134C305C49551E0A68DA400833202B05F8012F19
S1134C40F8D1ADE701241068FFF79AFB554B56489D
S1134C505C6404F057FA13E653781178534841EA38
S1134C600321504BD98304F04DFA09E61323137042
S1134C70372357E64B4B1B69003318BF0123D7E595
S1134C800B88484A003318BF01231361F8E502F08A
S1134C9051FD014628B14022284606F095F94023EB
S1134CA02DE628700FE60022334B22609A720A2206
S1134CB09A7402F017FDC7E6087804F067FE030A49
S1134CC02B7068702FE64988307805E60026F7B225
S1134CD0384604F05BFE0136030A2E2E2F706B70EB
S1134CE0A87005F10305F2D1872308E692792946D5
S1134CF00732D2B22E4806F067F910226FE61E4C36
S1134D000622294604F11C0006F05EF90C23A37464
S1134D10B6E51178274804F0F5F9224C2878607537
S1134D2002F088FB0622144BA4F84C009A72E28B22
S1134D30A2831122BFE58A88152A00F282801948CD
S1134D40294682655C3006F03FF999E59479302C68
S1134D5077D88CBB134D2146062205F138006C64CC
S1134D60FFF74EFA0622214605F13E00FFF748FA06
S1134D7086E500BF881300104C0A001098C0092073
S1134D80621600107B13001079130010971900109D
S1134D905414001094190010CC1900105014001071
S1134DA04C14001050040010D1B90000D9B900000F
S1134DB058140010EFB90000234C931D224613F839
S1134DC0011DAB4202F8011FF9D1002106221F4840
S1134DD0FFF716FAFF2605231D49A879082819D8D4
S1134DE060B100210A460131CDB25208854242F039
S1134DF08002F8D316490B4483F83E2015496378A2
S1134E00E279134004F8013FA142F8D10120104B8C
S1134E105864F8BDCA1882F83E60AA79013B083A82
S1134E20DBB2AA71D9E701200B4B5862F8BD0A78AE
S1134E30094BDA7424E50D22074B9A740A781A7523
S1134E401EE50020F8BD00BF870400108E0400108A
S1134E50500400108C0400104C0A00102DE9F0419D
S1134E6006460F46904602F04BFC104D044628B906
S1134E706B7843F004036B70BDE8F0810670002684
S1134E800B4BC670B3F84C30C0F80480623B83709F
S1134E908672C672322239460E3006F095F86B7867
S1134EA06E7063700120BDE8F08100BF4C0A0010F1
S1134EB05004001010B54FF040231B68D80746D5A6
S1134EC04849494A0B6810680344013313600023BE
S1134ED00B60464910688C7A0B4614B18C7A012C0D
S1134EE036D11168490601D10121D9724049414B9B
S1134EF00868B8B1188880B2A0B9146808688442F8
S1134F0010D33D483D4C0088000454BF012041F6B5
S1134F10690018801068206039480088246880B2CD
S1134F202044086040F63440198889B2814282BF27
S1134F301168023111601A88324992B202F6344281
S1134F400A6000221A8001224FF040231A6010BD2B
S1134F508B7A022B05D11368DC07C7D40123CB72EB
S1134F60C4E7294B9C69001B8C7A00F00300032CD6
S1134F7014D11C7D032CB9D10028B7D1988B0138EA
S1134F8080B29883988B80B2D0B90120C872198CF2
S1134F90014489B21984D98B9983A7E78C7A062CAA
S1134FA013D10028A2D1988B013880B29883988BB2
S1134FB080B228B9D88B9883012381F8283095E7EB
S1134FC04FF48071114B196090E7887A05288DD1D0
S1134FD00F48B3F84E3004689BB2106823448342F0
S1134FE084D1BBE788130010541400104C0A00103D
S1134FF0CC19001062160010941900104C14001003
S11350005014001018400040500400103CC0092007
S1135010701300100422084B1A604FF08052074BA3
S11350201A600122064B1A70064B9A7A022A04BFB0
S113503000221A74704700BFAC8002409CC0092053
S11350400D1A00104C0A001010B5294B5A7C012A85
S113505011D05A7C082A0ED05A7C042A0BD05A7CD0
S1135060092A08D05A7C0A2A05D05A7C0C2A02D074
S11350705A7C0F2A3AD11F4A1268D10736D51E4AE4
S11350801268D20727D501211C4A40F63544116025
S11350909A7A1B48022A02BF4FF08051194A1160C4
S11350A019490A680068C2F3130204FB02025A6039
S11350B00A68C2F307529A70144AB2F84C2092B2AA
S11350C01A81134A134B116818681060124A196048
S11350D0136801331360114B1B68DB0706D50122EB
S11350E00F4B1A600F4A13680133136010BD00BFE1
S11350F04C0A00100040005004400050084000508A
S11351000840004098C009205414001050040010B6
S11351109414001070160010741300100C4000500A
S113512010400050081A001008B5114B5B7C092B85
S11351301AD102F009FF0F4B1B68190617D50E4B45
S11351401B681A0605D580220C4B1A6000220C4BF2
S11351501A600C4B1B681B0609D580220A4B1A6087
S113516002220A4B1A60FEE7FFF76EFFE3E708BD71
S11351704C0A001000400050044000500840005009
S1135180CC1200100C4000501040005038C00920D0
S11351902DE9F04F8BB00C46904604F009FB504EBD
S11351A00746B6F84C00202C80B228BF202402F019
S11351B029F94FF00009C6464FF07F0A494D0DF119
S11351C007012B5C0196AEEB0802944265D847F6C2
S11351D0FF710D2004F0E3FB42F62231122004F0AB
S11351E0DEFB41F24B31142004F0D9FB40F6E141DF
S11351F0202004F0D4FB019B0220B3F84C1089B2A8
S113520004F0CDFB0B21052004F0C9FB4021032051
S113521004F0C5FB1421232004F0C1FBB9B22C20F7
S113522004F0BDFB390C2D2004F0B9FB04F052FC52
S11352304106FBD5612004F054FC04F04BFC42070A
S1135240FBD54FF48072284B1A6080221A620E201C
S113525004F09CFB00F01F000F28F8D1204602A99F
S113526004F0B0FB632004F03CFC0E2004F08EFB41
S113527000F01F000F28F8D14FF480721B4B6420FC
S11352801A6004F02EFC04F025FC4307FBD48022B2
S1135290174B1A600BB0BDE8F08F072681F8019018
S11352A01EF8012B11F801CFE81890F8280002F03D
S11352B0010B8BEA000003F1010BBBFBFAF3B040D6
S11352C0C3EBC31340EA0C0C16F1FF36ABEB03033C
S11352D04FEA52025FFA8CFCE6D281F800C072E712
S11352E05004001018B1000038C009203CC0092047
S11352F05CC0092008B547F6FF710D2004F04FFB90
S113530042F62231122004F04AFB42F24B311420BF
S113531004F045FB40F60141202004F040FB0B2142
S1135320052004F03CFB4021032004F038FB04F08A
S1135330D1FB4206FBD5612004F0D3FB04F0CAFB89
S11353404307FBD54FF48072074B1A6080221A6220
S11353500E2004F01BFB00F01F000F28F8D163207F
S1135360BDE8084004F0BDBB38C0092008B50F48AB
S1135370FFF706F80E4B0F4A9A600F4ADA600022D4
S11353809A831A611A849A641A755A759A759A617D
S1135390DA8383F822209A849A629A85DA8583F8DC
S11353A030205A86054BDA7208BD00BFD6BE898EFE
S11353B05004001055555500AAAAAA004C0A001022
S11353C010B5064C4FF4847200212046FEF718FFF6
S11353D04FF0FF33C4F8003110BD00BF9814001023
S11353E0F0B50023134C9E46A446134991F82A7045
S11353F081F82930D4F8BC501A46AB4207D3BEF129
S1135400000F03D081F82A7081F82930F0BD0133F0
S1135410DBB21F464FF0010E0244DCF8BC50AF4231
S1135420E8D2C65D1578B54284BF1670C5550137FC
S1135430FFB2F2E7A01500104C0A001038B5194B62
S1135440194DB3F84C0080B201F0DCFF95F82B2025
S11354500146232A1AD8154C54F82030012B20D0A9
S1135460012344F82030D4F8BC30234483F894005A
S11354700F4803F047FED4F8BC300133C4F8BC3005
S113548095F82B30013385F82B3038BD242A08D108
S11354900848FFF7A5FF252385F82B30012385F85D
S11354A02C3038BD500400104C0A0010A015001018
S11354B00ABA00003416001070B58EB015460C46BA
S11354C006463222002101A8FEF79AFE312D2A4613
S11354D0214628BF31220DF105008DF8046005F046
S11354E073FD01A90520FFF705F80EB070BD00009B
S11354F0F7B50023784C794AE372794B1968116047
S1135500A27A5AB9022004F041FA764BB3F84C302F
S11355109BB2013B98423DD103B0F0BDA27A012A6F
S113552065D17049082608466F4B704D1F78704B43
S113553093F800E0B1F84C3020339BB2A1F84C3022
S1135540B1F84C309BB2B3F51B6F81BFB1F84C304E
S11355504F3B9BB2A1F84C30E7B1BEF1000F19D01C
S1135560B0F84C20B0F84C3092B2A2F6621292FB22
S1135570F6F29BB2A3F66213D3F1000CAA5C0CF012
S1135580070C03F0070358BFCCF1000342FA03F3FE
S1135590DA07CFD5642004F0A4FA04F09BFA42079A
S11355A0FBD4607C4F4DC0B2B5F84C10022817BF35
S11355B001F1FF3189B289B2022004F0F0F9A37A33
S11355C023B1B5F84C0080B202F07AF9612004F0FE
S11355D088FA04F07FFA4307FBD501232374637C24
S11355E0022B0CBF6320622004F07BFA94E7A27ABA
S11355F0052A34D13B49082608463B4B3B4D1F78CE
S1135600B1F84C3020339BB2A1F84C30B1F84C3097
S11356109BB2B3F51B6F81BFB1F84C304F3B9BB2CB
S1135620A1F84C304F2FB5D0B0F84C20B0F84C3026
S113563092B2A2F6621292FBF6F29BB2A3F6621346
S1135640D3F1000EAA5C0EF0070E03F0070358BF57
S1135650CEF1000342FA03F3DB07D1D49AE7A27A2E
S1135660022A06D1186801F027FE1E4BA3F84C004D
S113567090E7A37A032B25D194F82C60194D012EC1
S11356801AD11C49687D01F0B7FF6875284601F0FE
S1135690E9FE1849A5F84C00687D01F0ADFF02ADA4
S11356A005F8010D0146144803F02CFD3246294645
S11356B00420FFF701FF6DE7284601F0D3FEA5F8AB
S11356C04C0067E7A37A042B01BFA389054A9BB268
S11356D0A2F84C305EE700BF4C0A001070130010B3
S11356E05414001050040010791300107B130010A0
S11356F097190010A01500101CBA00002DE9F84FEE
S113570010234E4E4E4F336001F0ECFF3C4604F044
S1135710B3F802F0BDF902F039FAFEF73DFE02F0EB
S1135720FDF8DFF838B1BB7C012B08D0BB7C082B1B
S113573005D002F04BFABDE8F84F02F007B9102388
S1135740336002F045F86FF07F05DFF81481DFF86D
S11357501491D8F80030DFF810A1002B49D01023A1
S1135760384DCBF800302B681BB1637843F002034B
S11357706370D8F80030012B82BF637843F00103D3
S11357806370237C2BB1637843F0200363700023A0
S113579023742D4BB3F84C0080B202F055F899F8FD
S11357A0003013B9294B1B7833B1637843F00803F5
S11357B06370002389F80030254B264A93F90030A2
S11357C092F9002035339342B8BF63784FF000005C
S11357D0BCBF43F0100363701F4B1968FEF78AFEC9
S11357E0DAF8000001F0E0FF0023C8F800302B6075
S11357F099E7062004F0CAF899F8003040F307202E
S113580063B115F1800F09D1114B93F9003003F105
S11358103605A842B8BF284645B2284601F0F4FF31
S1135820DAF8000001F0C0FFE37A13B1FFF760FE7D
S11358308FE74FF4807333608BE700BF3CC00920CF
S11358404C0A0010081A00105004001060160010D2
S11358500C1A0010781300107016001038C00920BC
S1135860741300100D1A0010541400102DE9F043A5
S113587085B0954B0027D3E90245002304F00102CB
S113588013434AF6AA234FEAD57645F2555808BF82
S11358909846002F08BF012EE0B20CBFAA26552659
S11358A0FEF75CFD8DF80000C4F30720FEF756FDFB
S11358B08DF80100C4F30740FEF750FD8DF8020097
S11358C0200EFEF74BFD8DF80300E8B2FEF746FD0F
S11358D08DF80400C5F30720FEF740FD8DF80500A0
S11358E0C5F30740FEF73AFD8DF80600280EFEF7D3
S11358F035FD8DF807003046FEF730FD8DF80800C1
S11359007720FEF72BFD8DF809006620FEF726FDB3
S11359108DF80A005520FEF721FD8DF80B00442078
S1135920FEF71CFD8DF80C003320FEF717FD8DF8F3
S11359300D002220FEF712FD8DF80E001120FEF757
S11359400DFD3C463B468DF80F0048FA03F2C3F1C7
S11359500F0102F001028A4001331443102BA4B258
S1135960F3D147F6FF710D2004F019F842F6223105
S1135970122004F014F841F24B31142004F00FF813
S113598040F60141202004F00AF821462C2004F0BE
S113599006F800212D2004F002F84C4B0220B3F845
S11359A04C104B4C89B203F0FAFF0B21052003F095
S11359B0F6FF2378BBBB2921032003F0F0FF02F09C
S11359C017F804F087F84506FBD5612004F089F840
S11359D004F080F84007FBD580223E4B1A600E206D
S11359E003F0D4FF00F01F000F28F8D1632004F067
S11359F078F81421232003F0D2FF082003F0C6FF17
S1135A00C0F30801074641F49C41082003F0C7FF96
S1135A100025314EDFF8CC90A37C022B4AD16D08CF
S1135A20DFF8C48008E02378012BE2D14021C3E7EA
S1135A30E27A1AB1FFF75CFD40F6C9033268B5EBB0
S1135A40520FF5D0D8F800209A42F1D94FF4807360
S1135A5035686946C9F80030102003F0B3FF0E2002
S1135A6003F094FF00F01F000F28F8D14FF4807268
S1135A701A4B64201A6004F034F804F02BF8410740
S1135A80FBD404F027F84206FBD5612004F029F882
S1135A9004F020F84307FBD50E2003F077FF00F055
S1135AA01F000F28F8D1632004F01BF8306801F0C0
S1135AB07BFEB1E780220A4B39461A60082003F0C6
S1135AC06EFF05B0BDE8F083101A001050040010FA
S1135AD04C0A001058C00920541400103CC009207E
S1135AE05CC0092038C00920084000402DE9F84F67
S1135AF001236F4C824623706074FFF737FC4FF02C
S1135B0080726C4B6C4F1A6010233B6001F0EAFD0D
S1135B10002603F0B1FE01F0BBFF02F037F8FEF7F8
S1135B203BFC01F0FBFEDFF8B4B1DFF8B481A37CE9
S1135B309A4540F08C80E3899BB2CBB1642003F09A
S1135B40D0FF03F0C7FF4207FBD4BBF84C10022080
S1135B50013989B203F023FF612003F0C2FF03F08F
S1135B60B9FF4307FBD5622003F0BBFF0023E381A9
S1135B70E37A002B77D0FFF7BBFC10233B6001F0E6
S1135B8027FE6FF07F05DFF85C91D8F800301BB971
S1135B90D9F80030002B6AD0D9F800301BB16378F3
S1135BA043F002036370D8F80030002B79D0D8F8A2
S1135BB00030012B82BF637843F001036370BBF8AC
S1135BC04C0080B201F040FE3C4A137813B93C4BC0
S1135BD01B7833B16378022643F008036370002313
S1135BE01370384B384A93F9003092F9002035335A
S1135BF0934254DA0226637843F010036370334906
S1135C004FF4C872A1F5C87005F0DEF90023013E17
S1135C10DFF8C0C02E4DF6B2002103F132000CEBC8
S1135C20C0002A68D25CD5F800E0D20942541EF8BC
S1135C30032001315200D2B208290EF80320F0D11A
S1135C400133322BE8D1236B2248984748BB4FF0ED
S1135C508072214B1A60FEF799FC01F0B7FFBDE892
S1135C60F84F01F073BE4FF480733B6085E7062064
S1135C7003F08CFE114B40F307201B7863B115F140
S1135C80800F09D10F4B93F9003003F13605A84278
S1135C90B8BF284645B2284601F0B6FD75E7002E88
S1135CA0ADD10023C8F80030C9F800303FE700BF89
S1135CB04C0A001000E100E03CC009200D1A00105D
S1135CC0601600100C1A001078130010041800104D
S1135CD0701600107416001080E100E050040010EB
S1135CE074130010081A00102DE9F04F93B001232B
S1135CF04FF08072B74CB84D23702B75B74B60745E
S1135D001A601023B64E8146336001F0EBFC03F0B9
S1135D10B3FD01F001FF01F039FF286803F048FDED
S1135D20DFF8F4A2FEF78CFB0096A37C994540F0C3
S1135D304081E3899BB2CBB1642003F0D2FE03F02F
S1135D40C9FE4707FBD4B5F84C100220013989B2CB
S1135D5003F025FE612003F0C4FE03F0BBFE4607FA
S1135D60FBD5622003F0BDFE0023E3811023009ADB
S1135D70DFF8A8B2136001F02BFD9A4ADBF800307B
S1135D8033B9136823B9E37A13B9A37C9945F5D0E1
S1135D90062003F0FBFD944B40F307201870934B4F
S1135DA01870A37C994540F004818E4B8D4F1B687D
S1135DB01BB1637843F002036370E37A03F0FF01DD
S1135DC0002B40F0BE80DBF80030002BADD0342235
S1135DD005A8FEF715FAB5F84C002B6880B20593B8
S1135DE0302601F00FFB4643DFF8348208EB06034C
S1135DF001937F4B93F800E05A7899781204D8788D
S1135E0042EA0E62104340EA0120029303F0D0FC00
S1135E1058F8066046400696C6F3052606F10208C1
S1135E20B8F1270F00F38D8008362B2E6DD8029B16
S1135E3026F003026F4913440A689A4202D23A6870
S1135E40002AF9D00427DAF80030612023F0010396
S1135E50CAF8003003F045FE654A7B1C12F807C0FF
S1135E60D05CBB1C12F803E0FB1CD35CB91043EA02
S1135E700C6343EA004040EA0E200392029103F0CF
S1135E8097FC029912AB03EB810E019B043753F884
S1135E9021302C2F80EA03004EF8300C039ADCD119
S1135EA02B69002B39D11022534B05A81A60A36922
S1135EB09847B5F84C0080B201F0A4FA95F8713017
S1135EC083420CD194F8343094F835200133DBB29A
S1135ED09A4284F83430DCBF002384F834304FF025
S1135EE08076464B05A91E600120FEF703FB40F6B1
S1135EF035413A4B424A1E60424B1B681268C3F359
S1135F00130301FB0323AB641BE03F4A1368D80768
S1135F1098D53B68002BF9D094E7424606A9E86877
S1135F2001F0F6FA12AB1E44984416F8343C18F803
S1135F302F2C1B0443EA022318F8302C13439842F5
S1135F40B1D0612003F0CDFDDAF800302F4A23F000
S1135F500103CAF800301368590737D440F63541B5
S1135F60284B274A1B681268C3F3130301FB03235E
S1135F70A96C2A7D8B4238BF03F14343A2F102028C
S1135F8038BF03F5A003012A03D8214A5B1A9342C0
S1135F9002D8A36B012B5CD1FFF7E8F94FF48072B0
S1135FA000230099A3630A60E27C012A3AD1E374D6
S1135FB0A3744FF08072114B1A60FEF7E7FA01F0F8
S1135FC005FE01F0C3FC13B0BDE8F08F114B1B6854
S1135FD0C1E700BF4C0A00105004001000E100E0CB
S1135FE03CC00920081A0010781300107A1300101E
S1135FF0D51900100441005038C0092080E100E0A8
S11360000840004054140010104100500C0003409C
S113601080F0FA02080003402400034074130010C7
S113602014B20000B9F10A0FC3D0012364202B7508
S113603003F057FD03F04EFD4207FBD4B5F8503092
S11360409BB203B3B5F850309BB2A5F84C30012392
S1136050E363E9882C2003F0A2FCA9882D2003F037
S11360609EFCE37A0BB1FFF743FAA36B002B0DDD23
S1136070FFF740F9A36B013BA36300230E4ACBF85F
S11360800030136051E640F66213DEE701F044FD90
S113609001F07CFDE36B3BB1286803F089FBFEF75C
S11360A0CFF90023E363E8E703F014FD4307FBD5CE
S11360B0622003F016FDE0E7081A00102DE9F04F06
S11360C099B00021D54EB6F86030A6F84010082BE0
S11360D006D9482206F16400A6F86010FEF790F88D
S11360E040F63541CE4CCF4A23681268C3F31303FC
S11360F001FB0323D6F8AC500393AB423FBF03F13B
S11361004343A3F56513A3F5A2530393039B5D1BBC
S1136110C54B9D4240F2C88096F8B03043B942F274
S11361201072B5FBF2F2B6F8603006EB83035A66E0
S1136130BE4F97F87280B8F1000F39D142F210794E
S1136140B5FBF9F9B6F8B23001339BB2A6F8B23018
S113615006EB8303586EA0EB090004F031FFD6F878
S1136160B42080B24A440A28C6F8B42000F29F80C2
S113617096F8B8302BB9B6F8B21006EB4101A1F885
S11361804020B6F8B210B6F8BA20914210D10122DC
S113619086F8B02000220133DBB2022BA6F8B2202D
S11361A0A6F8602086F8B83039D9022387F872300F
S11361B0B6F86030012B32D997F87280B8F1010F2C
S11361C02DD142F21073B5FBF3F5B06E401B04F011
S11361D0F7FE80B20A2822D80022D6F8B43087F815
S11361E072201D44B6F86030C6F8B450013B9BB22F
S11361F0012BA6F8B280A6F8BA300AD186F8B030DE
S113620096F8B830A6F8B2200133A6F8602086F8D4
S1136210B830B6F8B23006EB4303A3F8405097F811
S11362207230022B5DD196F8B820D6F8B43080488D
S113623003EB520191FBF2F1252389B2123191FB58
S1136240F3F1A6F8BC1002F05DFFB6F8BC0004F050
S113625097FA0022774B04F047F90022764B04F0BA
S11362601FFC04F005FD40F635416E4A23681268B0
S1136270C3F3130301FB0323F88397F87300C6F8F1
S1136280C03001F0D7F80423B081B3720123F37254
S1136290032387F87230614BB3F860200132A3F80E
S11362A06020039AC3F8AC2019B0BDE8F08F4822EF
S11362B041466248C6F8B480A6F8B280FDF7A0FF54
S11362C0202241465E48FDF79BFF012386F8B880F3
S11362D087F87230A6F8603086F8B080C6F8689007
S11362E066E797F8730001F0A5F8B7F84C309BB255
S11362F0984249D197F87230032B45D140F6354185
S1136300484A23681268C3F3130301FB032342F2D0
S11363101071D6F8C02093423CBF03F1434303F508
S1136320A0039B1AB3FBF1F196F8E42006EB4202BA
S1136330A2F8C41041F66A02F98B02FB013343F25E
S1136340D4024A43B3FBF2F3252B15D940F6354169
S1136350344A23681268C3F3130301FB032397F839
S11363607100C6F8C03001F065F804230122B08141
S113637087F87230B372F2720123F37296F8E43044
S1136380013386F8E43086E797F8710001F052F89B
S1136390B7F84C309BB2984254D197F87230042B22
S11363A050D140F635411F4A23681268C3F31303E2
S11363B001FB0323D6F8C020B6F8C40093423CBFC7
S11363C003F1434303F5A0039B1A42F21072B3FB9B
S11363D0F2F202442520B6F8BC4096F8351060432A
S11363E0B2FBF0F400FB142206EB4105A5F8E6200D
S11363F041F66A02F88B02FB003343F2D4024243B3
S1136400B3FBF2F3252B84BF052387F872300123F5
S11364101944F37286F835103DE700BF4C0A0010AA
S11364205414001008400040F724010050040010E8
S11364302CBA00000000E43F0000F43FB00A001052
S11364408C0A001097F87230052B40F0AF810025BC
S1136450B6F8BA3096F80721129396F8E430AE46AF
S1136460013B1393FB8B96F808A1059397F87330BF
S1136470B6F80A41991A0B9103F125018A1A97F883
S113648071102F46C81A2531CB1A0E90294628467A
S11364901492169396F8352096F80E31013A10931B
S11364A096F80F31159296F80C8196F8092196F812
S11364B00D9186F80651049311950F950C95129B36
S11364C09D4280F0E98000230A93B04B252603EB1C
S11364D04503179375E0179BB3F84040AB4B03EBB0
S11364E04202B2F8C4B05C4574D9059804F048F986
S11364F00022A74B04F0AAF90022A64B04F0A6F947
S1136500CDE90601204604F03BF902460B46DDE9DD
S1136510060103F0E7FFCDE90601584604F030F91F
S113652002460B46DDE9060103F0DEFF04F0A0FBA2
S113653084B2059804F024F90022954B04F086F9FE
S11365400022954BCDE9060104F080F9CDE908015C
S1136550204604F015F9DDE9082303F0C5FFDDE961
S1136560062304F09DFA04F083FB0B9BC0B2002BBE
S11365708A4BC8BF0B9A1844D8BF149A90F87C3839
S1136580534393FBF6FA06FB1A3A5FFA8AFAAAF126
S113659005030B2B10D80027159AFBB293420493E2
S11365A07A4B1BDB012703EB4903A3F810A109F184
S11365B001035FFA83F90C9701218E460A9B01338C
S11365C00A939DF82820139B9A4284DB0135EDB28F
S11365D0012074E7ABEB0404A4B2AAE7049A03EB2A
S11365E04203B3F8E640A34552D9DDE9060100228F
S11365F0684B04F02BF9CDE90C01584604F0C0F8BF
S113660002460B46DDE90C0103F06CFFCDE90C01F9
S1136610204604F0B5F802460B46DDE90C0103F010
S113662063FF04F025FB84B2204604F0A9F8DDE9F9
S1136630082303F059FFDDE9062304F031FA04F0DE
S113664017FB0E9BC0B2002B544BC8BF0E9A1844C4
S1136650D8BF169A90F87C38534393FBF6F206FBA6
S113666012335FFA83F8D0450ED1484B03EB49034C
S1136670A3F81081049B0133DBB2109309F10103E9
S11366805FFA83F901231193012301370F9383E701
S1136690A4EB0B04A4B2C7E70C9E3C4B0EB183F8E9
S11366A00D9109B1A3F80A410F9909B183F80C813E
S11366B0119919B19DF8401083F80E111FB19DF87E
S11366C0101083F80F11BEF1000F01D083F808A158
S11366D018B183F8092183F80651002294469246A2
S11366E016462F4C93F80D01B4F87450B3F852E1E8
S11366F0B3F8541193F85681DFF8ACB083F8502105
S1136700D7B2B84220D81EB1A3F8541183F85681E9
S1136710BAF1000F02D0224AA2F87450BCF1000F63
S113672001D0A3F852E10EB183F8507193F85211DD
S1136730059AB4F87430A17500901A4802F0E2FC8E
S1136740062384F87230A6E500263BF8128007EB96
S113675006095FFA89F981450ED38D4226BFF046BA
S113676029464FF0010CC6460D4638BFE2460132B9
S1136770012680460021C3E702EB06093BF8199085
S11367800136C14504BF013189B2E0E74C0A00106B
S11367900000F43F008042400000E03F18B10000D8
S11367A0500400103EBA00005C0B0010062B7FF46E
S11367B072AD96F8342096F80E319A427FF46BADA0
S11367C025200022FB8BB97D5B08BB8397F87130D1
S11367D03A840B4493FBF0F1BA613A610222032438
S11367E000FB11337B750A4B10460A49B3613C75B3
S11367F0B472FEF761FE204601220749FEF75CFEF3
S113680001220420054919B0BDE8F04FFEF754BE3B
S11368103D5400006E04001066040010650400106E
S113682070B5194D0646194802F06CFC2C694CBB36
S11368303379012B26D1737923BBF379307A1B0288
S113684043EA0043B0790222311D184300F036FEBA
S11368502246A86020FA04F3C4F1170103F00103EF
S113686001348B40182C42EA0302F3D10120EA6080
S1136870074B084A28619A6107490322BDE8704022
S1136880FEF71ABE70BD00BF5004001067BA0000C6
S11368904C0A0010BD6000005804001030B51349C4
S11368A000230A4651F8335001EBC304854203D157
S11368B063680133636030BD0133202BF2D14FF0A4
S11368C0FF3100230C4602EBC3056D68A54201DBD2
S11368D0002C01DA19462C460133202BF3D1012375
S11368E042F8310002EBC102536030BD981400102D
S11368F02DE9F04794B040220746002104A8DFF8B0
S1136900B081FDF77DFC012300244646634D8DF8DC
S113691010308DF820308DF823308DF830308DF81C
S113692032308DF840308DF842308DF84330B8F86D
S11369304C0080B200F066FD00224FF07F0E04A9E7
S11369402B5C081905EB030C815C9CF828C001330F
S113695081EA0C018154B3FBFEF10132C1EBC11198
S1136960102AA3EB0103EDD11034402CDFD12024F5
S11369704FF07F084A4BEE460FCB8DE80F00002303
S11369809C46381904AA02EB0311002202E00132EA
S1136990102A07D010F802A011F80290CA45F6D0C8
S11369A04EF823C00133042BECD100235EF82320DE
S11369B0002A69D10133042BF8D10134B4F53C7FAA
S11369C0D8D10024374D384FDFF8E88063195B686D
S11369D0032B0EDD6059FDF7D3FC344B0020BB6163
S11369E0012304223249C7F8308030617364FEF712
S11369F063FD0834B4F5807FE8D1012014B0BDE80C
S1136A00F08700EB0C033B44032A13F8203C0CDD15
S1136A1005EB010A9AF828A0013183EA0A03B1FBC5
S1136A20F8FACAEBCA1AA1EB0A018340013043EA1F
S1136A300E0308285FFA83FEE3D1D9F8003003F887
S1136A4002E001320A2A05D04FF0000E04EBC20C1A
S1136A507046D6E7D9F80030D978D9F800309B7859
S1136A60D9F800201B045078D9F8002043EA0163C8
S1136A701278134343EA0020FFF710FFD9F80010FF
S1136A800120FDF737FD98E7B6F84C00DFF82890B1
S1136A9080B200F0B7FC0022295CD5E718B10000F1
S1136AA0BCB90000981400104C0A001021680000C2
S1136AB0500400103946000070160010F8B51B4E43
S1136AC01B4C3746B37C0A2B00D0F8BDFEF778FC8C
S1136AD0B4F84C30DB070BD596F8070100F0AAFC9C
S1136AE0A4F84C00B4F84C10124889B202F00AFB26
S1136AF0636C4BB9B4F84C0080B200F0E1FE0E4B6D
S1136B000A203B63FEF7F2FFBD7CEDB20A2DDCD117
S1136B10042221460020FEF7CFFC084B2846BB6127
S1136B2000232361FFF7E0F8CCE700BF4C0A001014
S1136B30500400107ABA0000F168000021680000D7
S1136B4070B588B0294E202200216846FDF758FB15
S1136B50B26D152A04D90022254B9A7408B070BD71
S1136B60D5B2AB1D08A901F81F3D0523214C185DC2
S1136B7013F1FF3301F8010FF9D21F4902A804F001
S1136B8023FA05F10802D4B222466946F06800F0FF
S1136B9079FC08AB1A1902F8200C030A000C02F85D
S1136BA01F3C02F81E0C00F023FF4FF08072134BC1
S1136BB0134E144C1A600E4B9B7C0C2B04D04FF0DC
S1136BC08072114B1A60C9E705F10B016A46C9B21C
S1136BD03046FEF7DDFA236823F07F4303F5A07304
S1136BE0226822F07F429342FAD8E4E7500400106E
S1136BF04C0A0010680A0010AC04001000E100E028
S1136C00D6BE898E5414001080E100E037B55023BD
S1136C108DF8043000238DF8053000F0E9FE4FF0C4
S1136C2080720B4B0B4C0C4D1A60A37C112B03D1BF
S1136C3094F82830012B05D04FF08072074B1A606E
S1136C4003B030BD01AA02212868FEF7A1FAECE7DF
S1136C5000E100E04C0A00105004001080E100E064
S1136C60F0B58BB02D2002F091FE030A8DF80500DB
S1136C702C208DF8043002F089FE030A8DF80630CA
S1136C808DF8070000F02EFD00F0B2FE02F022FFA6
S1136C904106FBD5612002F024FF02F01BFF4207EE
S1136CA0FBD510228021134C02252260124A134F77
S1136CB011604FF48071124E11600E2002F066FED6
S1136CC000F01F000F28F8D1622002F00AFF3D6097
S1136CD002F000FFC306FBD502A92560202002F0C4
S1136CE0B5FE01A90020FDF705FC306800F05CFD4D
S1136CF0E3E700BF38C0092058C009203CC0092080
S1136D005414001008B5202002F040FE08B1FFF72B
S1136D10A7FF0322024B1A70BDE80840FEF7EEBC41
S1136D204C0A00102DE9F0411023354D2D206E7CC6
S1136D306B7402F02BFE80462C2002F027FE314CAF
S1136D40074621882D2002F02AFE61882C2002F0BB
S1136D5026FE5721032002F022FE41F24B3114207B
S1136D6002F01DFE40F66171202002F018FEA18899
S1136D70022002F014FEE1790520F6B202F00FFEC3
S1136D8002F0A8FE4106FBD5612002F0AAFE02F043
S1136D90A1FE4207FBD54FF480721B4B1A60802280
S1136DA01A620E2002F0F2FD00F01F000F28F8D145
S1136DB0A079164902F006FE632002F092FE0E202E
S1136DC002F0E4FD00F01F000F28F8D14FF48072A8
S1136DD00F4B64201A6002F084FE02F07BFE43072E
S1136DE0FBD480220B4B41461A602D2002F0D7FDC4
S1136DF039462C2002F0D3FDAE74BDE8F08100BF0B
S1136E004C0A00105814001038C0092060140010F7
S1136E103CC009205CC009202DE9F0478EB0102247
S1136E203C4B1A6000F05EFC00F0E2FD80223A4B1D
S1136E3042F622311A60122002F0B1FD41F24B31C8
S1136E40142002F0ACFD40F20111202002F0A7FD55
S1136E502921032002F0A3FD02F03CFE4106FBD5EC
S1136E6002F038FE10F00404FAD1DFF8B490DFF831
S1136E70B48099F81230042B05D01022274B1A60E5
S1136E800EB0BDE8F087B8F85250DFF89CA0ADB260
S1136E90B8F854309BB2AB42EBDB691E022089B2D6
S1136EA002F07DFD612002F01CFE02F013FE420799
S1136EB0FBD5622002F015FE4FF4FA730093009E96
S1136EC0013E0096002EFAD104EB44070EAB1F449A
S1136ED006202B0A07F8343C07F8335C02F056FD11
S1136EE00134E4B2000A102C07F8320C08D101A9CD
S1136EF00420FDF7FFFADAF8000000F055FC3446F0
S1136F00642002F0EEFD02F0E5FD4307FBD40135F9
S1136F10ADB2BDE738C0092058C009203CC00920E3
S1136F204C0A00105004001054140010F0B585B041
S1136F3040F66C13ADF8083040F68513ADF80A300E
S1136F4040F69E138022ADF80C303F4B42F62231BE
S1136F501A60122002F023FD41F24B31142002F09A
S1136F601EFD40F20111202002F019FD2921032009
S1136F7002F015FDF121062002F011FD02F0AAFD38
S1136F804106FBD502F0A6FD10F00404FAD12F4F00
S1136F902F4D304EBB7C072B01D005B0F0BD04ABA8
S1136FA003EB440333F8081C0220013989B202F0D0
S1136FB0F6FC612002F095FD02F08CFD4207FBD542
S1136FC0622002F08EFD4FF4FA730193019B013BA2
S1136FD00193002BFAD1062002F0D8FC1E4B40F39B
S1136FE0072093F856305BB2984220DD012C1AD06A
S1136FF015D3022C19D00323013494FBF3F303EBD0
S11370004303E41A154BE4B2186800F0CDFB642086
S113701002F067FD02F05EFD4307FBD4BAE74FF4CC
S113702080733360E7E71023FBE73460E3E7012C68
S113703008D003D3022CDED12C60DCE74FF480733C
S11370402B60D8E71023FBE758C009204C0A001036
S11370503CC0092038C0092050040010541400100A
S113706008B502F0FBFD00F0C9FC3A4800F014FB3F
S1137070394DFDF78BFA00F0DFFC002001F0E4FF4E
S11370803649374802F03EF82C46364E306800F058
S11370908BFBAA7C6B7C9A42F8D0AB7C112BF5D885
S11370A0DFE803F05414162B40323A431B1D220927
S11370B025460F4C5128012002F094FB02F0D8FD24
S11370C0E4E70E236374FEF719FBDFE70123F9E716
S11370D002236374FEF7CAFBD8E70823F2E7092307
S11370E0637401F0CBF8D1E7FFF7E8FCCEE7FFF7D4
S11370F027FDCBE7FFF78AFDC8E703231A49284693
S1137100637401F003FDC1E705231748637401F0BC
S1137110F5FA0023A374B9E706231348637401F056
S113712037FCB3E7FFF778FEB0E7FFF7FFFEADE704
S11371300D236374207D01F049FFA7E70F236374D7
S1137140FFF7E0FDA2E7FFF7EDFD9FE7FDF71EFA6D
S11371509CE700BF494700004C0A0010BFB1000083
S113716087BA0000541400109C0400102DE9F04369
S113717000200021454A464CC2E900014F25002267
S11371802046444B1B68560096FBF5F105FB116144
S1137190115501324F2AF6D13F4AC3F3C45111703D
S11371A03E4AC3F3C341C3F38707C3F347061170D1
S11371B0C3F30715C3F3C70106F0020207F0040482
S11371C0144301F0080E05F0100242EA0E021444C2
S11371D003F001021444324A01F004011470314AEC
S11371E0C3F38824148007F00207DA099C0902F02B
S11371F0400204F02004394306F001065B092243EF
S1137200314403F0100305F008050A442B431344EA
S1137210254A1370254B1B7863B30022244F134671
S11372203E4600250021D45D54EA050C5FFA81FE38
S113723001F1010120D1013273440A2ADBB2F0D1F9
S11372401C4A4F2513700023194693FBF5F205FBE6
S11372501232D7B2FC08345D02F0070244FA02F29B
S1137260D20748BF4A1C03F1020344BF4754D1B2BA
S11372709E2BEAD1BDE8F08314F1FF3845F1FF39C4
S113728004EA080405EA0905CEE700BF6816001001
S1137290751A0010101A0010731A0010201A00102A
S11372A0741A0010221A0010C41A00109719001042
S11372B07B130010791300102DE9F04186B0464B82
S11372C0464C1E884F2304EAD004B4FBF3F203FBBC
S11372D01241434BC0F3400E1A78424B86EAD01653
S11372E01B7882EA104283EA505303EB90003E4B32
S11372F04FEA4E171B78BDB258400023A7EB0E0788
S113730002F01F027A40C6F3080600F01F0002AF25
S113731046FA03FE0EF0010E03F807E00133092BD1
S1137320F6D1002307EB030E42FA03F6013306F00D
S11373300106052B8EF80960F4D1002240FA02F30D
S113734003F001030DF802300132052AF6D10D22B3
S1137350264E06F10E0EBB5C7BB1905D06AB184465
S113736012F80E300DF11808434410F818CC13F835
S1137370188C00F8188C03F818CC12F1FF32EAD2FA
S1137380002210461DF80030834001301A440528BD
S1137390D2B2F7D1164B1B789E184A194F213244AA
S11373A0B2FBF1F301FB1322124B985C124B1B78D6
S11373B06BB1124B1978B4FBF1F301FB13432B446B
S11373C03344B3FBF1F201FB12330D4AD05C00F6F7
S11373D0621006B0BDE8F081221A0010F0FFFF0130
S11373E0741A0010731A0010201A0010A4BA0000B6
S11373F0C41A0010751A00109719001079130010A0
S1137400241A00100223A0F6621090FBF3F083B25A
S113741053B10B2B02D80138C0B270470C2B05D0E6
S1137420262B05D80238F7E7252070472620704719
S1137430272070470A2803D8400000F664107047DC
S1137440242803D8400000F666107047252806D08B
S1137450262840F67A1018BF4FF41B60704740F698
S11374606210704710B5417D02460846FFF7E2FFFF
S11374702524937D0B4493FBF4F104FB11335375E2
S113748010BD0000F0B50B460B4F20F07F405C1A96
S1137490A24200DCF0BD082413F8015B85EA000673
S11374A016F0010F4FEA500018BF7840013C4FEA34
S11374B05505F3D1EBE700BF0060DA00F0B50346F1
S11374C0124E013A002A0EDA0022104623FA02F183
S11374D0C2F1170401F001010132A140182A40EA67
S11374E00100F3D1F0BD07248F5C47FA04F0DD0DF1
S11374F000F001005B0023F07F436840034305B1C3
S1137500734014F1FF34F0D2013ADBE700C0B40059
S113751030B50C46074D20F07F40631A9A4200DCD8
S113752030BD14F8013B4340DBB255F8233083EA05
S11375301020F2E7C8040010F8B5044690B2FFF733
S113754061FF154E4FF07F0E325C2046214481428C
S113755020D04FF0000C644610F8017BC4F10705FD
S113756047FA05F303F00105B31893F82830013204
S11375706B40B2FBFEF5A3400134C5EBC5154CEAE4
S11375800303082CA2EB05025FFA83FCE6D100F8A2
S113759001CCDCE7F8BD00BFC0BA0000F8B50C466A
S11375A00546C02200212046FCF72AFE01260023BE
S11375B0681E043510F8012F03F1080712F00101C9
S11375C01BBF44F82360D4F8BC1044F8231004EB28
S11375D0010E1CBF8EF89430013103F1010318BF72
S11375E0C4F8BC10252B4FEA520201D09F42E5D1CA
S11375F08542DFD10220F8BD51F8203043B9D1F8DB
S1137600BC20B0FBF2F302FB1300014491F8940098
S11376107047000013B543881268ADF800308388C2
S1137620ADF80230C3884078ADF80430044B1C68D0
S11376300B466946A047431E5842584102B010BD4C
S1137640CC3B001070B586B001AD044669462846AF
S113765002F044FB9DF80430DBB920461E461C466C
S11376600133EA5C80F87D601109092902F00F02F8
S11376708CBF57313031092A8CBF57323032102B2E
S113768080F87C1080F87E2080F87F4000F10400B0
S1137690E6D106B070BD000038B505460C4C02F0CA
S11376A0F1FB2046FFF7CEFF204602F02BFE094BEC
S11376B0094A0A4902201D6002F0DAFB0849FF204A
S11376C002F00AFE012002F074FC002038BD00BF65
S11376D0C8080010CC3B0010C83A00101576000012
S11376E067BB00000021044B4FF4005203481960AB
S11376F05960FCF785BD00BFA40B0010C81A001028
S113770010B50A4A1468536804F07F0003F07F033D
S1137710591C01F07F0188421FBF516804480131A0
S113772000EB831014BF5160002010BDA40B0010A7
S1137730C81A0010084A1368516803F07F0301F067
S11377407F018B421FBF11680448013100EB831095
S113775014BF116000207047A40B0010C81A001059
S113776037B50546FFF7E6FF0D4B044640B1014629
S1137770402282209D6002F04DFC012003B030BD08
S11377809A680849AA1A8A4208D9032202A901F868
S1137790012D822001229D6002F03CFC2046EDE791
S11377A0A40B0010801A060038B50446822002F0AB
S11377B00BFC8206054602D42046FFF7D1FF6B0678
S11377C002D42046FFF7CCFFBDE8384002F08ABC63
S11377D008B59E2200210748FCF712FD0023064A43
S11377E01370064A13608022054B1A707F22054BE2
S11377F01A7008BDB00B001096190010D03B001091
S1137800781300107A1300100B4A92F90030834267
S1137810B8BF03461370094A92F900308342A8BFE7
S113782003461370064A136803EB00231360054AEA
S11378301378013313707047781300107A13001013
S1137840D03B00109619001010B540F66213B0F545
S11378501B6F38BF18460D4BA0F662101B7823B17E
S11378600B4A1268803292FBF3F3FD24094903EBBF
S1137870430331F9102004FB02334FF48072803348
S113788093FBF2F321F8103010BD00BF96190010DD
S1137890D03B0010B00B001040F66213B0F51B6F24
S11378A038BF1846054BA0F6621033F910004FF4A8
S11378B08073803090FBF3F040B27047B00B00103F
S11378C038B5134D95F90040002C05DDFFF7E4FFB2
S11378D02C78363C044464B26FF077008442B8BF1D
S11378E004466FF013008442A8BF044604F1380133
S11378F041F00301C9B2062002F051F8054B14F11E
S1137900770F1C70ACBF00240124034B1C7038BDDE
S1137910981900100C1A0010601600100022074B72
S11379201A704FF40012064B1A600422054B1A60B9
S1137930054A136843F00403136070470D1A0010DE
S113794000E100E0AC800240B4800240074A1368C2
S113795023F0040313600422054B1A604FF4001251
S1137960044B1A600022044B1A707047B480024022
S1137970AC80024080E100E00D1A001008B5FFF76A
S1137980E5FF0022034B1A708823034A1370034A4D
S1137990137008BD60160010981900100C1A00101E
S11379A002220A4B1A600023094A1360094A136031
S11379B0094A1360094A1380094A1380094A13804B
S11379C0094A1360094A1360704700BF044000402D
S11379D05414001070130010881300106216001065
S11379E094190010501400104C140010CC190010FD
S11379F00122014B1A6070470440004008B5FFF7AC
S1137A00CFFF0422054B1A6040F63442DA600322A9
S1137A109A600222024B1A6008BD00BF0C4000406D
S1137A2000E100E008B5FFF7BBFF0222014B1A603A
S1137A3008BD00BF80E100E0114A136843F0005321
S1137A4013604FF080620F4B1A6000230E4A1360DC
S1137A50136213641366C2F88030C2F8A030C2F80F
S1137A60C030C2F8E030FF23A2F584721360936043
S1137A700122064B1A601A68D207FCD5704700BF72
S1137A80C4C00F4000E100E01041005030400050FD
S1137A9030B50123134A14481360144C93601449FD
S1137AA0144B154A154D146093605160D0609A6070
S1137AB0134A5D601C60D8601460516093604DF29D
S1137AC00602104B18605A6000220F4802600F48EB
S1137AD002600F4A11600F4A15605A6842F00102B1
S1137AE05A6030BD084000503290008808000340BE
S1137AF0D5190010843C0010943C00109919001012
S1137B00004100500C41005074130010081A00107A
S1137B10941400107016001030B50123134A144D4C
S1137B20136093600022134B134C144904EB82003E
S1137B300A2A43F80C0C14BF1846002001320B2A01
S1137B4043F8105C03E9030003F11003EED10C4B7E
S1137B500C4A196811605968516099689160DA6833
S1137B60094B1A604DF206025A6030BD08400050BD
S1137B7008000340E43B0010D519001004100088ED
S1137B80D43B0010004100500C4100504FF0805293
S1137B900A4B0B491A600B6843F001030B6051F860
S1137BA0203C43F0020341F8203C06490B6843F0B3
S1137BB001030B60044B1A60704700BF98C0092092
S1137BC024000340104100509CC009204FF0805213
S1137BD00A4B1A600A4A136823F00103136052F82F
S1137BE0203C23F0020342F8203C0022054B1A609B
S1137BF00123054A13609360704700BF98C00920B1
S1137C0024000340104100500840005030B50C4B94
S1137C100C490D4A0D4803F110044D1CDA6018603C
S1137C2059609C601861DA615D619B61084B186062
S1137C3059609C60DA604DF206021A6130BD00BFE3
S1137C40500C0010E43C00100100008008000340C8
S1137C5000410050034B044A1860136843F00103C9
S1137C60136070471880004014800040054B064A9A
S1137C701B681E33136052F80C3C43F0400342F877
S1137C800C3C7047088000402080004030B5002440
S1137C9023460144934201D1204630BDCD5CD80037
S1137CA085402C430133F5E710B5084A431E0530DF
S1137CB0D47913F8011F214012F8014F8C4203D1EB
S1137CC08342F5D1012010BD002010BD87040010AF
S1137CD010B5054C4FF4E472002104F12000FCF7C8
S1137CE08FFA024B236210BD500C0010D6BE898E51
S1137CF070B500234FF49275124C04F5F47105FB32
S1137D0003F28E18D6F81801B8B100251444C4F84B
S1137D100053C4F8F052C4F8EC524FF4827229466E
S1137D203046FCF76DFA7F2384F804338023C4F8CB
S1137D30085384F80533304670BD0133042BDED17B
S1137D4070BD00BF500C001010B51B4B186A01F039
S1137D502FFD044647F6FE710D2001F020FE42F689
S1137D602231122001F01BFE41F24B21142001F0BC
S1137D7016FE44F2E141202001F011FEA1B22C20B4
S1137D8001F00DFE210C2D2001F009FE0B4B022009
S1137D901988013989B201F002FE4021032001F063
S1137DA0FEFD01F097FE4306FBD5612001F099FE2C
S1137DB0BDE81040FFF75ABF500C0010D43C00102F
S1137DC070B5642001F08DFE284A13681C3A23F034
S1137DD00103D361264B1C6814F0040430D1254DF3
S1137DE04FF48272D5F878662146C6F80841C6F881
S1137DF004413046FCF704FA7F2386F81C318023C3
S1137E00C6F8204186F81D31FFF700FFFFF7BEFEDC
S1137E102A6A194B9A4217D140F67A12174B1B88DB
S1137E209BB293420ED0B3F51B6F0CBF27202520C5
S1137E30FFF700FBBDE87040114B1880FFF784BFCB
S1137E401168C8E72620F3E7252295F82C0095F859
S1137E502D3005F14001034493FBF2F002FB103096
S1137E60C0B285F82C00FFF7C7FBE1E7240003400C
S1137E700C000340500C0010D6BE898EA0040010E4
S1137E80D43C001038B52B4801F03CF92A4A2B4B5E
S1137E905068022806D114680121C3F80041C3F8D0
S1137EA004111EE001280BD1D3F8041141B1D3F819
S1137EB000111D6B146829441E31091B3B29EBD9A1
S1137EC0D3F8041139B91168C3F800111C490968C1
S1137ED0C3F8081105E0D3F800111C6B2144C3F862
S1137EE00011174C10B12168C3F80811002151602A
S1137EF09160B3F80C21D3F808010132A3F80C21E6
S1137F002268121A586B824205D9FFF7E1FEBDE8D8
S1137F103840FFF755BF0B4A106808B11160F4E709
S1137F20D3F800011B6B1844A0F6B830BDE8384004
S1137F30FFF790BE35BC0000D83C0010500C001078
S1137F4008800040700A0010F8B5694801F0DAF8BA
S1137F50684D694B2F681B68DE0749D5674B1B6862
S1137F60DC073ED50123664E0620336001F00EFD8A
S1137F70644C40F30720D4F8783693F91C21D3F8E5
S1137F802011824293F91D21C8BF83F81C0182424B
S1137F90D3F808210144B8BF83F81D015A48C3F837
S1137FA0201102F00101415C99540132012AC3F805
S1137FB008211ED15549A7F5C8770A88088892B2C6
S1137FC0C3F81021226AC3F80C71C3F8142180B2DB
S1137FD0FFF718FA242804D84D4A136823F0010344
S1137FE013604C4B1B68DB0742BF01224A4B1A60EB
S1137FF0F8BD022A2ED1B3F810015E78FFF702FA19
S11380007F270021454D2B5CAE460833B3FBF7F2C6
S11380100846C2EBC2129B1AC0F1070246FA02F2EA
S113802002F001050EEB030292F8282001336A40A6
S1138030B3FBF7F582400130C5EBC5150A430828A8
S1138040A3EB0503D1B2E7D1D4F878360531C3F8F0
S11380500411C6E7C5D9D3F804319A42C1D36120CB
S113806001F03FFD00222E4B2E491A6001232E4AB7
S113807033601368183A23F00103936113685807B7
S113808026D4D4F87816294800F01AFB1F4B188818
S113809080B2FFF7B7F924280FD8254A5368013373
S11380A0012B536016D1D4F87836D3F80C31136011
S11380B0286800F6B830FFF7CDFDFFF719FEC4F8C5
S11380C07806FFF7A3FDFFF761FDFFF7CFFD88E713
S11380D00B68D3E7022BF0D1642001F002FDFFF717
S11380E007FEC4F87806BDE8F840FFF7CBBE00BF32
S11380F048BC00000880004000400050044000508C
S113810008400050500C0010E43C0010D43C001017
S1138110148000400C400050104000508EBB000002
S1138120104100500800034024000340A43C001008
S1138130D83C001038B5494B1A68D0075AD50121EC
S11381401960474B474DD3F810211C4692B3B3F83E
S11381500C01B3F81C2190422CD1AA6862B9D86BE7
S113816050B1D3F800211B6B1044A0F6B83018446A
S1138170FFF770FDA96038BD0123AB600023D4F87C
S11381801401C4F80431C4F81031D4F80031206368
S1138190184400F5A540E36B5030184494F8383087
S11381A0D4F8182118446263FFF754FDBDE8384041
S11381B0FFF706BED4F8203173B1B4F80C21B4F83B
S11381C024319A4208D12849C022A1F1E80002F0E2
S11381D0FBFE0023C4F82031AB68002B35D101230A
S11381E0AB60224B186800F5BD400830FFF732FD44
S11381F0FFF7E6FD194B1A6891070DD502221C49B9
S11382001A600B6823F008030B604FF48071194B5C
S11382101960102119601A60104B1A6852071BD597
S113822004221A6001F056FC430711D5622001F0C4
S113823058FC8022104B1A604FF480721A600C4A6A
S1138240136823F04003136038BDFFF71BFED1E72A
S1138250BDE83840FFF70ABD38BD00BF00800040CC
S1138260500C0010D83C0010780D0010088000401D
S1138270148000403CC0092058C009202DE9F04F6B
S113828087B04FF080730125DFF85083C04CC8F8E5
S11382900030FFF7C7FBBF48C4F80053C4F82454A8
S11382A0C4F84855C4F86C5600F006FA0223BA4ED6
S11382B0BA4A336004231360B94A35601360FFF788
S11382C017FDB84BB84A1B88C4F878069BB21380D4
S11382D0B64BB74F2362FFF705FA01F0CDFAFFF76B
S11382E095FCFFF753FCFFF72FFD0020DFF8F09219
S11382F0386000F0A9FECDF804800296AD4B1B78DF
S1138300092B11D00222029B01991A6004230B60ED
S11383101021A94B19604FF4807119601A60FFF79E
S11383206DFB07B0BDE8F08F002306A941F8043DBA
S1138330984800F0D3F9002800F0DD8005989F4E9E
S1138340D0F81021D0F80411FFF7F6F8736C002B65
S113835040F0B88010239A4ADDF814801360994BDA
S1138360994A1B6803F5C333A0331360D9F800306E
S113837043F00803C9F80030FFF7C2F905460028A6
S113838040F0D480059DB5F81001FFF73BF8242890
S1138390297840F2278101F00F01052940F0A780D8
S11383A0736B002B00F0A380D5F80431272B40F029
S11383B09E803B680BB100233B6004220E212846BB
S11383C0FFF764FC0322122120622846FFF75EFCBB
S11383D0606201F0EDF90122A06215212846FFF741
S11383E055FC022284F83800162182462846FFF7FD
S11383F04DFC0222E063182180462846FFF746FC24
S11384000222064620631C212846FFF73FFC012276
S11384106063834623212846FFF738FC40F67A43FD
S1138420B21F00F01F009A4284F82D0000F2AD80C4
S113843043F2D4035E4303FB08F296422663E263ED
S1138440C0F0A3805FFA8AFA03FB0AFA43F2D3036B
S11384509A4540F39A805D4BA6F54356143E9E42DE
S113846028BF1E46B24500F2908003FB0BF3A3F530
S1138470742B6363564BABF5107B9B4500F28580F0
S1138480544905F11E00FFF789F8D4F8FC30002B9D
S11384907BD00022D9F8003023F04003C9F8003023
S11384A04D4BE06B5A609A605022D5F80C3100F5C0
S11384B01A502C301844D5F8043102FB0300FFF79E
S11384C0C9FB14E0059DB5F81001FEF79BFF2428B5
S11384D07FF640AF2B7803F00F02062A07D801235A
S11384E0934013F0550F0AD113F02A0F11D1012232
S11384F0059BC3F818210020FFF756F9FEE6D5F8CE
S11385000431072BF3D9A81CFFF7CEFB0028EED0CB
S113851020E7D5F804310D2BE9D9A81CFFF7C4FBDB
S113852000287FF417AF05F10800EDE74FF0000ACB
S1138530012380F803A00370D8F80C3108F58A7180
S11385404360D8F810310E30623B00F80C3CD8F888
S11385500421D8F82031B3FBF2F300F8043C98F876
S11385601C31042200F8053C98F81D3100F803ACD6
S113857000F8063C02F028FD2E22414605F11200C7
S113858002F022FD85F801A0FCE6FFF7A1FBAEE7AF
S1138590500C0010A43C0010048000400C800040EB
S11385A000E100E0A0040010D43C0010D6BE898E87
S11385B0700A00105E0A00103CC00920500400102C
S11385C038C00920088000401C800040A0860100BB
S11385D0C08D0313900C0010D83C001080E100E023
S11385E01480004001F00301032980D195F8018033
S11385F0B8F1000F3FF47BAFAB78A3B1012B7FF44C
S113860076AFB8F1080F7FF472AF414602222846D4
S1138610C4F82031FFF73AFB2549A4F82401E81CEB
S1138620FEF7BCFF63E7B8F10C0F7FF460AF0122E3
S11386302846FFF72BFB0222C6B20421284684F801
S11386403860FFF723FB02228246E06306212846B6
S1138650FFF71CFB0222C4F8140103900A212846E8
S1138660FFF714FB02228346C4F81801414628464A
S1138670FFF70CFB06EB460206EB820206EB8206D2
S113868043F2D402039B02FB0AF15343C4F81431AE
S1138690084BB60003FB0BF3C4F818310123A4F80C
S11386A01C0184F83860E163C4F810311FE700BF8F
S11386B0780D0010A086010000238362C362704716
S11386C0C36A826A01330A2B28BF002393421DBF69
S11386D040F82310C362012000207047836AC26AF5
S11386E0934209D001330A2B28BF002350F82320DA
S11386F00A60836201207047002070472DE9F0472B
S113870098B000AF152387F83030002387F8313054
S11387103A23BB60984B82461B6807F11C0107F1A2
S11387200800C7F804D098473B7F002B40F0208115
S11387303B6A42F622311A0E87F832201A0C87F867
S1138740332087F835301A0A7B6A87F834201A0EEA
S113875087F836201A0C87F8372087F839301A0A38
S1138760BB6A87F838201A0E87F83A201A0C87F863
S11387703B2087F83D301A0AFB6A87F83C201A0E22
S113878087F83E201A0C87F83F2087F841301A0AF0
S1138790FF23122087F8402087F8443087F84530BB
S11387A001F0FDF841F24B31142001F0F8F840F6E5
S11387B0F151202001F0F3F8BAF80010022089B238
S11387C001F0EDF84FF6AE112D2001F0E8F841F27A
S11387D084512C2001F0E3F80821052001F0DFF892
S11387E02921032001F0DBF801F074F94206FBD5DE
S11387F0612001F076F901F06DF94307FBD54FF4E0
S113880080725E4B8021002498461A605C4A07F10E
S113881030051160E6B246F00801052001F0BFF80A
S113882087F84260002687F843600E2001F0AEF816
S113883000F01F000F28F8D14FF0000915F80910B7
S1138840702009F1010901F0B8F8B9F1160FF5D15A
S11388506320013601F045F9102EE4D10134082CCF
S1138860D8D10E2001F092F800F01F000F28F8D1A3
S11388704FF48073434C6420236001F032F901F01B
S113888029F94607FBD4BAF800100220013989B24D
S113889001F085F801F01EF94006FBD5612001F0D6
S11388A020F901F017F94107FBD5102307F1480619
S11388B0C8F800300E2001F069F800F01F000F28FE
S11388C0F8D1622001F00DF901F004F9C206FBD5DC
S11388D002234FF00009C8F80030702001F064F85A
S11388E006F8090009F10109B9F1160FF5D101F0F3
S11388F0F1F8030702D402232360DBE70E2001F022
S113890045F800F01F000F28F8D1642001F0E9F8C1
S113891001F0E0F810F00400FAD180221A4B1A603A
S11389201023236097F85A10184B0122597097F8B6
S11389305B101A70997097F85C1087F83120D97021
S113894097F85D101971014616F801C015F801E099
S1138950F44518BF8A1C01F101011CBFD2B20120E9
S11389601229F1D100B11A7002232360D7F804D080
S11389706037BD46BDE8F087B0BC000038C00920B0
S113898058C009203CC009205CC00920D01900103F
S11389902DE9F04F87B0DFF870A181460225D34658
S11389A042F62231122000F0FAFF41F24B3114203A
S11389B000F0F5FFB9F800100220013989B200F087
S11389C0EEFF4FF6AE112D2000F0E9FF41F2845185
S11389D02C2000F0E4FF0821052000F0E0FF29210D
S11389E0032000F0DCFF01F075F84106FBD561209F
S11389F001F077F801F06EF84207FBD51023CAF8AE
S1138A0000304FF480733E4C8022274623603D4B58
S1138A1025601A600E2000F0B9FF00F01F000F2837
S1138A20F8D13D60622001F05CF801F053F8C30610
S1138A30FBD50026CBF80050702000F0B5FF0DF8F0
S1138A4006000136162EF7D101F044F80607E1D5E9
S1138A50102325606420236001F043F801F03AF804
S1138A604007FBD401F036F84106FBD5B9F80010F5
S1138A70022089B200F093FF01F02CF84206FBD5E6
S1138A80612001F02EF84FF48073CBF800301523E9
S1138A908DF80030012300268DF80130F7B247F03D
S1138AA00801052000F07BFF8DF8147000278DF875
S1138AB015700E2000F06AFF00F01F000F28F8D197
S1138AC04FF000081DF80810702008F1010800F0AC
S1138AD074FFB8F1160FF5D16320013701F001F8E6
S1138AE0102FE4D10136082ED8D14FF480736420BE
S1138AF0236000F0F6FF00F0EDFF4307FBD44FE7DF
S1138B003CC0092058C0092038C0092038B5037872
S1138B100D468BB30378012B2DD1402442F622312C
S1138B20122000F03CFF43F24B31142000F037FFD9
S1138B3040F6F151202000F032FF2988022089B24A
S1138B4000F02DFF2146032000F029FF00F0C2FFB2
S1138B504206FBD5612000F0C4FF00F0BBFF4307D1
S1138B60FBD54FF48072054B63201A6000F0B9FF07
S1138B708022034B1A6038BD2924CFE738C009206E
S1138B8058C009204FF08052034B1A60034A1368FF
S1138B9023F002031360704798C0092004000340C7
S1138BA010B5064C0649431E233022685207FCD5F3
S1138BB00A6803F8012F8342F7D110BD0C0003406B
S1138BC00800034010B540F63544074B074A1B68BC
S1138BD01268C3F3130304FB0323836042F210738C
S1138BE05943C16010BD00BF541400100840004038
S1138BF040F635410A4B0B4A1B681268C3F3130352
S1138C0001FB03238268C06893423CBF03F14343E2
S1138C1003F5A0039B1A834234BF00200120704750
S1138C20541400100840004070470000002340F630
S1138C3068124360024B1A8001230370704700BF1F
S1138C409C040010012303707047000030B58BB002
S1138C502822044600216846FBF7D2FA40F6354143
S1138C601A4B1B4A1B681268C3F3130301FB03234B
S1138C7020460993FFF7BCFF28B104212046FFF7E3
S1138C80A1FF0323237000F025FFC30612D510258E
S1138C90104B68461D60FFF783FF099A694606205A
S1138CA0FCF7DCF80C4B06211D602046FFF78AFF19
S1138CB0032323702378022B06D0642000F011FFD5
S1138CC0FFF760FF012323610BB030BD5414001083
S1138CD00840004038C009203CC0092010B547F6C0
S1138CE0FF7104460D2000F05AFE42F62231122094
S1138CF000F055FE41F24B31142000F050FE4FF4C9
S1138D009861202000F04BFE1D4B02201988013988
S1138D1089B200F044FE2621032000F040FE032126
S1138D20212000F03CFE46F20F312D2000F037FEEA
S1138D3049F6FE712C2000F032FE00F0CBFE420614
S1138D40FBD54FF080520F4B0F491A600B6861201E
S1138D5043F002030B600D4B1A6000F0C2FE00F0FA
S1138D60B9FE4307FBD50E2000F010FE00F01F00F3
S1138D700F28F8D1622000F0B4FE0223237010BD46
S1138D809C04001098C00920040003409CC00920E2
S1138D9010B547F6FF7104460D2000F000FE42F6C0
S1138DA02231122000F0FBFD43F24B31142000F07D
S1138DB0F6FD4FF49861202000F0F1FD1A4B0220DB
S1138DC0198889B200F0EBFD2621032000F0E7FDAD
S1138DD00321212000F0E3FD0F21052000F0DFFD39
S1138DE000F078FE4206FBD5612000F07AFE00F028
S1138DF071FE4307FBD50E2000F0C8FD00F01F00F4
S1138E000F28F8D18022094B63201A6000F069FE14
S1138E104FF48072064B1A6005232370A369A36084
S1138E2044F62063E36010BD9C04001058C0092080
S1138E3038C0092010B50446FFF7DAFEA8B163680C
S1138E40072101335A4202F0030203F0030358BF1F
S1138E505342064A636032F81320054B20461A80B9
S1138E60FFF7B0FE01232361237010BD5CBC00003A
S1138E709C04001010B50446FFF7BAFE30B101237C
S1138E8023702361A369A360014BE36010BD00BF9D
S1138E90B0AD010010B50446FFF7AAFEF8B1642096
S1138EA000F01FFE80220E4B1A604FF4807243F8CC
S1138EB0202C636801335A4202F0030203F00303D7
S1138EC058BF5342074A636032F81320064B1A8096
S1138ED003232370A369A3604EF66023E36010BDEF
S1138EE05CC009205CBC00009C04001010B5044662
S1138EF000F0F0FDC3060ED504232370012340F6D1
S1138F0035416361104B114A1B681268C3F31303A4
S1138F1001FB0323A36123695BB12046FFF768FECD
S1138F2038B10423237000230B2163612046FFF72B
S1138F3049FE2378022B06D0642000F0D2FDBDE860
S1138F401040FFF71FBE10BD54140010084000402D
S1138F5010B58AB0282200216846FBF751F940F683
S1138F603541164B164A1B681268C3F3130301FB01
S1138F700323099300F0AEFDC2061DD51024114B46
S1138F8068461C60FFF70CFE099A69460620FBF749
S1138F9065FF0D4B61201C6000F0A3FD00F09AFDFD
S1138FA04307FBD50E2000F0F1FC00F01F000F2852
S1138FB0F8D1622000F095FD0AB010BD54140010E1
S1138FC00840004038C009203CC0092030B589B0B1
S1138FD004461C22002101A8FBF712F9012C144DB0
S1138FE006D016D3022C16D000232B7009B030BD46
S1138FF0104C4FF08072104B1A6000F03DFC2B783F
S11390000D2B0AD19DF8043001A854F82330984759
S1139010F5E70A4CEDE70A4CEBE7642000F061FD4C
S1139020FFF7B0FD4FF08072064B1A60DEE700BF19
S11390305E0A001080BC000000E100E064BC000097
S113904098BC000080E100E0284A0B21136843F03B
S1139050100313608322264B1A60264A04331160DE
S113906000215160D321916253F8042C22F0800234
S113907043F8042C002836D0C0221A6009221E4B63
S11390801A601E4A1368043223F0404343F08043BD
S113909042F8043CD36B23F04043D363136823F0BA
S11390A0030343F001031360154B196821F0030116
S11390B01960B8B1116821F00C0141F0040111608C
S11390C0196821F00C0141F008011960116821F4BC
S11390D0405141F4805111601A6822F4405242F424
S11390E000521A6070471860C8E700BFC4C00F4040
S11390F00C000140000001400800014000C0024093
S113910044C002400FB437B5134B1D68FDB90122AA
S1139110124C1A60FF2107AB069A2046019300F017
S1139120F3FA204684F8FF5001F0C4FF0C4B0D4ABB
S11391301C605A604CF68022C0F30B0040F00440DF
S11391409D60D8601A611A6942F001021A6103B085
S1139150BDE8304004B07047CC120010E63C00106B
S1139160E0410050000001402DE9F84F00278046FF
S11391708946934601240025D2F810A0D6682246D9
S11391802B464046494601F093FDB94208BFB04220
S113919008D2002654EA05030CD100238AF80030D3
S11391A0BDE8F88F04FB07F306FB0533A4FB064573
S11391B01D44E4E722462B464046494601F078FD2B
S11391C022462B4649460746404601F071FD20469B
S11391D0294690469946DBF80C20002301F068FDEF
S11391E004460D4626B9002F02DC54EA0503D1D10A
S11391F0092F0AF101020CDD9BF8003013F0040F73
S113920014BF372357231F448AF80070013692464F
S1139210C0E73023F7E7F0B501230A69CC68B0FB57
S1139220F3F5A54203D200261BB91370F0BD6343C6
S1139230F5E7B0FBF3F5CC6803FB1500B3FBF4F3DF
S11392401EB9002D01DC002BEED1092D02F101071E
S11392500ADD0C7814F0040F14BF372457242C446F
S1139260147001363A46DFE73024F8E7F0B50123FD
S11392700A69CC68B0FBF3F5A54203D200261BB9FA
S11392801370F0BD6343F5E7B0FBF3F5CC6803FB63
S11392901500B3FBF4F31EB9002D01DC002BEED155
S11392A0092D02F101070ADD0C7814F0040F14BF34
S11392B0372457242C44147001363A46DFE730240F
S11392C0F8E72DE9F04106460F4615465468136940
S11392D013F8012B002A44D12B7A002B45D12B788B
S11392E0990703D5EA68102A41D1023C13F0090F0B
S11392F008D1A046B8F1000F3EDC631E002CB4BFB9
S11393001C461C1B297A09B13046B8472B789A07AA
S11393100DD5EB68102B35D130213046B8472B786A
S113932013F0040F14BF582178213046B8472B7826
S1139330DB0708D5A046B8F1000F27DC631E002C1C
S1139340B4BF1C461C1BD5F8108018F8011B19BBB0
S11393502B7803F00903082B01D1002C1FDCBDE896
S1139360F081002CB8DD013CB2E7013CB7E7082AE4
S113937008BF04F1FF34B9E720213046B84708F1AB
S1139380FF38B7E7082BD2D13021CEE73021304661
S1139390B84708F1FF38CEE73046B847D5E7202173
S11393A03046B847013CD8E78368026893423CBF23
S11393B04268D15483680133836070472DE9F047D4
S11393C08CB0804689461C4606AE05961578571C17
S11393D015B90CB0BDE8F087252D08D00A2D02D1AF
S11393E00D214046C84729464046C84796E000221A
S11393F0964611469446104692469DF804300292D1
S113940003F0FC0362F3C3038DF804308DF80C20E1
S11394103D4615F8013B002B49D128B19DF80400C5
S11394206AF3C3008DF8040029B19DF804106CF3AD
S113943000018DF804102AB19DF804206EF3410256
S11394408DF80420A3F13002092A0FD800210A2044
S1139450A3F13002D7B2092F39D9A3F16102052A49
S11394603AD8A3F157020A2A31DD02912E2B0BD1EF
S11394709DF8043043F001038DF8043015F8013BE6
S1139480A3F13002092AF9D97A2B2CD12B786F1C3D
S1139490692B0AD000F2DD80582B00F0E38031D92B
S11394A0632B00F0C180642B38D101237CE02D2B89
S11394B006D0302B08D0232BAFD10122964601E0F1
S11394C0012082462F46A3E701218C46FAE700FBE0
S11394D0012115F8013BBBE7A3F14102052AC4D8D9
S11394E0A3F13702BFE76C2B40F0CC802B786C2BB8
S11394F040F0AD806B78AF1C692B54D010D8582B3A
S11395001CD006D8002B3FF464AF252B00F09D80BF
S113951004E0632B00F08880642B44D03A4655E77E
S1139520732B00F0878005D86F2B6ED0702B00F062
S1139530C580F3E7752B14D0782BEFD11022A3F15B
S113954058009DF804104342434163F38201E31D34
S1139550049223F007030CAA02F82C1D03F108045B
S11395600AE002230A22022B04920DD1E31D23F008
S1139570070303F1080401AAD3E900012AE0012347
S1139580F0E72F460023EDE7012B01A9206804F141
S1139590040536D1FFF73FFE2C4601AA4946404652
S11395A0FFF78FFEBAE702230A22022B049214D19A
S11395B0E31D23F00703D3E90001002803F10804A5
S11395C071F1000305DA2D23404261EB41018DF86E
S11395D00C3001AAFFF7C8FDDFE7012B206804F176
S11395E0040507D10028BEBF2D2340428DF80C305E
S11395F001A9CFE70028BEBF2D2340428DF80C30CF
S113960001A9FFF733FEC7E72F46082301A9206805
S11396100493FFF72BFE01AA49464046251DFFF798
S113962050FE2C467AE72F4621784046251DC84730
S1139630F7E72F46236801AA494640460593251DAE
S1139640FFF73FFE0596ECE72F462521CCE66F1C7D
S11396501EE7732BEED07FF667AF752B8FD0782B78
S11396607FF45CAF1022A3F158014B4204929DF8A1
S113967004204B4163F382020CA901F82C2D251D13
S1139680206887E7692B0ED010D8582B2FD006D826
S1139690002B3FF49EAE252BD6D02F463EE7632BFE
S11396A0C1D0642BF9D12F4600237DE7732BC0D0A2
S11396B018D86F2BA8D0702BEFD12F4610223D461F
S11396C09DF80430049243F002036FF382038DF893
S11396D00430206804F1040A01A9FFF7C7FD2F46EE
S11396E054465AE7752B3FF44CAF782BD5D1102252
S11396F00492A3F15802534253419DF8042063F3AA
S113970082028DF80420E4E71FB5002489B10139F1
S11397100290019101A808490394FFF74FFE0399B1
S1139720019B029A994234BF5454D454039804B010
S113973010BD0846FBE700BFA993000000F0D2BCAF
S113974008B50D4A0D4B0E498B420CD300210D4B2D
S11397500D4A93420CD3FAF72BFD0C4B0C4A1A60BA
S1139760FDF77EFCFEE752F8040F43F8040BEBE729
S113977043F8041BEDE700BF04BD00002000001007
S1139780290A0010300A0010E63D001008ED00E040
S113979000400000FEE700000A22044B1A601A6829
S11397A0013A1A60002AFAD1704700BFD0120010A3
S11397B090FAA0F070470000C30803EB900303EB9A
S11397C0901303EBD01303EB902303EBD020044B53
S11397D058605A68013A5A60002AFAD1704700BFAB
S11397E0D0120010014B5843FFF7E6BF40420F0070
S11397F00023104A136053609360D3601361D361F4
S1139800536293620C4A1360136213641366C2F8C2
S113981080300A4A136053609360D3601361D3614C
S11398205362074A1360136213641366C2F88030EC
S1139830704700BF00C0024000C0092040C0024081
S113984014C0092008B5FFF7D3FF00234CF21271AE
S1139850084A1360116240F2B11111644FF0405193
S11398601366C2F880105361536353655367C2F89B
S1139870943008BD00C00920114B1A6822F44042FC
S113988042F400421A601A6822F4405242F4005230
S11398901A601A6822F4403242F400321A601A68DC
S11398A022F4402242F400221A604FF08052054B09
S11398B01A60C722044B1A600C225A60704700BF1A
S11398C000C0024098C0092000000340094A136800
S11398D023F470131360084A136823F0C063136001
S11398E0064B1A6842F420121A601A6822F4A01275
S11398F01A60704704C0024000C0092044C00240FE
S1139900F0B5102520240122AE460F4B461E1C60E4
S11399100E4F0F4C02FA06F60138C0B2FF2803D1ED
S1139920202308462360F0BD314214BF22601A6030
S11399302560D7F800C049001CF0020F18BF41F0A1
S11399400101C3F800E0E7E75CC0092054C0092026
S113995058C0092008B5FFF7B9FF4FF40073084950
S113996032200B60FFF728FF2022064B18201A60D4
S11399704FF480430B600449BDE80840FFF7C0BFC3
S113998038C0092058C00920FF7F0D0008B540F0F9
S1139990800109041820FFF7B3FF80B208BD41EA33
S11399A000411820FFF7ACBF08B540F08001090260
S11399B01020FFF7A5FFC0B208BD41EA0021102026
S11399C0FFF79EBFF8B520221E4B70251A600127B1
S11399D0082210261C4C15F0800F02F1FF3214BF30
S11399E027601F606D0012F0FF022660EDB21E605A
S11399F0F1D10E4601274FF0100E721AD2B29042E6
S1139A000CD808221021013A12F0FF0221601960DB
S1139A10F9D1FFF7C1FE20232360F8BD082216F810
S1139A20015B15F0800F02F1FF3214BF27601F6045
S1139A306D0012F0FF02C4F800E0EDB2C3F800E0DC
S1139A40EFD1DAE75CC0092058C009202DE9F843BA
S1139A5020231D4DF0222B600126082310241B4FC8
S1139A6012F0800F03F1FF3314BF3E602E605200EA
S1139A7013F0FF033C60D2B22C60F1D1013801F144
S1139A80FF3808441021DFF84890804505D1FFF7DE
S1139A9083FE20233B60BDE8F88308260024FFF7FB
S1139AA07BFE3960D9F8003064009B07E4B248BFFC
S1139AB044F00104FFF770FE013E16F0FF06296032
S1139AC0EDD108F8014FE0E75CC0092058C0092037
S1139AD054C0092008B500210820FFF711FFC0B2C7
S1139AE008BD08B501460820FFF70AFFC0B208BD4B
S1139AF008B500211820FFF703FF0020FFF746FFF9
S1139B000028FAD14FF400411820FFF7F9FE002095
S1139B10FFF73CFFB0F5004FF9D108BD2DE9F04146
S1139B2044F23A023F4B404E1A6000233F4D3360EB
S1139B302B683F4C23F002032B60AA232360552398
S1139B4023603C4B1F461A689001FCD42B6823F019
S1139B5001032B60AA232360552323603B6813F081
S1139B608073FBD1DFF8F080C8F80030FFF7C0FF46
S1139B7031491820FFF7C4FE6020FFF7B2FFFFF75A
S1139B80A9FF4106FBD520222C4B1A601A68520605
S1139B90FCD528222A4BAA211A6000225A600123EC
S1139BA0284A3360284B1A605522216022602B68B2
S1139BB043F001032B60216022603B68DE01FCD589
S1139BC00323C8F800302B6843F002032B60AA2358
S1139BD02360552323603B689D01FCD52222552038
S1139BE0AA241A4B1A600833194A1C6018601168B9
S1139BF041F00101116017491C60186008460C68A7
S1139C00E405FCD501684905FCD5116841F0020161
S1139C101160AA221A6055221A6003689B05FCD5BC
S1139C20BDE8F08100C00F400CC10F4080C00F4060
S1139C308CC00F4088C00F4070150800A0C10F40B1
S1139C40A8C10F401800010084C00F40A4C00F40F9
S1139C50A0C00F40A8C00F4004C10F4008B5FFF7D3
S1139C60F1FDFFF777FEBDE80840FFF757BF00009E
S1139C7008B5FFF7BDFD0222084B09481A604FF0F2
S1139C808042136843F003031360AA22054B1A6051
S1139C9055221A60BDE80840FFF78EBD3CC009207C
S1139CA040420F000800004030B58BB03623044614
S1139CB00D46009305A96846074B9847059B2370FA
S1139CC0069B1A0A6370A2701A0C1B0E23710523DB
S1139CD0E2702B600BB030BDF11FFF1F30B58BB0AD
S1139CE03A2304460D46009305A96846134B98474A
